:020000040800F2
:100000000000022039F60008B9EA0008C1EA000839
:10001000C9EA0008D1EA0008D9EA00080000000097
:10002000000000000000000000000000E1EA0008FD
:10003000EFEA000800000000FDEA00080BEB0008F2
:1000400089F6000889F6000889F6000889F6000894
:1000500089F6000889F6000889F6000817EB000801
:1000600025EB000889F6000889F6000835EB000842
:1000700049EB00085DEB000871EB000885EB000818
:1000800099EB0008ADEB000889F6000889F6000836
:1000900089F6000889F6000889F60008C1EB000817
:1000A00089F60008D9EB0008F5EB000889F600088E
:1000B00011EC000889F6000889F6000889F60008A6
:1000C00089F6000889F6000889F6000889F6000814
:1000D00089F6000825EC000839EC00084DEC000812
:1000E00061EC000889F6000889F6000889F6000826
:1000F00079EC00088DEC000889F60008A1EC0008F6
:1001000089F6000889F6000889F6000889F60008D3
:10011000B5EC0008C9EC000889F6000889F600086B
:10012000DDEC0008F1EC000805ED000889F6000898
:1001300089F60008000000000000000089F60008B1
:1001400089F6000889F6000889F6000819ED00080C
:1001500089F6000889F600082DED000889F60008E8
:1001600089F6000889F6000889F6000889F6000873
:1001700089F6000889F6000889F6000800000000EA
:100180000000000089F600080000000000000000E8
:1001900089F60008000000000000000089F6000851
:1001A00000000000000000000000000089F60008C8
:1001B00089F6000889F6000889F6000889F6000823
:0401C00089F60008B4
:1001D00010B5054C237833B9044B13B10448AFF381
:1001E00000800123237010BDA0010020000000004A
:1001F000F4DA010808B5034B1BB103490348AFF318
:10020000008008BD00000000A4010020F4DA01080D
:1002100001F0FF01102A2BDB10F0070F08D010F8B7
:10022000013B013A8B422DD010F0070F42B3F6D1BB
:10023000F0B441EA012141EA014122F007047FF0D4
:1002400000070023F0E80256083C85EA010586EA2B
:10025000010685FA47F5A3FA87F586FA47F6A5FA67
:1002600087F68EB9EED1F0BC01F0FF0102F0070273
:1002700032B110F8013B013A83EA010313B1F8D11E
:100280000020704701387047002D06BF35460338FF
:10029000073815F0010F07D1013015F4807F02BF38
:1002A000013015F4C03F0130F0BC0138704700BF89
:1002B00081F0004102E000BF83F0004330B54FEA17
:1002C00041044FEA430594EA050F08BF90EA020F84
:1002D0001FBF54EA000C55EA020C7FEA645C7FEA17
:1002E000655C00F0E2804FEA5454D4EB5555B8BF3A
:1002F0006D420CDD2C4480EA020281EA030382EAAB
:10030000000083EA010180EA020281EA0303362D3C
:1003100088BF30BD11F0004F4FEA01314FF4801C0F
:100320004CEA113102D0404261EB410113F0004F21
:100330004FEA03334CEA133302D0524263EB4303D8
:1003400094EA050F00F0A780A4F10104D5F1200E76
:100350000DDB02FA0EFC22FA05F2801841F10001D1
:1003600003FA0EF2801843FA05F359410EE0A5F1A5
:1003700020050EF1200E012A03FA0EFC28BF4CF0D6
:10038000020C43FA05F3C01851EBE37101F000458C
:1003900007D54FF0000EDCF1000C7EEB00006EEB99
:1003A0000101B1F5801F1BD3B1F5001F0CD3490823
:1003B0005FEA30004FEA3C0C04F101044FEA44527A
:1003C00012F5800F80F09A80BCF1004F08BF5FEA01
:1003D000500C50F1000041EB045141EA050130BDE1
:1003E0005FEA4C0C404141EB0101013C28BFB1F5F3
:1003F000801FE9D291F0000F04BF01460020B1FA3E
:1004000081F308BF2033A3F10B03B3F120020CDA10
:100410000C3208DD02F1140CC2F10C0201FA0CF0EE
:1004200021FA02F10CE002F11402D8BFC2F1200C53
:1004300001FA02F120FA0CFCDCBF41EA0C01904009
:10044000E41AA2BF01EB0451294330BD6FEA040452
:100450001F3C1CDA0C340EDC04F11404C4F120023D
:1004600020FA04F001FA02F340EA030021FA04F34F
:1004700045EA030130BDC4F10C04C4F1200220FAA6
:1004800002F001FA04F340EA0300294630BD21FAE4
:1004900004F0294630BD94F0000F83F4801306BFAA
:1004A00081F480110134013D4EE77FEA645C18BF9E
:1004B0007FEA655C29D094EA050F08BF90EA020F35
:1004C00005D054EA000C04BF1946104630BD91EA2D
:1004D000030F1EBF0021002030BD5FEA545C05D130
:1004E0004000494128BF41F0004130BD14F580046F
:1004F0003CBF01F5801130BD01F0004545F0FE41E3
:1005000041F470014FF0000030BD7FEA645C1ABF17
:10051000194610467FEA655C1CBF0B46024650EA4E
:10052000013406BF52EA033591EA030F41F400217A
:1005300030BD00BF90F0000F04BF0021704730B500
:100540004FF4806404F132044FF000054FF00001D5
:1005500050E700BF90F0000F04BF0021704730B596
:100560004FF4806404F1320410F0004548BF40426B
:100570004FF000013EE700BF42004FEAE2014FEAC0
:1005800031014FEA02701FBF12F07F4393F07F4F9B
:1005900081F06051704732F07F4208BF704793F09E
:1005A0007F4F04BF41F40021704730B54FF46074B1
:1005B00001F0004521F000411CE700BF50EA0102B4
:1005C00008BF704730B54FF000050AE050EA01025D
:1005D00008BF704730B511F0004502D5404261EBCD
:1005E00041014FF4806404F132045FEA915C3FF40E
:1005F000D8AE4FF003025FEADC0C18BF03325FEAAB
:10060000DC0C18BF033202EBDC02C2F1200300FA5B
:1006100003FC20FA02F001FA03FE40EA0E0021FA80
:1006200002F11444BDE600BF70B54FF0FF0C4CF46E
:10063000E06C1CEA11541DBF1CEA135594EA0C0F20
:1006400095EA0C0F00F0DEF82C4481EA030621EA5B
:100650004C5123EA4C5350EA013518BF52EA033596
:1006600041F4801143F4801338D0A0FB02CE4FF048
:100670000005E1FB02E506F00042E0FB03E54FF078
:100680000006E1FB03569CF0000F18BF4EF0010E70
:10069000A4F1FF04B6F5007F64F5407404D25FEA6C
:1006A0004E0E6D4146EB060642EAC62141EA55511F
:1006B0004FEAC52040EA5E504FEACE2EB4F1FD0C61
:1006C00088BFBCF5E06F1ED8BEF1004F08BF5FEADF
:1006D000500E50F1000041EB045170BD06F0004691
:1006E00046EA010140EA020081EA0301B4EB5C043E
:1006F000C2BFD4EB0C0541EA045170BD41F4801136
:100700004FF0000E013C00F3AB8014F1360FDEBF5A
:10071000002001F0004170BDC4F10004203C35DA36
:100720000C341BDC04F11404C4F1200500FA05F3B9
:1007300020FA04F001FA05F240EA020001F000425A
:1007400021F0004110EBD37021FA04F642EB0601D0
:100750005EEA430E08BF20EAD37070BDC4F10C04FA
:10076000C4F1200500FA04F320FA05F001FA04F2BE
:1007700040EA020001F0004110EBD37041F10001AA
:100780005EEA430E08BF20EAD37070BDC4F12005B5
:1007900000FA05F24EEA020E20FA04F301FA05F21D
:1007A00043EA020321FA04F001F0004121FA04F2C5
:1007B00020EA020000EBD3705EEA430E08BF20EA95
:1007C000D37070BD94F0000F0FD101F000464000CF
:1007D00041EB010111F4801F08BF013CF7D041EA51
:1007E000060195F0000F18BF704703F00046520055
:1007F00043EB030313F4801F08BF013DF7D043EA26
:100800000603704794EA0C0F0CEA135518BF95EADB
:100810000C0F0CD050EA410618BF52EA4306D1D162
:1008200081EA030101F000414FF0000070BD50EA81
:10083000410606BF1046194652EA430619D094EA0B
:100840000C0F02D150EA013613D195EA0C0F05D1F5
:1008500052EA03361CBF104619460AD181EA030149
:1008600001F0004141F0FE4141F470014FF0000001
:1008700070BD41F0FE4141F4780170BD70B54FF09C
:10088000FF0C4CF4E06C1CEA11541DBF1CEA13551C
:1008900094EA0C0F95EA0C0F00F0A7F8A4EB0504FE
:1008A00081EA030E52EA03354FEA013100F08880F5
:1008B0004FEA03334FF0805545EA131343EA1263BE
:1008C0004FEA022245EA111545EA10654FEA002673
:1008D0000EF000419D4208BF964244F1FD0404F52C
:1008E000407402D25B084FEA3202B61A65EB030588
:1008F0005B084FEA32024FF480104FF4002CB6EB45
:10090000020E75EB030E22BFB61A754640EA0C00C4
:100910005B084FEA3202B6EB020E75EB030E22BF04
:10092000B61A754640EA5C005B084FEA3202B6EB45
:10093000020E75EB030E22BFB61A754640EA9C0004
:100940005B084FEA3202B6EB020E75EB030E22BFD4
:10095000B61A754640EADC0055EA060E18D04FEA92
:10096000051545EA16754FEA06164FEAC30343EA32
:1009700052734FEAC2025FEA1C1CC0D111F4801FFF
:100980000BD141EA00014FF000004FF0004CB6E7F8
:1009900011F4801F04BF01430020B4F1FD0C88BF97
:1009A000BCF5E06F3FF6AFAEB5EB030C04BFB6EBA2
:1009B000020C5FEA500C50F1000041EB045170BD95
:1009C0000EF0004E4EEA113114EB5C04C2BFD4EBC2
:1009D0000C0541EA045170BD41F480114FF0000E46
:1009E000013C90E645EA060E8DE60CEA135594EAC2
:1009F0000C0F08BF95EA0C0F3FF43BAF94EA0C0FC5
:100A00000AD150EA01347FF434AF95EA0C0F7FF439
:100A100025AF104619462CE795EA0C0F06D152EA8D
:100A200003353FF4FDAE1046194622E750EA410671
:100A300018BF52EA43067FF4C5AE50EA41047FF482
:100A40000DAF52EA43057FF4EBAE12E74FF0FF3CE7
:100A500006E000BF4FF0010C02E000BF4FF0010CB8
:100A60004DF804CD4FEA410C7FEA6C5C4FEA430C31
:100A700018BF7FEA6C5C1BD001B050EA410C0CBF80
:100A800052EA430C91EA030F02BF90EA020F0020E2
:100A9000704710F1000F91EA030F58BF994208BF49
:100AA00090422CBFD8176FEAE37040F00100704706
:100AB0004FEA410C7FEA6C5C02D150EA013C07D15D
:100AC0004FEA430C7FEA6C5CD6D152EA033CD3D0A8
:100AD0005DF8040B704700BF8446104662468C46A2
:100AE0001946634600E000BF01B5FFF7B7FF0028D5
:100AF00048BF10F1000F01BD4DF808EDFFF7F4FFFE
:100B00000CBF012000205DF808FB00BF4DF808ED88
:100B1000FFF7EAFF34BF012000205DF808FB00BFAB
:100B20004DF808EDFFF7E0FF94BF012000205DF8CD
:100B300008FB00BF4DF808EDFFF7CEFF94BF012082
:100B400000205DF808FB00BF4DF808EDFFF7C4FF7B
:100B500034BF012000205DF808FB00BF4FEA410CC4
:100B60007FEA6C5C02D150EA013C0AD14FEA430CA7
:100B70007FEA6C5C02D152EA033C02D14FF00000E4
:100B800070474FF0010070474A0011D212F5001271
:100B900011D20DD56FF47873B3EB62520ED44FEAD5
:100BA000C12343F0004343EA505323FA02F0704755
:100BB0004FF00000704750EA013002D14FF0FF3093
:100BC00070474FF0000070474FEA4102B2F1E04336
:100BD00024BFB3F5001CDCF1FE5C0DD901F0004C24
:100BE0004FEAC0024CEA5070B2F1004F40EB830074
:100BF00008BF20F00100704711F0804F21D113F1A0
:100C00003872BCBF01F00040704741F480114FEAD8
:100C10005252C2F11802C2F1200C10FA0CF320FA61
:100C200002F018BF40F001004FEAC1234FEAD3237E
:100C300003FA0CFC40EA0C0023FA02F34FEA4303E8
:100C4000CCE77FEA625307D150EA01331EBF4FF071
:100C5000FE4040F44000704701F0004040F0FE408C
:100C600040F40000704700BF53B94AB9002908BFDB
:100C700000281CBF4FF0FF314FF0FF3000F0A8B943
:100C8000ADF1080C6DE904CE00F044F8DDF804E0A5
:100C9000DDE9022304B07047D0B5FFF76DFC0C4BC3
:100CA000002206460F46FFF7BFFCFFF76DFF044624
:100CB000FFF740FC074B0022FFF7B6FC02460B464D
:100CC00030463946FFF7F8FAFFF75EFF2146D0BD00
:100CD0000000F03D0000F041D0B50C4B002206466C
:100CE0000F46FFF7A1FCFFF74FFF0446FFF722FC7A
:100CF000074B0022FFF798FC02460B463046394668
:100D0000FFF7DAFAFFF740FF2146D0BD0000F03DC3
:100D10000000F0412DE9F047089D0C46002B4ED114
:100D200094468C458646B2FA82F262D94AB1C2F143
:100D30002003914020FA03F30CFA02FC194300FA55
:100D400002FE4FEA1C471FFA8CF6B1FBF7F44FEA9C
:100D50001E4307FB141143EA014304FB06F19942C9
:100D60000AD91CEB030304F1FF3080F01281994291
:100D700040F20F81023C6344591A1FFA8EF3B1FB13
:100D8000F7F007FB101143EA014300FB06F69E4211
:100D90000AD91CEB030300F1FF3180F0FC809E4276
:100DA00040F2F980634402389B1B40EA0440002172
:100DB0001DB1D3400022C5E90032BDE8F0878B4267
:100DC00005D90DB1C5E9000100210846F5E7B3FAE0
:100DD00083F1002946D1A34202D39042C0F0F080B3
:100DE000861A64EB03030120002DE6D0C5E90063F9
:100DF000E3E7002A40F09080A1EB0C044FEA1C4886
:100E00001FFA8CF70121B4FBF8F64FEA1E4308FBEA
:100E1000164443EA044307FB06F0984208D91CEB4A
:100E2000030306F1FF3402D2984200F2CD80264639
:100E30001C1A1FFA8EF3B4FBF8F008FB104443EAC7
:100E4000044300FB07F79F4208D91CEB030300F1A2
:100E5000FF3402D29F4200F2B0802046DB1B40EA02
:100E60000640A5E7C1F120068B4022FA06F71F4392
:100E700020FA06FC04FA01F343EA0C03F44000FAFA
:100E800001F8380C4FEA1349B4FBF0FE1FFA87FC57
:100E900000FB1E4449EA04440EFB0CF9A14502FA8A
:100EA00001F20AD93C190EF1FF3A80F08480A14585
:100EB00040F28180AEF1020E3C44A4EB09041FFA1B
:100EC00083F9B4FBF0F300FB134449EA044403FB49
:100ED0000CFCA44507D93C1903F1FF3067D2A445A7
:100EE00065D9023B3C4443EA0E40A0FB0293A4EBCD
:100EF0000C049C42CE469C4651D34ED055B1B8EB23
:100F00000E0364EB0C0404FA06F6CB401E43CC40FF
:100F1000C5E90064002150E7C2F1200320FA03F183
:100F20000CFA02FC24FA03F394400C434FEA1C48E9
:100F300000FA02FE1FFA8CF7B3FBF8F008FB103141
:100F4000230C43EA014300FB07F1994208D91CEB4B
:100F5000030300F1FF362CD299422AD902386344A8
:100F60005B1AA4B2B3FBF8F108FB113344EA034463
:100F700001FB07F3A34208D91CEB040401F1FF367F
:100F800013D2A34211D902396444E41A41EA004160
:100F900039E70446F0E6084606E7C845AED2B9EBA5
:100FA000020E63EB070C0138A8E73146EDE7034674
:100FB00099E73046D4E7D6467FE7634402384DE7E9
:100FC0000646234608460FE7023E634430E700BF6B
:100FD000704700BF80B483B000AF786000BF0C37AB
:100FE000BD465DF8047B704780B483B000AF786085
:100FF0007B6818460C37BD465DF8047B704780B4AB
:1010000083B000AF78607B6818460C37BD465DF84A
:10101000047B704780B582B000AF7860786800F0DC
:1010200087F9B0EE407AF0EE607A7B6883ED087B5A
:10103000786800F0BDF9B0EE407AF0EE607A7B6837
:1010400083ED0A7B786800F0F3F9B0EE407AF0EEB9
:10105000607A7B6883ED0C7B786800F029FAB0EE4B
:10106000407AF0EE607A7B6883ED0E7B786800F062
:1010700040FAB0EE407AF0EE607A7B6883ED107B48
:10108000786800F057FAB0EE407AF0EE607A7B684C
:1010900083ED127B786800F0DBFAB0EE407AF0EE78
:1010A000607A7B6883ED147B786800F065FAB0EEB7
:1010B000407AF0EE607A7B6883ED167B786800F00A
:1010C000C3FBB0EE407AF0EE607A7B6883ED1A7B6A
:1010D000786800F075FAB0EE407AF0EE607A7B68DE
:1010E00083ED1C7B786800F0D3FBB0EE407AF0EE25
:1010F000607A7B6883ED207B786800F085FAB0EE3B
:10110000407AF0EE607A7B6883ED227B786800F0AD
:10111000E3FBB0EE407AF0EE607A7B6883ED267BED
:10112000786800F0DDFAB0EE407AF0EE607A7B6825
:1011300083ED187B786800F0F7FAB0EE407AF0EEB5
:10114000607A7B6883ED1E7B786800F011FBB0EE5F
:10115000407AF0EE607A7B6883ED247B786800F05B
:101160002BFBB0EE407AF0EE607A7B6883ED2A7B51
:10117000786800F091FAB0EE407AF0EE607A7B6821
:1011800083ED287B786800F0CBFBB0EE407AF0EE80
:10119000607A7B6883ED2C7B786800F031FBB0EEE1
:1011A000407AF0EE607A7B6883ED2E7B00BF0837D3
:1011B000BD4680BD80B588B000AFF86008461146D6
:1011C0001A460346FB720B463B811346FB80BB1D50
:1011D000FB6107F10803BB61FB881B0A9BB21AB2D3
:1011E000FB881B021BB213431BB2FB82FB8AFB80F2
:1011F000FB7ADB031AB23B891BB213431BB29BB2CF
:101200003B813B891B0A9BB21AB23B891B021BB272
:1012100013431BB2BB82BB8A3B81FB689B691846A8
:1012200014F0AAF9FB6898694FF4FA730222B969BD
:1012300014F053FA00BFFB689B6993F85130DBB29E
:10124000022B0CBF01230023DBB2002BF3D1FB7A6E
:10125000002B15D0FB68986942F210730222F969DD
:1012600014F077FB00BFFB689B6993F85130DBB249
:10127000022B0CBF01230023DBB2002BF3D114E0BF
:10128000FB6898694FF4FA730222F96914F025FAA1
:1012900000BFFB689B6993F85130DBB2022B0CBF97
:1012A00001230023DBB2002BF3D1FB689B691846B6
:1012B00014F0EBF9FB881B0A9BB21AB2FB881B02E5
:1012C0001BB213431BB2FB82FB8A18462037BD4674
:1012D00080BD80B586B000AF78600B467B8013463A
:1012E0003B807A884FF6FF7301217868FFF762FF31
:1012F00003467B613A884FF6FF7301217868FFF758
:1013000059FF03463B617A884FF6FF7301217868E5
:10131000FFF750FF0346FB607B691B04FB60FA6824
:101320003B691343FB60FB6818461837BD4680BD18
:1013300080B584B000AF78604FF6FF73D9220121E9
:101340007868FFF737FF0346FB81FB891846FFF7F4
:10135000F1F84FF00002144BFFF790FA02460B46EB
:10136000104619464FF00002104BFFF7CFFB034623
:10137000002B04D04FF000024FF000030AE0FB897D
:101380001846FFF7D7F84FF00002074BFFF776FA41
:1013900002460B4643EC172BB0EE470AF0EE670A05
:1013A0001037BD4680BD00BF000059400000084016
:1013B00080B584B000AF78604FF6FF73DA22012168
:1013C0007868FFF7F7FE0346FB81FB891846FFF7B5
:1013D000B1F84FF00002144BFFF750FA02460B46EB
:1013E000104619464FF00002104BFFF78FFB0346E3
:1013F000002B04D04FF000024FF000030AE0FB89FD
:101400001846FFF797F84FF00002074BFFF736FA40
:1014100002460B4643EC172BB0EE470AF0EE670A84
:101420001037BD4680BD00BF000059400000084095
:1014300080B584B000AF78604FF6FF73DB220121E6
:101440007868FFF7B7FE0346FB81FB891846FFF774
:1014500071F84FF00002144BFFF710FA02460B46EA
:10146000104619464FF00002104BFFF74FFB0346A2
:10147000002B04D04FF000024FF000030AE0FB897C
:101480001846FFF757F84FF00002074BFFF7F6F941
:1014900002460B4643EC172BB0EE470AF0EE670A04
:1014A0001037BD4680BD00BF000059400000084015
:1014B00080B584B000AF78604FF6FF73DD22012164
:1014C0007868FFF777FE0346FB81FB89022B01D882
:1014D0000023FB81FB891846FFF72CF802460B46D8
:1014E00043EC172BB0EE470AF0EE670A1037BD4603
:1014F00080BD80B584B000AF78604FF6FF73DE2208
:1015000001217868FFF756FE0346FB81FB89022B19
:1015100001D80023FB81FB891846FFF70BF8024630
:101520000B4643EC172BB0EE470AF0EE670A103774
:10153000BD4680BD80B584B000AF78604FF6FF73C4
:10154000DF2201217868FFF735FE0346FB81FB8926
:10155000022B01D80023FB81FB891846FEF7EAFF26
:1015600002460B4643EC172BB0EE470AF0EE670A33
:101570001037BD4680BD000080B584B000AF7860F4
:10158000C122B1217868FFF7A4FEF860F868FEF781
:10159000E1FF09A3D3E90023FFF746F802460B4613
:1015A00043EC172BB0EE470AF0EE670A1037BD4642
:1015B00080BD00BFAFF30080F168E388B5F8343F29
:1015C00080B584B000AF7860C222B2217868FFF79E
:1015D00080FEF860F868FEF7BDFF09A3D3E9002399
:1015E000FFF722F802460B4643EC172BB0EE470AF2
:1015F000F0EE670A1037BD4680BD00BFAFF3008034
:10160000F168E388B5F8343F80B584B000AF786006
:10161000C322B3217868FFF75CFEF860F868FEF734
:1016200099FF09A3D3E90023FEF7FEFF02460B460C
:1016300043EC172BB0EE470AF0EE670A1037BD46B1
:1016400080BD00BFAFF30080F168E388B5F8343F98
:1016500080B584B000AF7860C022B0217868FFF711
:1016600038FEF860F868FEF775FF09A3D3E9002398
:10167000FEF7DAFF02460B4643EC172BB0EE470AA3
:10168000F0EE670A1037BD4680BD00BFAFF30080A3
:10169000F168E388B5F8343F80B584B000AF786076
:1016A000C422B4217868FFF714FEF860F868FEF7EA
:1016B00051FF09A3D3E90023FEF7B6FF02460B460C
:1016C00043EC172BB0EE470AF0EE670A1037BD4621
:1016D00080BD00BFAFF30080F168E388B5F8343F08
:1016E00080B584B000AF7860C922B9217868FFF76F
:1016F000F0FDF860F868FEF72DFF09A3D3E9002399
:10170000FEF792FF02460B4643EC172BB0EE470A5A
:10171000F0EE670A1037BD4680BD00BFAFF3008012
:10172000F168E388B5F8343F80B584B000AF7860E5
:10173000CA22BA217868FFF7CCFDF860F868FEF796
:1017400009FF09A3D3E90023FEF76EFF02460B460B
:1017500043EC172BB0EE470AF0EE670A1037BD4690
:1017600080BD00BFAFF30080F168E388B5F8343F77
:1017700080B584B000AF7860CB22BB217868FFF7DA
:10178000A8FDF860F868FEF7E5FE09A3D3E9002399
:10179000FEF74AFF02460B4643EC172BB0EE470A12
:1017A000F0EE670A1037BD4680BD00BFAFF3008082
:1017B000F168E388B5F8343F80B584B000AF786055
:1017C000C822B8217868FFF784FDF860F868FEF752
:1017D000C1FE09A3D3E90023FEF726FF02460B460C
:1017E00043EC172BB0EE470AF0EE670A1037BD4600
:1017F00080BD00BFAFF30080F168E388B5F8343FE7
:1018000080B584B000AF78604FF6FF73F8220121F5
:101810007868FFF7CFFC0346FB81FB891846FEF78B
:1018200089FE4FF00002074BFFF728F802460B46EF
:1018300043EC172BB0EE470AF0EE670A1037BD46AF
:1018400080BD00BF0000594080B584B000AF786013
:101850004FF6FF73BD2201217868FFF7ABFC03460A
:10186000FB81B7F90E301846FEF774FE4FF0000208
:10187000064BFFF703F802460B4643EC172BB0EE7E
:10188000470AF0EE670A1037BD4680BD00408F4022
:1018900080B584B000AF78604FF6FF73BE2201219F
:1018A0007868FFF787FC0346FB81B7F90E301846CE
:1018B000FEF750FE4FF00002064BFEF7DFFF024638
:1018C0000B4643EC172BB0EE470AF0EE670A1037D1
:1018D000BD4680BD00408F4080B584B000AF7860C9
:1018E0004FF6FF73BF2201217868FFF763FC0346C0
:1018F000FB81B7F90E301846FEF72CFE4FF00002C0
:10190000064BFEF7BBFF02460B4643EC172BB0EE2F
:10191000470AF0EE670A1037BD4680BD00408F4091
:1019200080B584B000AF78604FF6FF73FC220121D0
:101930007868FFF73FFC0346FB81B7F90E30184685
:10194000FEF708FE02460B4643EC172BB0EE470AA3
:10195000F0EE670A1037BD4680BD000080B584B048
:1019600000AF78604FF6FF73812201217868FFF79E
:1019700021FC0346FB81FB891846FEF7DBFD4FF097
:101980000002074BFEF77AFF02460B4643EC172B8B
:10199000B0EE470AF0EE670A1037BD4680BD00BFC3
:1019A0000000744080B584B000AF78604FF6FF73DC
:1019B000822201217868FFF7FDFB0346FB81FB894A
:1019C0001846FEF7B7FD4FF00002074BFEF756FF33
:1019D00002460B4643EC172BB0EE470AF0EE670ABF
:1019E0001037BD4680BD00BF0000744080B584B094
:1019F00000AF78604FF6FF73832201217868FFF70C
:101A0000D9FB0346FB81FB891846FEF793FD4FF097
:101A10000002074BFEF732FF02460B4643EC172B42
:101A2000B0EE470AF0EE670A1037BD4680BD00BF32
:101A30000000744080B584B000AF78604FF6FF734B
:101A4000882201217868FFF7B5FB0346FB81FB89FB
:101A50001846FEF76FFD4FF00002074BFEF70EFF32
:101A600002460B4643EC172BB0EE470AF0EE670A2E
:101A70001037BD4680BD00BF0000744080B584B003
:101A800000AF78604FF6FF73902201217868FFF76E
:101A900091FB0346FB81FB891846FEF74BFD4FF097
:101AA0000002074BFEF7EAFE02460B4643EC172BFB
:101AB000B0EE470AF0EE670A1037BD4680BD00BFA2
:101AC0000000744080B584B000AF78604FF6FF73BB
:101AD0008C2201217868FFF76DFB0346FB81FB89AF
:101AE0001846FEF727FD4FF00002074BFEF7C6FE33
:101AF00002460B4643EC172BB0EE470AF0EE670A9E
:101B00001037BD4680BD00BF00007440B0B586B040
:101B100000AFF860B96011461A460B46FB801346C9
:101B2000BB80FB6805221A60FB68FA889A80FB6814
:101B3000BA88DA80FB68BA689A61FB683A8D1A81C4
:101B4000FB68BA8D5A81FB683A8E9A81FB68BA8E1F
:101B5000DA81FB683A8F1A82FB68BA8F5A82FB6877
:101B60009B8841F28512934205D0FB689B8841F225
:101B70006F42934208D15A23FB8241F2D473BB8255
:101B800041F20C737B8207E0BE23FB8241F2EC330F
:101B9000BB8241F224337B82FB8A642202FB03F383
:101BA0001846FEF7D7FC04460D46022000F07DF9EA
:101BB00053EC102B20462946FEF736FD02460B4615
:101BC00014461D46FB681B89002B02DA03F57F5380
:101BD0003F339B131846FEF7BDFC02460B462046DA
:101BE0002946FEF74BFE02460B4610461946FEF705
:101BF000CBFF03463B8247F69A0370220021F86828
:101C0000FFF7D8FA0A200DF0D5FD45F2AA537F223E
:101C10000021F868FFF7CEFA012300220021F868BE
:101C2000FFF7C8FA41F23F4305220021F868FFF7A9
:101C3000C1FA3B8A08220021F868FFF7BBFABB8A89
:101C40000D220021F868FFF7B5FA7B8A0C220021EB
:101C5000F868FFF7AFFA4BF26F7375220021F8684E
:101C6000FFF7A8FA4DF6FD5376220021F868FFF73A
:101C7000A1FA012373220021F868FFF79BFA0123E0
:101C800074220021F868FFF795FA46F6024307220E
:101C90000021F868FFF78EFA40F661033122002137
:101CA000F868FFF787FA4CF2684332220021F8689F
:101CB000FFF780FA872333220021F868FFF77AFACA
:101CC00041F22A5334220021F868FFF773FA41F6F3
:101CD0004C5335220021F868FFF76CFA41F64C535B
:101CE00036220021F868FFF765FA41F64C53372297
:101CF0000021F868FFF75EFA40F2EE233822002157
:101D0000F868FFF757FA40F2EE2339220021F8680D
:101D1000FFF750FA40F2EE233A220021F868FFF76D
:101D200049FA002347220021F868FFF743FA00230D
:101D300048220021F868FFF73DFA002349220021DC
:101D4000F868FFF737FA00234A220021F868FFF706
:101D500031FA00234B220021F868FFF72BFA002309
:101D60004C220021F868FFF725FA002341220021C8
:101D7000F868FFF71FFA002342220021F868FFF7F6
:101D800019FA002343220021F868FFF713FA002311
:101D900044220021F868FFF70DFA002345220021B4
:101DA000F868FFF707FA002346220021F868FFF7DA
:101DB00001FA002351220021F868FFF7FBF9002304
:101DC00052220021F868FFF7F5F900235322002181
:101DD000F868FFF7EFF9002354220021F868FFF7B5
:101DE000E9F9002355220021F868FFF7E3F9002301
:101DF00056220021F868FFF7DDF9FB681B89612294
:101E00000021F868FFF7D6F9FB68DB896222002120
:101E1000F868FFF7CFF9002363220021F868FFF785
:101E2000C9F9002364220021F868FFF7C3F9FB68B1
:101E30005B8965220021F868FFF7BCF9FB681B8A03
:101E400066220021F868FFF7B5F900236722002118
:101E5000F868FFF7AFF9002368220021F868FFF760
:101E6000A9F9FB689B8969220021F868FFF7A2F9AC
:101E7000FB685B8A6A220021F868FFF79BF9002360
:101E80006B220021F868FFF795F900236C220021EE
:101E9000F868FFF78FF900237F220021F868FFF729
:101EA00089F900BF1837BD46B0BD80B582B000AF1C
:101EB00078607868FEF74EFB02460B4643EC102B29
:101EC0001AF0F2FEB0EE407AF0EE607AB0EE470A19
:101ED000F0EE670A0837BD4680BD000080B582B0CD
:101EE00000AF786039607B68012B07D13B684FF603
:101EF000FF72934202D10948FFF776F87B68002B06
:101F000007D13B684FF6FF72934202D10348FFF7B7
:101F100076F800BF0837BD4680BD00BFC001002075
:101F200080B500AF4FF6FF710120FFF7D7FF80BDEE
:101F300080B500AF4FF6FF710020FFF7CFFF80BDE7
:101F400080B483B000AF78600B46FB707B681E4A9C
:101F50001A607B681D4A5A607B681D4A9A607B68DC
:101F60001C4ADA607B681C4A1A617B681B4A5A610A
:101F70007B681B4A9A617B681A4ADA617B681A4A55
:101F80001A627B68194A5A627B684FF000029A62B3
:101F90007B684FF07A52DA627B684FF000029A63F6
:101FA0007B684FF00002DA637B684FF000021A642E
:101FB0007B68FA7883F84C207B6818460C37BD465E
:101FC0005DF8047B704700BF0AD73B403333534072
:101FD0005C8F2240A8C63B40AE470940FA7E2240B3
:101FE000D7A3E03F4C37094052B8AE3F1283E03FE1
:101FF00080B483B000AF78607B6818460C37BD466C
:102000005DF8047B7047000080B584B000AF786055
:102010004523FB73444800F00DFC0346012B0CBF25
:1020200001230023DBB2002B77D0404B93ED007AE5
:10203000DFED3F6AC6EE877AB7EE007A37EEC77AF1
:10204000F7EE006AC6EE877A9FED3A7A67EE877AF6
:10205000C7ED027AD7ED027A9FED377AF4EEC77AB0
:10206000F1EE10FA0BDDD7ED027A9FED347AF4EE43
:10207000C77AF1EE10FA02D53623FB734FE0D7EDA5
:10208000027A9FED2F7AF4EEC77AF1EE10FA0BDDAB
:10209000D7ED027A9FED2B7AF4EEC77AF1EE10FAC3
:1020A00002D53323FB733AE0D7ED027A9FED267A0F
:1020B000F4EEC77AF1EE10FA0BDDD7ED027A9FED60
:1020C000237AF4EEC77AF1EE10FA02D53223FB73CD
:1020D00025E0D7ED027A9FED1E7AF4EEC77AF1EE95
:1020E00010FA0BDDD7ED027A9FED1A7AF4EEC77A7B
:1020F000F1EE10FA02D53123FB7310E0D7ED027A2E
:102100009FED147AF4EEC77AF1EE10FA02DD4E2359
:10211000FB7304E04523FB7301E03323FB73FB7B7C
:1021200018461037BD4680BDA40A00203824002080
:102130000000804500007A440000704200000C431B
:1021400000001643000087430000164400003E4490
:102150000080A2440000E14480B584B000AF786004
:102160004523FB724FF00003FB607868FFF74CFFDC
:102170000346FB72FB7A312B02D11B4BFB6015E04F
:10218000FB7A322B02D1194BFB600FE0FB7A332B29
:1021900003D14FF08443FB6008E0FB7A362B02D179
:1021A000134BFB6002E04FF00003FB60114800F0AE
:1021B0006FFBB0EE407AD7ED037AF4EEC77AF1EE1A
:1021C00010FACCBF01230023DBB2002B04D0094856
:1021D00000F05EFB87ED030AFB6807EE903AB0EE75
:1021E000670A1037BD4680BD000050410000A04185
:1021F00000007C42A40A002080B586B000AF786061
:1022000087ED000A4FF000037B61514B3B610023D7
:10221000FB81D7ED007AF5EE407AF1EE10FA05D0A9
:102220004C4B1B6841F288325A6303E0494B1B68F0
:1022300000225A63D7ED007AB1EE087AF4EEC77A3D
:10224000F1EE10FA02D5444B3B6015E07868FFF7D9
:1022500083FFB0EE407AD7ED007AF4EEC77AF1EE64
:1022600010FACCBF01230023DBB2002B04D0786826
:10227000FFF772FF87ED000AD7ED007AB1EE087A1A
:10228000F4EEC77AF1EE10FA1ADB344BD3ED037A91
:1022900097ED007AB4EEE77AF1EE10FA10D83868CC
:1022A000FEF76AF928A3D3E90023FEF7E7FA02460E
:1022B0000B4610461946FEF787FC03467B6103E098
:1022C000254B3B60264B7B61D7ED047ADFED256A19
:1022D00087EEA67AD7ED057A67EE277AFCEEE77AE5
:1022E00017EE903AFB817B689B8E002B05D17B68B3
:1022F0001B6B1B68FA895A6318E07B689B8E042B62
:1023000005D17B681B6B1B68FA899A630EE07B68BA
:102310009B8E082B05D17B681B6B1B68FA89DA63DF
:1023200004E07B681B6B1B68FA891A647B683A6857
:102330009A633B6807EE903AB0EE670A1837BD46DD
:1023400080BD00BFAFF30080333333333333E33F1B
:1023500000007A44E40E00200000C040A40A0020DF
:10236000000020410000C84280B487B000AF786010
:102370007B689B8E002B06D17B681B6B1B684FF420
:102380007A725A631BE07B689B8E042B06D17B68B4
:102390001B6B1B684FF47A729A6310E07B689B8E0C
:1023A000082B06D17B681B6B1B684FF47A72DA63CB
:1023B00005E07B681B6B1B684FF47A721A64204B34
:1023C0001B6800225A637B68D3ED0E7AF5EE407AE3
:1023D000F1EE10FA29D07B68DB6BFB6000237B6198
:1023E00009E0184A7B699B0013444FF000021A6011
:1023F0007B6901337B617B69B3F5F27FF1DD40F2EC
:10240000E5133B6109E07B68DA6B0E493B699B0091
:102410000B441A603B6901333B613B69B3F5FA7FBA
:10242000F1DB094B40F2E5121A807B684FF00002A5
:102430009A6300BF1C37BD465DF8047B704700BF40
:10244000E40E0020D0020020A00A002080B584B055
:1024500000AFF860B9603B601346FB80FB68BA6868
:102460001A63FB68FA889A86FB683A685A64FB68C4
:10247000BA699A64FB689B8E002B06D1FB681B6BC4
:102480001B684FF47A725A631BE0FB689B8E042B27
:1024900006D1FB681B6B1B684FF47A729A6310E0DD
:1024A000FB689B8E082B06D1FB681B6B1B684FF4E7
:1024B0007A72DA6305E0FB681B6B1B684FF47A7273
:1024C0001A64F868FFF750FF00BF1037BD4680BDA3
:1024D00080B586B000AFF8600B467A60FB720DF0F5
:1024E0005DF9786115E0144810F0E3F9FB6893F8A2
:1024F0004C301946F86800F021F803461A46FB7A7A
:10250000934214BF01230023DBB2002B01D0002330
:102510000DE00DF043F902467B69D31A7A689A42BE
:102520008CBF01230023DBB2002BDCD10123184632
:102530001837BD4680BD00BF180D002080B483B0A1
:1025400000AF78600B46FB707B6893ED007A384BE8
:10255000D3ED007AB4EEE77AF1EE10FA01D8412318
:1025600060E07B6893ED027A314BD3ED007AB4EEF4
:10257000E77AF1EE10FA0CD87B6893ED037A2C4BD6
:10258000D3ED007AB4EEE77AF1EE10FA01DB4223E4
:1025900048E07B6893ED047A254BD3ED007AB4EEE6
:1025A000E77AF1EE10FA0CD87B6893ED057A204BB0
:1025B000D3ED007AB4EEE77AF1EE10FA01DB4323B3
:1025C00030E07B6893ED067A194BD3ED007AB4EED8
:1025D000E77AF1EE10FA0CD87B6893ED077A144B8A
:1025E000D3ED007AB4EEE77AF1EE10FA01DB442382
:1025F00018E07B6893ED087A0D4BD3ED007AB4EECA
:10260000E77AF1EE10FA0CD87B6893ED097A084B63
:10261000D3ED007AB4EEE77AF1EE10FA01DB452350
:1026200000E0462318460C37BD465DF8047B704732
:102630003024002080B582B000AF786039607B68BC
:10264000012B08D13B684FF6FF72934203D1012161
:102650000848FFF775FC7B68002B07D13B684FF6F5
:10266000FF72934202D10348FFF7C2FC00BF083754
:10267000BD4680BD8002002080B500AF4FF6FF71DF
:102680000120FFF7D7FF80BD80B500AF4FF6FF7187
:102690000020FFF7CFFF80BD80B483B000AF78602B
:1026A0000B46FB707B6840225A727B6800229A724C
:1026B0007B684FF08442DA607B68FA781A707B6836
:1026C00018460C37BD465DF8047B704780B483B074
:1026D00000AF78607B6818460C37BD465DF8047B18
:1026E000704780B588B004AF78600B46FB7000235C
:1026F000FB737B6858687B681B7819466423052246
:102700000FF00CFC7B6858687B681B781946FB78D7
:102710009AB2642302930123019307F10F030093FC
:1027200001230FF0D5F9FB7B18461037BD4680BD5D
:1027300080B586B004AF78600B46FB701346BB7063
:10274000786800F029F87B6858687B681B78194620
:10275000642305220FF0E2FB7B6858687B681B78D6
:102760001946FB789AB26423029301230193BB1CA0
:10277000009301230FF0B2F87B6858687B681B78E0
:102780001946642305220FF0C9FB786800F014F89D
:1027900000BF0837BD4680BD80B582B000AF78600D
:1027A0000022012103480EF0F3FE00BF0837BD46AA
:1027B00080BD00BF000C024080B582B000AF7860E1
:1027C0000122012103480EF0E3FE00BF0837BD4699
:1027D00080BD00BF000C024080B582B000AF7860C1
:1027E0000B46FB70FB78002B0AD07B685B7A3122AA
:1027F00019467868FFF79CFF7B6801221A7209E08E
:102800007B685B7A302219467868FFF791FF7B6816
:1028100000221A7200BF0837BD4680BD80B483B065
:1028200000AF7860012318460C37BD465DF8047B85
:102830007047000080B582B000AF78601022044974
:10284000786800F0BFF8034618460837BD4680BDDB
:102850000010024080B483B000AF78607B689B7A40
:1028600018460C37BD465DF8047B704780B483B0D2
:1028700000AF78607B681B7A002B14BF0123002314
:10288000DBB218460C37BD465DF8047B704700008C
:1028900080B584B000AF78600023FB817868FFF7D3
:1028A000BDFF0346012B0CBF01230023DBB2002B2D
:1028B00003D07B68D3ED037A79E001223E49786842
:1028C00000F080F80346002B01D0002300E0012334
:1028D0009AB2FB891344FB814FF4805237497868E0
:1028E00000F070F80346002B01D0002300E0022323
:1028F0009AB2FB891344FB814FF400422F49786858
:1029000000F060F80346002B01D0002300E0042310
:102910009AB2FB891344FB814FF40042284978683E
:1029200000F050F80346002B01D0002300E00823FC
:102930009AB2FB891344FB81FB89082B2FD801A293
:1029400052F823F0692900086F290008752900084A
:102950007B29000881290008872900088D290008A3
:1029600093290008992900080023FB811AE0062317
:10297000FB8117E00A23FB8114E00D23FB8111E0AA
:102980001023FB810EE01423FB810BE01923FB8154
:1029900008E01C23FB8105E02023FB8102E02023CB
:1029A000FB8100BFFB8907EE903AF8EE677AB0EE44
:1029B000670A1037BD4680BD00000240001002408B
:1029C0000004024080B584B000AFF860B9601346DF
:1029D000FB80FB881946B8680EF0C2FD0346002B49
:1029E00014BF01230023DBB218461037BD4680BD5B
:1029F00080B584B000AF786039607B6801221A74BA
:102A00007B683A685A607B685B7A19467868FFF79A
:102A100068FE0346FB73FB7B312B09D0FB7B302B1D
:102A200006D07B685B7A312219467868FFF780FE12
:102A30007B685B7A19467868FFF753FE0346FB73A1
:102A4000FB7B302B03D17B6800221A7202E07B688B
:102A500001221A721248FEF7DDFA114BD3E90A017E
:102A60004FF000020F4BFEF751F80346002B0ED03B
:102A70000B4BD3E90C014FF000020A4BFEF746F86E
:102A80000346002B03D0084B00229A7203E0064B4A
:102A900001229A7200BF00BF1037BD4680BD00BF43
:102AA000C001002000003E40A40A002080B582B092
:102AB00000AF786039607B68012B08D13B684FF626
:102AC000FF72934203D1A0210848FFF7E5FD7B6820
:102AD000002B07D13B684FF6FF72934202D10348A7
:102AE000FFF7F4FD00BF0837BD4680BDA40A0020F3
:102AF00080B500AF4FF6FF710120FFF7D7FF80BD13
:102B000080B500AF4FF6FF710020FFF7CFFF80BD0B
:102B100080B483B000AF78600B46FB707B684FF4E5
:102B20007A721A607B6800229A727B680822DA72D5
:102B30007B6810221A737B6818225A737B68FA78B4
:102B40005A727B6818460C37BD465DF8047B7047A7
:102B500080B483B000AF78607B6818460C37BD4600
:102B60005DF8047B7047000080B582B000AF7860EC
:102B700039607B683A681A613F21786800F053F940
:102B80000346692B14BF01230023DBB2002B13D0B3
:102B90009FED170B786800F0B7FA9FED150B78687A
:102BA00000F0C4FA9FED120B786800F0D1FA6922A8
:102BB0003F21786800F072F90CF0F0FD02467B6866
:102BC0005A603F21786800F02EF90346692B0CBF4C
:102BD00001230023DBB2002B03D07B6801221A7291
:102BE00002E07B6800221A7200BF0837BD4680BD34
:102BF000000000000000F03F80B483B000AF7860B8
:102C00000B467B8008E000BF00BF00BF00BF00BFD5
:102C100000BF00BF00BF00BF7B885A1E7A80002B18
:102C200014BF01230023DBB2002BECD100BF00BF97
:102C30000C37BD465DF8047B7047000080B588B056
:102C400000AF786007F1080300221A605A609A60AA
:102C5000DA601A617B681B691B68454A934240F041
:102C600082807B681B6918460EF008FE0A2178688E
:102C7000FFF7C2FF4FF48063BB600123FB600023BA
:102C80003B6107F1080319463A480EF0E1F94FF4A9
:102C90008053BB600123FB6000233B6107F1080305
:102CA000194635480EF0D4F901224FF480513248CC
:102CB0000EF06EFC01224FF480612E480EF068FC8D
:102CC0000023FB6116E001224FF4806129480EF0D9
:102CD0005FFC03217868FFF78FFF00224FF48061CB
:102CE00024480EF055FC03217868FFF785FFFB6947
:102CF0000133FB61FB69082BE5DD7B681A697B68A2
:102D00001B6912681A607B681B691C4A5A607B68E1
:102D10001B6900229A607B681B690022DA607B686D
:102D20001B694FF480421A617B681B6900225A615B
:102D30007B681B6900229A617B681B690022DA614B
:102D40007B681B6900221A627B681B6918460EF0BB
:102D500051FC0346002B14BF01230023DBB2002BE0
:102D600001D003F071FF00BF2037BD4680BD00BF1A
:102D7000005800400004024000080240801A06008B
:102D800080B582B000AF78600022012103480EF0C8
:102D9000FFFB00BF0837BD4680BD00BF000C0240EE
:102DA00080B582B000AF78600122012103480EF0A7
:102DB000EFFB00BF0837BD4680BD00BF000C0240DE
:102DC00080B487B000AFF860B9607A6000237B619F
:102DD0001AE07B69BA6813441B78FB747A687B69D4
:102DE000D31A013BBA681A447B69B9680B4412785C
:102DF0001A707A687B69D31A013BBA681344FA7C6B
:102E00001A707B6901337B617B68DA0F13445B10B6
:102E10001A467B699342DCDB00BF00BF1C37BD460E
:102E20005DF8047B704780B588B004AF78600B46CE
:102E3000FB700023FB737B6818697B685B7A19461B
:102E4000642305220FF06AF80346002B14BF012308
:102E50000023DBB2002B0BD07868FFF7EFFE7B6816
:102E600018697B685B7A1946642305220FF056F8CF
:102E70007B6818697B685B7A1946FB789AB2642391
:102E800002930123019307F10F03009301230EF036
:102E90001FFEFB7B18461037BD4680BD80B586B04F
:102EA00004AF78600B46FB701346BB707868FFF781
:102EB00067FF7B6818697B685B7A19466423052283
:102EC0000FF02CF80346002B14BF01230023DBB2C4
:102ED000002B0BD07868FFF7B1FE7B6818697B6820
:102EE0005B7A1946642305220FF018F87B6818698D
:102EF0007B685B7A1946FB789AB2642302930123BC
:102F00000193BB1C009301230EF0E8FC7B68186959
:102F10007B685B7A1946642305220EF0FFFF786810
:102F2000FFF73EFF00BF0837BD4680BD80B58AB0C1
:102F300004AF78600B46FB704FF000024FF00003C7
:102F4000C7E90423FB78F82B04D94FF000024FF0B7
:102F500000033AE07B6818697B685B7A1946642352
:102F600005220EF0DBFF0346002B14BF01230023D4
:102F7000DBB2002B0BD07868FFF760FE7B68186926
:102F80007B685B7A1946642305220EF0C7FF7B68D5
:102F900018697B685B7A1946FB789AB264230293BE
:102FA0000823019307F10803009301230EF090FD1D
:102FB00007F10803082219467868FFF701FFD7E9EF
:102FC0000223C7E90423D7E9042343EC172BB0EE0F
:102FD000470AF0EE670A1837BD4680BD80B58AB053
:102FE00004AFF8600B4687ED000BFB7207F110038E
:102FF0003A4692E8030083E8030007F11003082231
:103000001946F868FFF7DCFEF868FFF7B9FEFB68C1
:103010001869FB685B7A1946642305220EF07EFF6F
:103020000346002B14BF01230023DBB2002B0BD07F
:10303000F868FFF703FEFB681869FB685B7A1946BE
:10304000642305220EF06AFFFB681869FB685B7A4F
:103050001946FB7A9AB2642302930823019307F17D
:103060001003009301230EF039FCFB681869FB681C
:103070005B7A1946642305220EF050FFF868FFF7CB
:103080008FFE00BF1837BD4680BD80B582B000AF4F
:1030900078607B68DB7A19467868FFF747FFB0EE07
:1030A000407AF0EE607AB0EE470AF0EE670A083731
:1030B000BD4680BD80B582B000AF78607B681B7B69
:1030C00019467868FFF732FFB0EE407AF0EE607A8A
:1030D000B0EE470AF0EE670A0837BD4680BD80B5FE
:1030E00082B000AF78607B685B7B19467868FFF739
:1030F0001DFFB0EE407AF0EE607AB0EE470AF0EED7
:10310000670A0837BD4680BD80B584B000AFF8605F
:1031100087ED000BFB68DB7A97ED000B1946F8682A
:10312000FFF75CFF00BF1037BD4680BD80B584B09F
:1031300000AFF86087ED000BFB681B7B97ED000B81
:103140001946F868FFF74AFF00BF1037BD4680BD3B
:1031500080B584B000AFF86087ED000BFB685B7B47
:1031600097ED000B1946F868FFF738FF00BF1037DE
:10317000BD4680BD80B582B000AF786039607B68A5
:10318000012B08D13B684FF6FF72934203D1A02177
:103190000848FFF7BDFC7B68002B07D13B684FF662
:1031A000FF72934202D10348FFF7D2FC00BF0837F9
:1031B000BD4680BD240B002080B500AF4FF6FF71E7
:1031C0000120FFF7D7FF80BD80B500AF4FF6FF713C
:1031D0000020FFF7CFFF80BD80B584B000AF03466D
:1031E000FB80FB88042B31D1042138480EF0B8F95C
:1031F0000346012B0CBF01230023DBB2002B25D09B
:10320000334BD3E92E2310461946FDF7DDFC06EEBD
:10321000900ADFED307A87EEA67AF1EE006AC7EE0B
:10322000267A9FED2C7A67EE877A9FED2A7A77EEE1
:10323000877A294B1B681B68FCEEE77A17EE902A09
:10324000DA62254B1B68184613F00AF8FB88B3F5C1
:10325000805F37D14FF480511C480EF081F903464E
:10326000002B0CBF01230023DBB2002B2AD0052347
:10327000FB600CE04FF4805114480EF071F90346E6
:10328000012B0CBF01230023DBB2002B0AD1FB680A
:103290005A1EFA60002B14BF01230023DBB2002B5F
:1032A000E8D100E000BFFB68002B0BDC00224FF4EC
:1032B00000410A480EF06CF9094B30225A77094B4D
:1032C00001229A7500BF1037BD4680BD0004024040
:1032D000C001002000007A4404000020000C0240DD
:1032E00008190020F018002080B483B000AF786087
:1032F0007B6800229A757B684FF4AF629A837B6883
:1033000018460C37BD465DF8047B704780B483B027
:1033100000AF78607B6818460C37BD465DF8047BCB
:103320007047000080B584B000AFF860B9603B60C2
:103330001346FB80FB68BA681A60FB68FA889A80BB
:10334000FB683A689A60FB683A8B9A81FB68FA6975
:103350001A61FB683A8C9A82FB680022DA75FB6876
:1033600001221A76FB6800225A83FB689B88002B97
:1033700005D1FB681B681B6800225A6318E0FB68D4
:103380009B88042B05D1FB681B681B6800229A638D
:103390000EE0FB689B88082B05D1FB681B681B6847
:1033A0000022DA6304E0FB681B681B6800221A64D1
:1033B000FB689B89002B05D1FB689B681B6800227A
:1033C0005A6318E0FB689B89042B05D1FB689B6856
:1033D0001B6800229A630EE0FB689B89082B05D1CD
:1033E000FB689B681B680022DA6304E0FB689B684B
:1033F0001B6800221A64FB689B8A002B05D1FB68BE
:103400001B691B6800225A6318E0FB689B8A042B27
:1034100005D1FB681B691B6800229A630EE0FB68FC
:103420009B8A082B05D1FB681B691B680022DA63A5
:1034300004E0FB681B691B6800221A640023002259
:1034400000212F4800F018F94FF496700CF0B2F9F3
:103450002C480FF02EFA642364226421284800F0DF
:103460000BF94FF496700CF0A5F926480FF021FAED
:10347000002300220021224800F0FEF84FF496704D
:103480000CF098F91F480FF014FA642364226421A9
:103490001B4800F0F1F84FF496700CF08BF91948C6
:1034A0000FF007FA002300220021154800F0E4F88D
:1034B0004FF496700CF07EF912480FF0FAF964237D
:1034C000642264210E4800F0D7F84FF496700CF097
:1034D00071F90C480FF0EDF9002300220021084893
:1034E00000F0CAF84FF496700CF064F905480FF03C
:1034F000E0F9F86800F014F800BF1037BD4680BD51
:10350000380B0020180D002080B483B000AF786025
:103510007B689B7D18460C37BD465DF8047B704781
:1035200080B582B000AF78607B689B7D312B00F066
:103530009D807B6831229A757B680022DA757B68F2
:103540009B68184612F037FE7B689B6854225A60CD
:103550007B689B6800229A60464B9A8B7B689B68CD
:10356000DA607B689B6800221A617B689B68002296
:103570009A617B689B68184612F0CEFD0346002BCB
:1035800014BF01230023DBB2002B01D003F05CFB4E
:103590007B689B88002B05D17B681B681B68002219
:1035A0005A6318E07B689B88042B05D17B681B68F5
:1035B0001B6800229A630EE07B689B88082B05D16C
:1035C0007B681B681B680022DA6304E07B681B6869
:1035D0001B6800221A647B689B89002B06D1254B4F
:1035E0009A8B7B689B681B685A631BE07B689B898E
:1035F000042B06D11F4B9A8B7B689B681B689A63D0
:1036000010E07B689B89082B06D11A4B9A8B7B684C
:103610009B681B68DA6305E0164B9A8B7B689B6896
:103620001B681A647B689B8A002B05D17B681B6929
:103630001B6800225A631AE07B689B8A042B05D121
:103640007B681B691B6800229A6310E07B689B8A79
:10365000082B05D17B681B691B680022DA6306E032
:103660007B681B691B6800221A6400E000BF0837F2
:10367000BD4680BD380B002080B582B000AF7860B9
:10368000084611461A460346FB700B46BB701346AC
:103690007B707B680022DA757B681B68184612F025
:1036A0008AFD7B681B684FF452725A607B681B6806
:1036B00000229A607B681B68FF22DA607B681B68C7
:1036C00000221A617B681B6800229A617B681B6874
:1036D000184612F021FD0346002B14BF01230023DE
:1036E000DBB2002B01D003F0AFFA7B689B88002B84
:1036F00005D17B681B681B68FA785A6318E07B6801
:103700009B88042B05D17B681B681B68FA789A6339
:103710000EE07B689B88082B05D17B681B681B68C3
:10372000FA78DA6304E07B681B681B68FA781A642D
:103730007B689B89002B05D17B689B681B68BA78E6
:103740005A6318E07B689B89042B05D17B689B68D2
:103750001B68BA789A630EE07B689B89082B05D1B9
:103760007B689B681B68BA78DA6304E07B689B68B7
:103770001B68BA781A647B689B8A002B05D17B682A
:103780001B691B687A785A6318E07B689B8A042B54
:1037900005D17B681B691B687A789A630EE07B68A9
:1037A0009B8A082B05D17B681B691B687A78DA63D2
:1037B00004E07B681B691B687A781A6400BF0837CD
:1037C000BD4680BD80B582B000AF78607B689B7DD0
:1037D000322B00F09E807B6832229A757B68002233
:1037E000DA757B681B69184612F0E5FC7B681B697B
:1037F00042F2D0025A607B681B6900229A607B68A3
:103800001B6942F6E062DA607B681B6900221A617C
:103810007B681B6900229A617B681B69184612F05D
:103820007BFC0346002B14BF01230023DBB2002BDB
:1038300001D003F009FA7B689B88002B05D17B68D7
:103840001B681B6800225A6318E07B689B88042B66
:1038500005D17B681B681B6800229A630EE07B68B9
:103860009B88082B05D17B681B681B680022DA63E4
:1038700004E07B681B681B6800221A647B689B89D4
:10388000002B05D17B689B681B6800225A6318E0F7
:103890007B689B89042B05D17B689B681B68002291
:1038A0009A630EE07B689B89082B05D17B689B6837
:1038B0001B680022DA6304E07B689B681B680022B7
:1038C0001A647B689B8A002B06D17B681B691B6886
:1038D00042F228325A631DE07B689B8A042B06D192
:1038E0007B681B691B6842F228329A6312E07B688E
:1038F0009B8A082B06D17B681B691B6842F2283221
:10390000DA6307E07B681B691B6842F228321A649D
:1039100000E000BF0837BD4680BD80B582B000AF73
:1039200078607B689B7D332B00F09E807B68332220
:103930009A757B680022DA757B681B69184612F05D
:103940003AFC7B681B6942F2D0025A607B681B69B3
:1039500000229A607B681B694FF4E162DA607B6841
:103960001B6900221A617B681B6900229A617B68CF
:103970001B69184612F0D0FB0346002B14BF01232D
:103980000023DBB2002B01D003F05EF97B689B883B
:10399000002B05D17B681B681B6800225A6318E066
:1039A0007B689B88042B05D17B681B681B68002201
:1039B0009A630EE07B689B88082B05D17B681B68A7
:1039C0001B680022DA6304E07B681B681B68002226
:1039D0001A647B689B89002B05D17B689B681B68F8
:1039E00000225A6318E07B689B89042B05D17B6811
:1039F0009B681B6800229A630EE07B689B89082BFA
:103A000005D17B689B681B680022DA6304E07B6851
:103A10009B681B6800221A647B689B8A002B06D176
:103A20007B681B691B684FF448725A631DE07B6812
:103A30009B8A042B06D17B681B691B684FF4487274
:103A40009A6312E07B689B8A082B06D17B681B690E
:103A50001B684FF44872DA6307E07B681B691B68D8
:103A60004FF448721A6400E000BF0837BD4680BDBD
:103A700080B582B000AF78607B689B7D382B00F00A
:103A8000A2807B6838229A757B680022DA757B6891
:103A90001B69184612F08FFB7B681B6942F2D0024B
:103AA0005A607B681B6900229A607B681B6942F63A
:103AB000E062DA607B681B6900221A617B681B691F
:103AC00000229A617B681B69184612F025FB0346A9
:103AD000002B14BF01230023DBB2002B01D003F025
:103AE000B3F87B689B88002B05D17B681B681B683B
:103AF00000225A6318E07B689B88042B05D17B6801
:103B00001B681B6800229A630EE07B689B88082B69
:103B100005D17B681B681B680022DA6304E07B68C0
:103B20001B681B6800221A647B689B89002B06D1E6
:103B30007B689B681B6842F6E0625A631BE07B6807
:103B40009B89042B06D17B689B681B6842F6E06268
:103B50009A6310E07B689B89082B06D17B689B6881
:103B60001B6842F6E062DA6305E07B689B681B68CD
:103B700042F6E0621A647B689B8A002B06D17B6860
:103B80001B691B6842F6E0625A631DE07B689B8AF2
:103B9000042B06D17B681B691B6842F6E0629A63BE
:103BA00012E07B689B8A082B06D17B681B691B6827
:103BB00042F6E062DA6307E07B681B691B6842F645
:103BC000E0621A6400E000BF0837BD4680BD000017
:103BD00080B582B000AF78607B689B7D342B00F0AD
:103BE0009F807B6834229A757B681B69184612F0A7
:103BF000E2FA7B681B6954225A607B681B690022C9
:103C00009A60494B9A8B7B681B69DA607B681B69F9
:103C100000221A617B681B6900229A617B681B691C
:103C2000184612F079FA0346002B14BF0123002333
:103C3000DBB2002B01D003F007F87B689B88002BD8
:103C400005D17B681B681B6800225A6318E07B68FB
:103C50009B88042B05D17B681B681B6800229A6334
:103C60000EE07B689B88082B05D17B681B681B686E
:103C70000022DA6304E07B681B681B6800221A6478
:103C80007B689B89002B05D17B689B681B680022A1
:103C90005A6318E07B689B89042B05D17B689B687D
:103CA0001B6800229A630EE07B689B89082B05D174
:103CB0007B689B681B680022DA6304E07B689B6872
:103CC0001B6800221A647B689B8A002B05D17B68E5
:103CD0001B691B6800225A6318E07B689B8A042BCF
:103CE00005D17B681B691B6800229A630EE07B6824
:103CF0009B8A082B05D17B681B691B680022DA634D
:103D000004E07B681B691B6800221A647B6801223F
:103D1000DA757B6801221A767B6800225A8300E0FC
:103D200000BF0837BD4680BD380B002080B582B08B
:103D300000AF78607B689B7D352B00F09E807B68B0
:103D400035229A757B680022DA757B681B681846F5
:103D500012F031FA7B681B6842F2D0025A607B682D
:103D60001B6800229A607B681B684FF4E162DA608E
:103D70007B681B6800221A617B681B6800229A61BD
:103D80007B681B68184612F0C7F90346002B14BF66
:103D900001230023DBB2002B01D002F055FF7B682A
:103DA0009B88002B06D17B681B681B684FF4487208
:103DB0005A631BE07B689B88042B06D17B681B68D9
:103DC0001B684FF448729A6310E07B689B88082B4D
:103DD00006D17B681B681B684FF44872DA6305E004
:103DE0007B681B681B684FF448721A647B689B8968
:103DF000002B05D17B689B681B6800225A6318E082
:103E00007B689B89042B05D17B689B681B6800221B
:103E10009A630EE07B689B89082B05D17B689B68C1
:103E20001B680022DA6304E07B689B681B68002241
:103E30001A647B689B8A002B05D17B681B691B6811
:103E400000225A631AE07B689B8A042B05D17B68A9
:103E50001B691B6800229A6310E07B689B8A082B11
:103E600005D17B681B691B680022DA6306E07B686A
:103E70001B691B6800221A6400E000BF0837BD46BA
:103E800080BD80B582B000AF78607B689B7D362BAB
:103E900000F09E807B6836229A757B680022DA7576
:103EA0007B681B68184612F086F97B681B6842F233
:103EB000D0025A607B681B6800229A607B681B688E
:103EC00043F69822DA607B681B6800221A617B68DF
:103ED0001B6800229A617B681B68184612F01CF967
:103EE0000346002B14BF01230023DBB2002B01D0BB
:103EF00002F0AAFE7B689B88002B06D17B681B68BA
:103F00001B6841F658325A631BE07B689B88042B80
:103F100006D17B681B681B6841F658329A6310E033
:103F20007B689B88082B06D17B681B681B6841F661
:103F30005832DA6305E07B681B681B6841F658322B
:103F40001A647B689B89002B05D17B689B681B6882
:103F500000225A6318E07B689B89042B05D17B689B
:103F60009B681B6800229A630EE07B689B89082B84
:103F700005D17B689B681B680022DA6304E07B68DC
:103F80009B681B6800221A647B689B8A002B05D102
:103F90007B681B691B6800225A631AE07B689B8A56
:103FA000042B05D17B681B691B6800229A6310E013
:103FB0007B689B8A082B05D17B681B691B680022E4
:103FC000DA6306E07B681B691B6800221A6400E064
:103FD00000BF0837BD4680BD80B582B000AF7860B5
:103FE0007B689B7D3F2B00F0A2807B683F229A7507
:103FF0007B680022DA757B681B68184612F0DBF8D4
:104000007B681B6842F2D0025A607B681B68002202
:104010009A607B681B6843F69822DA607B681B68AD
:1040200000221A617B681B6800229A617B681B680A
:10403000184612F071F80346002B14BF0123002329
:10404000DBB2002B01D002F0FFFD7B689B88002BC8
:1040500006D17B681B681B6841F658325A631BE027
:104060007B689B88042B06D17B681B681B6841F624
:1040700058329A6310E07B689B88082B06D17B68D6
:104080001B681B6841F65832DA6305E07B681B68E1
:104090001B6841F658321A647B689B89002B05D156
:1040A0007B689B681B6800225A6318E07B689B89C9
:1040B000042B05D17B689B681B6800229A630EE085
:1040C0007B689B89082B05D17B689B681B68002255
:1040D000DA6304E07B689B681B6800221A647B68D3
:1040E0009B8A002B06D17B681B691B6841F65832FE
:1040F0005A631DE07B689B8A042B06D17B681B6991
:104100001B6841F658329A6312E07B689B8A082B41
:1041100006D17B681B691B6841F65832DA6307E0F9
:104120007B681B691B6841F658321A6400E000BFC7
:104130000837BD4680BD80B582B000AF78607B682F
:104140009B7D402B00F0A2807B6840229A757B68A3
:104150000022DA757B681B68184612F02CF87B6821
:104160001B6842F2D0025A607B681B6800229A608A
:104170007B681B684FF4E162DA607B681B68002291
:104180001A617B681B6800229A617B681B6818466D
:1041900011F0C2FF0346002B14BF01230023DBB242
:1041A000002B01D002F050FD7B689B88002B06D1CC
:1041B0007B681B681B684FF448725A631BE07B687E
:1041C0009B88042B06D17B681B681B684FF44872E0
:1041D0009A6310E07B689B88082B06D17B681B687C
:1041E0001B684FF44872DA6305E07B681B681B6844
:1041F0004FF448721A647B689B89002B05D17B6859
:104200009B681B6800225A6318E07B689B89042B1B
:1042100005D17B689B681B6800229A630EE07B686F
:104220009B89082B05D17B689B681B680022DA6399
:1042300004E07B689B681B6800221A647B689B8A89
:10424000002B06D17B681B691B684FF448725A63C8
:104250001DE07B689B8A042B06D17B681B691B6869
:104260004FF448729A6312E07B689B8A082B06D150
:104270007B681B691B684FF44872DA6307E07B6850
:104280001B691B684FF448721A6400E000BF0837CE
:10429000BD4680BD80B582B000AF78607B689B7DF5
:1042A000372B00F09E807B6837229A757B6800224E
:1042B000DA757B681B68184611F07DFF7B681B6808
:1042C00042F2D0025A607B681B6800229A60474B1A
:1042D0009A8B7B681B68DA607B681B6800221A6116
:1042E0007B681B6800229A617B681B68184611F086
:1042F00013FF0346002B14BF01230023DBB2002B66
:1043000001D002F0A1FC7B689B88002B06D1374BC3
:104310009A8B7B681B681B685A631BE07B689B88D1
:10432000042B06D1314B9A8B7B681B681B689A6300
:1043300010E07B689B88082B06D12C4B9A8B7B68FE
:104340001B681B68DA6305E0284B9A8B7B681B6847
:104350001B681A647B689B89002B05D17B689B686E
:104360001B6800225A6318E07B689B89042B05D1E7
:104370007B689B681B6800229A630EE07B689B89C0
:10438000082B05D17B689B681B680022DA6304E078
:104390007B689B681B6800221A647B689B8A002BE1
:1043A00005D17B681B691B6800225A631AE07B6891
:1043B0009B8A042B05D17B681B691B6800229A63CA
:1043C00010E07B689B8A082B05D17B681B691B6802
:1043D0000022DA6306E07B681B691B6800221A640E
:1043E00000E000BF0837BD4680BD00BF380B00208D
:1043F00080B582B000AF78607B689B7D392B00F080
:10440000A2807B6839229A757B680022DA757B6806
:104410001B68184611F0CFFE7B681B6842F2D00281
:104420005A607B681B6800229A607B681B684FF4A7
:104430007A62DA607B681B6800221A617B681B68FD
:1044400000229A617B681B68184611F065FE0346DE
:10445000002B14BF01230023DBB2002B01D002F09C
:10446000F3FB7B689B88002B06D17B681B681B686D
:104470004FF47A725A631BE07B689B88042B06D149
:104480007B681B681B684FF47A729A6310E07B6844
:104490009B88082B06D17B681B681B684FF47A72D7
:1044A000DA6305E07B681B681B684FF47A721A6454
:1044B0007B689B89002B06D17B689B681B684FF447
:1044C0007A725A631BE07B689B89042B06D17B6858
:1044D0009B681B684FF47A729A6310E07B689B8933
:1044E000082B06D17B689B681B684FF47A72DA63ED
:1044F00005E07B689B681B684FF47A721A647B68DE
:104500009B8A002B05D17B681B691B6800225A63BC
:104510001AE07B689B8A042B05D17B681B691B68AA
:1045200000229A6310E07B689B8A082B05D17B6888
:104530001B691B680022DA6306E07B681B691B6845
:1045400000221A6400E000BF0837BD4680BD80B578
:1045500082B000AF78607B689B7D3C2B00F0A2802E
:104560007B683C229A757B680022DA757B681B6841
:10457000184611F020FE7B681B6842F2D0025A6098
:104580007B681B6800229A607B681B6843F6982250
:10459000DA607B681B6800221A617B681B68002256
:1045A0009A617B681B68184611F0B6FD0346002B24
:1045B00014BF01230023DBB2002B01D002F044FB27
:1045C0007B689B88002B06D17B681B681B6843F6C1
:1045D00098225A631BE07B689B88042B06D17B687A
:1045E0001B681B6843F698229A6310E07B689B88DF
:1045F000082B06D17B681B681B6843F69822DA6398
:1046000005E07B681B681B6843F698221A647B6888
:104610009B89002B06D17B689B681B6843F6982218
:104620005A631BE07B689B89042B06D17B689B68DF
:104630001B6843F698229A6310E07B689B89082BDD
:1046400006D17B689B681B6843F69822DA6305E015
:104650007B689B681B6843F698221A647B689B8A78
:10466000002B05D17B681B691B6800225A631AE086
:104670007B689B8A042B05D17B681B691B68002221
:104680009A6310E07B689B8A082B05D17B681B69C5
:104690001B680022DA6306E07B681B691B68002246
:1046A0001A6400E000BF0837BD4680BD80B582B007
:1046B00000AF78607B689B7D3A2B00F0A2807B681E
:1046C0003A229A757B680022DA757B681B68184667
:1046D00011F071FD7B681B6842F2D0025A607B6862
:1046E0001B6800229A607B681B684FF4E162DA6005
:1046F0007B681B6800221A617B681B6800229A6134
:104700007B681B68184611F007FD0346002B14BF99
:1047100001230023DBB2002B01D002F095FA7B6865
:104720009B88002B06D17B681B681B684FF448727E
:104730005A631BE07B689B88042B06D17B681B684F
:104740001B684FF448729A6310E07B689B88082BC3
:1047500006D17B681B681B684FF44872DA6305E07A
:104760007B681B681B684FF448721A647B689B89DE
:10477000002B05D17B689B681B6800225A6318E0F8
:104780007B689B89042B05D17B689B681B68002292
:104790009A630EE07B689B89082B05D17B689B6838
:1047A0001B680022DA6304E07B689B681B680022B8
:1047B0001A647B689B8A002B06D17B681B691B6887
:1047C0004FF448725A631DE07B689B8A042B06D124
:1047D0007B681B691B684FF448729A6312E07B6820
:1047E0009B8A082B06D17B681B691B684FF44872B3
:1047F000DA6307E07B681B691B684FF448721A6430
:1048000000E000BF0837BD4680BD80B582B000AF74
:1048100078607B689B7D3B2B00F09E807B683B2211
:104820009A757B680022DA757B681B69184611F05F
:10483000C2FC7B681B6942F2D0025A607B681B692C
:1048400000229A607B681B6942F6E062DA607B684E
:104850001B6900221A617B681B6900229A617B68D0
:104860001B69184611F058FC0346002B14BF0123A6
:104870000023DBB2002B01D002F0E6F97B689B88B5
:10488000002B05D17B681B681B6800225A6318E067
:104890007B689B88042B05D17B681B681B68002202
:1048A0009A630EE07B689B88082B05D17B681B68A8
:1048B0001B680022DA6304E07B681B681B68002227
:1048C0001A647B689B89002B06D17B689B681B68F8
:1048D00042F228325A631BE07B689B89042B06D185
:1048E0007B689B681B6842F228329A6310E07B6801
:1048F0009B89082B06D17B689B681B6842F2283293
:10490000DA6305E07B689B681B6842F228321A6410
:104910007B689B8A002B05D17B681B691B68002282
:104920005A631AE07B689B8A042B05D17B681B695C
:104930001B6800229A6310E07B689B8A082B05D1D4
:104940007B681B691B680022DA6306E07B681B69D1
:104950001B6800221A6400E000BF0837BD4680BD16
:1049600080B582B000AF78607B689B7D3D2B00F006
:10497000A2807B683D229A757B680022DA757B688D
:104980001B69184611F017FC7B681B6942F2D002C4
:104990005A607B681B6900229A607B681B6942F63B
:1049A000E062DA607B681B6900221A617B681B6920
:1049B00000229A617B681B69184611F0ADFB034623
:1049C000002B14BF01230023DBB2002B01D002F027
:1049D0003BF97B689B88002B05D17B681B681B68B3
:1049E00000225A6318E07B689B88042B05D17B6802
:1049F0001B681B6800229A630EE07B689B88082B6B
:104A000005D17B681B681B680022DA6304E07B68C1
:104A10001B681B6800221A647B689B89002B06D1E7
:104A20007B689B681B6842F228325A631BE07B68F4
:104A30009B89042B06D17B689B681B6842F2283255
:104A40009A6310E07B689B89082B06D17B689B6882
:104A50001B6842F22832DA6305E07B689B681B68BA
:104A600042F228321A647B689B8A002B06D17B684D
:104A70001B691B6842F228325A631DE07B689B8ADF
:104A8000042B06D17B681B691B6842F228329A63AB
:104A900012E07B689B8A082B06D17B681B691B6828
:104AA00042F22832DA6307E07B681B691B6842F236
:104AB00028321A6400E000BF0837BD4680BD80B5CB
:104AC00082B000AF78607B689B7D3E2B00F0A280B7
:104AD0007B683E229A757B680022DA757B681B68CA
:104AE000184611F068FB7B681B6842F2D0025A60DE
:104AF0007B681B6800229A607B681B684FF47A62AF
:104B0000DA607B681B6800221A617B681B680022E0
:104B10009A617B681B68184611F0FEFA0346002B69
:104B200014BF01230023DBB2002B01D002F08CF86C
:104B30007B689B88002B06D17B681B681B684FF441
:104B40007A725A631BE07B689B88042B06D17B68D2
:104B50001B681B684FF47A729A6310E07B689B882D
:104B6000082B06D17B681B681B684FF47A72DA63E6
:104B700005E07B681B681B684FF47A721A647B68D7
:104B80009B89002B06D17B689B681B684FF47A7267
:104B90005A631BE07B689B89042B06D17B689B686A
:104BA0001B684FF47A729A6310E07B689B89082B2C
:104BB00006D17B689B681B684FF47A72DA6305E064
:104BC0007B689B681B684FF47A721A647B689B8AC7
:104BD000002B05D17B681B691B6800225A631AE011
:104BE0007B689B8A042B05D17B681B691B680022AC
:104BF0009A6310E07B689B8A082B05D17B681B6950
:104C00001B680022DA6306E07B681B691B680022D0
:104C10001A6400E000BF0837BD4680BD80B582B091
:104C200000AF786039607B68012B07D13B684FF695
:104C3000FF72934202D10948FEF756FB7B68002BB6
:104C400007D13B684FF6FF72934202D10348FEF74B
:104C50005DFB00BF0837BD4680BD00BF380B00209C
:104C600080B500AF4FF6FF710120FFF7D7FF80BD81
:104C700080B500AF4FF6FF710020FFF7CFFF80BD7A
:104C800080B483B000AF78607B6803221A737B68BE
:104C90004FF47A72DA817B6800221A827B6840F2D4
:104CA0006C725A827B6840F698029A827B6840F662
:104CB000AC52DA827B6818460C37BD465DF8047B3F
:104CC000704780B483B000AF78607B6818460C37BB
:104CD000BD465DF8047B704780B582B000AF786058
:104CE0000B467B807B8818460AF064FD00BF0837BE
:104CF000BD4680BD80B584B000AFF860B960114694
:104D00001A460B46FB8013467B717A79FB8819465D
:104D1000B8680CF03DFC00BF1037BD4680BD0000F8
:104D200080B584B000AFF860B9603B601346FB808B
:104D3000FB68BA681A60FB68FA889A80FB683A6870
:104D40009A6020480DF0B5FDFB6801221A761E48D6
:104D5000FDF770FD0346002B0CBF01230023DBB2DF
:104D6000002B01D0302329E0F86800F0AFF80346AB
:104D7000312B14BF01230023DBB2002B02D0FB68D0
:104D800000221A76F86800F083F90346302B14BF2E
:104D900001230023DBB2002B02D0FB6800221A762D
:104DA000F86800F0FDF90346012B0CBF0123002336
:104DB000DBB2002B01D0302300E03223184610373D
:104DC000BD4680BD180D0020A40A002080B584B027
:104DD00000AF786038480DF06CFD3848FDF71EFDD7
:104DE0000346002B0CBF01230023DBB2002B4ED067
:104DF0000023FB733CE07B6819687B689A88012379
:104E00007868FFF777FF7B68DB8919467868FFF7DA
:104E100063FF29480DF04DFD786800F09BF90346CB
:104E2000012B0CBF01230023DBB2002B09D0244946
:104E3000244802F052F8234B002283F8D822312371
:104E400035E07B6819687B689A8800237868FFF7EB
:104E500051FF19480DF02DFD7B68DB8919467868F4
:104E6000FFF73AFF14480DF024FDFB7B0133FB7381
:104E70007B681B7BFA7B9A42BDD31349114802F031
:104E80002CF8104B012283F8D82232230FE07B68E4
:104E900019687B689A8801237868FFF72BFF06481A
:104EA0000DF007FD074B002283F8D8223123184666
:104EB0001037BD4680BD00BF180D0020A40A002099
:104EC0000CDB0108F81500201CDB010880B584B05C
:104ED00000AF78602A480DF0ECFC0023FB733CE047
:104EE0007B6819687B689A8801237868FFF702FF5E
:104EF0007B68DB8919467868FFF7EEFE20480DF0E5
:104F0000D8FC786800F026F90346012B0CBF01237A
:104F10000023DBB2002B09D01A491B4801F0DDFF4A
:104F2000194B002283F8D822312324E07B681968CA
:104F30007B689A8800237868FFF7DCFE10480DF044
:104F4000B8FC7B68DB8919467868FFF7C5FE0C481A
:104F50000DF0AFFCFB7B0133FB737B681B7BFA7BA3
:104F60009A42BDD30949084801F0B7FF064B012218
:104F700083F8D822322318461037BD4680BD00BFC3
:104F8000180D00200CDB0108F81500201CDB0108BF
:104F900080B584B000AF786038480DF08AFC38489E
:104FA000FDF73CFC0346002B0CBF01230023DBB2C2
:104FB000002B4ED00023FB733CE07B6819687B68B4
:104FC0009A8800237868FFF795FE7B68DB8919468D
:104FD0007868FFF781FE29480DF06BFC786800F0D7
:104FE000DFF80346012B0CBF01230023DBB2002BAB
:104FF00009D02449244801F070FF234B002283F894
:10500000D822302335E07B6819687B689A880123B1
:105010007868FFF76FFE19480DF04BFC7B68DB8961
:1050200019467868FFF758FE14480DF042FCFB7BE8
:105030000133FB737B681B7BFA7B9A42BDD3134918
:10504000114801F04AFF104B012283F8D822322385
:105050000FE07B6819687B689A8800237868FFF7FF
:1050600049FE06480DF025FC074B002283F8D822A4
:10507000302318461037BD4680BD00BF180D0020F4
:10508000A40A00203CDB0108F81500204CDB0108D5
:1050900080B584B000AF78602A480DF00AFC002388
:1050A000FB733CE07B6819687B689A88002378680A
:1050B000FFF720FE7B68DB8919467868FFF70CFE56
:1050C00020480DF0F6FB786800F06AF80346012BE3
:1050D0000CBF01230023DBB2002B09D01A491B4867
:1050E00001F0FBFE194B002283F8D822302324E084
:1050F0007B6819687B689A8801237868FFF7FAFD56
:1051000010480DF0D6FB7B68DB8919467868FFF7FD
:10511000E3FD0C480DF0CDFBFB7B0133FB737B689B
:105120001B7BFA7B9A42BDD30949084801F0D5FEA2
:10513000064B012283F8D822322318461037BD4689
:1051400080BD00BF180D00203CDB0108F8150020D1
:105150004CDB010880B483B000AF78607B689B684B
:105160001B8807EE903AF8EE677A9FED0C7A27EEEF
:10517000877A7B685B8A07EE903AF8EE677AB4EE3E
:10518000E77AF1EE10FA01D5012300E0002318467A
:105190000C37BD465DF8047B704700BF00404E3FB2
:1051A00080B483B000AF78607B689B681B8807EE93
:1051B000903AF8EE677A9FED0C7A27EE877A7B6853
:1051C0009B8A07EE903AF8EE677AB4EEE77AF1EE52
:1051D00010FA01DD012300E0002318460C37BD461C
:1051E0005DF8047B704700BF00404E3F80B582B041
:1051F00000AF786039607B68012B07D13B684FF6C0
:10520000FF72934202D10948FFF73AFD7B68002BF9
:1052100007D13B684FF6FF72934202D10348FFF774
:1052200050FD00BF0837BD4680BD00BF580B0020B1
:1052300080B500AF4FF6FF710120FFF7D7FF80BDAB
:1052400080B500AF4FF6FF710020FFF7CFFF80BDA4
:1052500080B400AFBFF34F8F00BF064BDB6803F491
:10526000E0620449044B1343CB60BFF34F8F00BF90
:1052700000BFFDE700ED00E00400FA052DE9F04372
:1052800087B006AF0AF038FA00F0D8FB01F028FB2F
:1052900001F0A0FA01F014FA00F03CFE00F048FC26
:1052A00000F07CFD00F072FE00F010FD00F042FD09
:1052B00001F034FA01F060FA01F0A6F900F04CFFB9
:1052C00001F052F801F0CEF900F09CFD00F09AFEDA
:1052D00000F0D0FF01F0F8F800F0B4FD16F01CFF6C
:1052E00001F01AF901F040F901F066F901F08EFCC5
:1052F0000821B24811F0A2F80C21B04811F09EF834
:105300000021AF4811F09AF80421AD4811F096F849
:10531000AC4810F0A5FFAC4810F0A2FF0021A9484E
:1053200011F054F90021A94811F088F80421A74888
:1053300011F084F80821A54811F080F80722A4494B
:10534000A4480AF09FFA38200AF099FF27200AF0B3
:1053500088FF01220121A0480CF01AF90A200AF066
:1053600029FA002201219C480CF012F90A200AF0C7
:1053700021FA0122012198480CF00AF932200AF0A2
:1053800019FA964B1E88964BB3F800C0954B1B88B4
:10539000954A12889549098895480088954C248833
:1053A000954D2D88059504940390029101920093E8
:1053B0006346324691499248FCF7A8FB91480DF0AC
:1053C00078FA4FF4FA700AF0F5F98E480DF071FA98
:1053D0004FF4FA700AF0EEF98B498C48FDF708FBA0
:1053E0008B498C4809F02BFF86480DF062FA8849FA
:1053F000894809F024FF83480DF05BFA8249874809
:10540000FDF7B2FB7F480DF054FA7F49844804F061
:1054100029FC7C480DF04DFA4FF480630293814BD8
:1054200001934FF4005300936B4B4FF480526A4941
:105430007D4804F06CF908230293644B0193042324
:105440000093624B002261497848FDF76BFF6D487D
:105450000DF02FFA764B4FF4007276497648FFF73D
:105460005FFC68480DF025FA744B0093584B0022FE
:1054700054497348FCF7EAFF62480DF01AFA714B81
:1054800003934FF4806302936A4B01934FF40063DC
:105490000093644B4FF4004262496B4804F09DFA5C
:1054A0006A4B03936A4B02936A4B01936A4B0093D6
:1054B0006A4B6B4A6B496C4805F049F851480DF04E
:1054C000F8F96A4801F014FD694B1A883B4B1B68D8
:1054D000DA633A4B1B6800221A64394B1B684FF49D
:1054E00096729A6347480DF0E4F900224FF40041A8
:1054F0004C480CF04DF864200AF05CF941480DF07E
:10550000D8F900225B495C480FF02AFF594BDB7841
:10551000172B1ED0594B01221A70584B3B225A7040
:10552000564B00229A70534B07221A70514B092296
:105530005A70504B14229A704E4B1722DA70002288
:105540004E494D480FF090FD00224A494A480FF05D
:1055500083FE2C480DF0ADF9444801F0EDFC2B48DA
:10556000FDF796F9F0EE407AF5EE407AF1EE10FA9A
:105570000CBF01230023DBB2002B02D03B4802F01A
:10558000C9FE2F48FCF740FD03461A463C4B1A70F3
:1055900001212B48FCF7D2FF03461A46394B1A70FB
:1055A0001C4809F043FFF0EE407A374BC3ED007A18
:1055B000194809F03BFFF0EE407A67E0540E0020F6
:1055C000E40E00209C0E00204C1000202C0F002028
:1055D000D8150020740B00200004024008000020B1
:1055E0000A0000200C0000200E0000201000002007
:1055F000120000201400002016000020440D00209E
:10560000C0010020180D0020700C0020A40A00200A
:10561000C40C0020F824002004250020240B0020C6
:1056200028190020000C0240F0180020380B002040
:10563000E015002000100240580B0020DA15002071
:10564000800200200619002008190020041C0020F8
:10565000041E00200420002004220020C813002083
:10566000681300201C11002004240020F8150020DD
:1056700018000020A8150020240D0020AC150020E3
:10568000F4150020F5150020EC150020214BC3ED8A
:10569000007A2148FDF7C2F80346002B0CBF012316
:1056A0000023DBB2002B45D01C480DF002F91C484A
:1056B00002F0BCFC1A4801F0B2FC0346002B0CBF00
:1056C00001230023DBB2002B05D0164804F0F2F9C9
:1056D00012480DF0EEF8144BDB7D002B0AD1114877
:1056E00004F0E8F91148FEF777FC0C480DF0E1F8FA
:1056F00000BFF4E70E4B1B7E002B1BD1094804F0C2
:10570000D9F90A48FEF717FD04480DF0D2F800BF9A
:10571000F4E700BFF0150020A40A0020180D0020B7
:10572000F815002008190020F0180020380B002080
:10573000580B0020AE4809F079FEF0EE407AAD4BF0
:10574000C3ED007AAC4809F071FEF0EE407AAB4B45
:10575000C3ED007A0022AA49AA480FF01FFD0022DB
:10576000A949A8480FF0FCFDA8480DF0A2F80AF0DE
:1057700015F80246A64B1B6BD21AA54BDB6A9A4260
:105780008CBF01230023DBB2002B25D00AF006F8E2
:1057900003469F4A13639F48FBF73CFC9C4801F07B
:1057A000CFFD9B4801F0D8FE994801F08DFC984848
:1057B00002F042F8964802F077F9954802F09EFB15
:1057C000934802F0F3F9924802F066FA904802F02A
:1057D000C9FA8F4802F01EFB09F0E0FF02468E4B2B
:1057E0005B68D21A8C4B1B689A428CBF0123002342
:1057F000DBB2002B00F0968009F0D0FF0346864A0A
:10580000536082480DF055F88348FDF73EFC55EC97
:10581000104B8048FCF7A2F853EC102B2046294689
:10582000FAF74CFD02460B4614461D467948FCF734
:10583000B9F853EC102B20462946FAF73FFD0246F3
:105840000B4614461D467348FCF7D0F853EC102B5A
:1058500020462946FAF732FD02460B4643EC172B49
:10586000B0EE470AF0EE670A6B48FDF74DFC6A4858
:10587000FDF70BFCB0EE407AF0EE607A674B83EDFB
:10588000007B6548FDF716FC55EC104B6148FCF7B2
:1058900019F959EC108B5F48FCF7CCF853EC102B3E
:1058A00040464946FAF708FD02460B46204629467F
:1058B000FAF704FD02460B4643EC172BB0EE470AFD
:1058C000F0EE670A5448FDF731FC5348FDF7F2FB50
:1058D000B0EE407AF0EE607A514B83ED007B4E489B
:1058E000FDF7FDFB55EC104B4A48FCF7C7F853ECAD
:1058F000102B20462946FAF7E1FC02460B4643EC02
:10590000172BB0EE470AF0EE670A4348FDF720FC7C
:105910004148FDF7E4FBB0EE407AF0EE607A414B8F
:1059200083ED007B39480CF0C4FF3F48FCF776FF5D
:105930000346012B0CBF01230023DBB2002B3FF4F5
:1059400020AE3A4BDB78012B23D1384B00221A7161
:10595000364BDB68354AD2881946344807F0A8FD33
:10596000324B01221A71314B0022DA702F4BDB6966
:105970002E4A51694FF40072184611F0A1FE2B4BCC
:105980005B6A1B681A68294B5B6A1B6822F0080275
:105990001A6001212648FCF7D1FD0346432B14BFB2
:1059A00001230023DBB2002B02D0224804F082F84E
:1059B000174801F034FB0346002B0CBF01230023E2
:1059C000DBB2002B05D01B4804F074F81848FCF734
:1059D000CBFC802118480BF0C3FD0346002B0CBF05
:1059E00001230023DBB2002B3FF4CBADFFF730FCEB
:1059F000F8240020EC15002004250020F0150020DC
:105A0000AC150020240D0020A8150020180D002042
:105A1000F8150020C0010020240B0020C015002034
:105A2000C8150020D0150020A40A0020042400205E
:105A30008002002008190020000C024080B594B0BC
:105A400000AF07F11C0334220021184617F0D2FBE7
:105A500007F1080300221A605A609A60DA601A613E
:105A600000237B60304B1B6C2F4A43F08053136440
:105A70002D4B1B6C03F080537B607B6800233B60E5
:105A80002A4B1B68294A43F440431360274B1B6889
:105A900003F440433B603B680D23FB614FF48033CC
:105AA0003B6201237B6201233B6302237B634FF450
:105AB0008003BB631923FB634FF4A8733B64022389
:105AC0007B640723BB640223FB6407F11C031846B5
:105AD0000EF0B6FF0346002B14BF01230023DBB2F8
