:020000040800F2
:1000000000000220BDEA000855DF00085DDF00089F
:1000100065DF00086DDF000875DF000800000000E4
:100020000000000000000000000000007DDF00086C
:100030008BDF00080000000099DF0008A7DF000840
:100040000DEB00080DEB00080DEB00080DEB0008B0
:100050000DEB00080DEB00080DEB0008B3DF000806
:10006000C1DF00080DEB00080DEB0008D1DF000830
:10007000E5DF0008F9DF00080DE0000821E00008D6
:1000800035E0000849E000080DEB00080DEB000822
:100090000DEB00080DEB00080DEB00085DE000081B
:1000A0000DEB000875E0000891E000080DEB00087A
:1000B000ADE000080DEB00080DEB00080DEB0008AB
:1000C0000DEB00080DEB00080DEB00080DEB000830
:1000D0000DEB0008C1E00008D5E00008E9E00008E9
:1000E000FDE000080DEB00080DEB00080DEB00082B
:1000F00015E1000829E100080DEB00083DE10008CA
:100100000DEB00080DEB00080DEB00080DEB0008EF
:1001100051E1000865E100080DEB00080DEB000857
:1001200079E100088DE10008A1E100080DEB00086D
:100130000DEB000800000000000000000DEB0008BF
:100140000DEB00080DEB00080DEB0008B5E1000811
:100150000DEB00080DEB0008C9E100080DEB0008ED
:100160000DEB00080DEB00080DEB00080DEB00088F
:100170000DEB00080DEB00080DEB0008000000007F
:10018000000000000DEB000800000000000000006F
:100190000DEB000800000000000000000DEB00085F
:1001A0000000000000000000000000000DEB00084F
:1001B0000DEB00080DEB00080DEB00080DEB00083F
:0401C0000DEB00083B
:1001D00010B5054C237833B9044B13B10448AFF381
:1001E00000800123237010BDA0010020000000004A
:1001F00078D1010808B5034B1BB103490348AFF39D
:10020000008008BD00000000A401002078D1010892
:10021000034613F8012B002AFBD1181A0138704746
:1002200001F0FF01102A2BDB10F0070F08D010F8A7
:10023000013B013A8B422DD010F0070F42B3F6D1AB
:10024000F0B441EA012141EA014122F007047FF0C4
:1002500000070023F0E80256083C85EA010586EA1B
:10026000010685FA47F5A3FA87F586FA47F6A5FA57
:1002700087F68EB9EED1F0BC01F0FF0102F0070263
:1002800032B110F8013B013A83EA010313B1F8D10E
:100290000020704701387047002D06BF35460338EF
:1002A000073815F0010F07D1013015F4807F02BF28
:1002B000013015F4C03F0130F0BC0138704700BF79
:1002C00081F0004102E000BF83F0004330B54FEA07
:1002D00041044FEA430594EA050F08BF90EA020F74
:1002E0001FBF54EA000C55EA020C7FEA645C7FEA07
:1002F000655C00F0E2804FEA5454D4EB5555B8BF2A
:100300006D420CDD2C4480EA020281EA030382EA9A
:10031000000083EA010180EA020281EA0303362D2C
:1003200088BF30BD11F0004F4FEA01314FF4801CFF
:100330004CEA113102D0404261EB410113F0004F11
:100340004FEA03334CEA133302D0524263EB4303C8
:1003500094EA050F00F0A780A4F10104D5F1200E66
:100360000DDB02FA0EFC22FA05F2801841F10001C1
:1003700003FA0EF2801843FA05F359410EE0A5F195
:1003800020050EF1200E012A03FA0EFC28BF4CF0C6
:10039000020C43FA05F3C01851EBE37101F000457C
:1003A00007D54FF0000EDCF1000C7EEB00006EEB89
:1003B0000101B1F5801F1BD3B1F5001F0CD3490813
:1003C0005FEA30004FEA3C0C04F101044FEA44526A
:1003D00012F5800F80F09A80BCF1004F08BF5FEAF1
:1003E000500C50F1000041EB045141EA050130BDD1
:1003F0005FEA4C0C404141EB0101013C28BFB1F5E3
:10040000801FE9D291F0000F04BF01460020B1FA2D
:1004100081F308BF2033A3F10B03B3F120020CDA00
:100420000C3208DD02F1140CC2F10C0201FA0CF0DE
:1004300021FA02F10CE002F11402D8BFC2F1200C43
:1004400001FA02F120FA0CFCDCBF41EA0C019040F9
:10045000E41AA2BF01EB0451294330BD6FEA040442
:100460001F3C1CDA0C340EDC04F11404C4F120022D
:1004700020FA04F001FA02F340EA030021FA04F33F
:1004800045EA030130BDC4F10C04C4F1200220FA96
:1004900002F001FA04F340EA0300294630BD21FAD4
:1004A00004F0294630BD94F0000F83F4801306BF9A
:1004B00081F480110134013D4EE77FEA645C18BF8E
:1004C0007FEA655C29D094EA050F08BF90EA020F25
:1004D00005D054EA000C04BF1946104630BD91EA1D
:1004E000030F1EBF0021002030BD5FEA545C05D120
:1004F0004000494128BF41F0004130BD14F580045F
:100500003CBF01F5801130BD01F0004545F0FE41D2
:1005100041F470014FF0000030BD7FEA645C1ABF07
:10052000194610467FEA655C1CBF0B46024650EA3E
:10053000013406BF52EA033591EA030F41F400216A
:1005400030BD00BF90F0000F04BF0021704730B5F0
:100550004FF4806404F132044FF000054FF00001C5
:1005600050E700BF90F0000F04BF0021704730B586
:100570004FF4806404F1320410F0004548BF40425B
:100580004FF000013EE700BF42004FEAE2014FEAB0
:1005900031014FEA02701FBF12F07F4393F07F4F8B
:1005A00081F06051704732F07F4208BF704793F08E
:1005B0007F4F04BF41F40021704730B54FF46074A1
:1005C00001F0004521F000411CE700BF50EA0102A4
:1005D00008BF704730B54FF000050AE050EA01024D
:1005E00008BF704730B511F0004502D5404261EBBD
:1005F00041014FF4806404F132045FEA915C3FF4FE
:10060000D8AE4FF003025FEADC0C18BF03325FEA9A
:10061000DC0C18BF033202EBDC02C2F1200300FA4B
:1006200003FC20FA02F001FA03FE40EA0E0021FA70
:1006300002F11444BDE600BF70B54FF0FF0C4CF45E
:10064000E06C1CEA11541DBF1CEA135594EA0C0F10
:1006500095EA0C0F00F0DEF82C4481EA030621EA4B
:100660004C5123EA4C5350EA013518BF52EA033586
:1006700041F4801143F4801338D0A0FB02CE4FF038
:100680000005E1FB02E506F00042E0FB03E54FF068
:100690000006E1FB03569CF0000F18BF4EF0010E60
:1006A000A4F1FF04B6F5007F64F5407404D25FEA5C
:1006B0004E0E6D4146EB060642EAC62141EA55510F
:1006C0004FEAC52040EA5E504FEACE2EB4F1FD0C51
:1006D00088BFBCF5E06F1ED8BEF1004F08BF5FEACF
:1006E000500E50F1000041EB045170BD06F0004681
:1006F00046EA010140EA020081EA0301B4EB5C042E
:10070000C2BFD4EB0C0541EA045170BD41F4801125
:100710004FF0000E013C00F3AB8014F1360FDEBF4A
:10072000002001F0004170BDC4F10004203C35DA26
:100730000C341BDC04F11404C4F1200500FA05F3A9
:1007400020FA04F001FA05F240EA020001F000424A
:1007500021F0004110EBD37021FA04F642EB0601C0
:100760005EEA430E08BF20EAD37070BDC4F10C04EA
:10077000C4F1200500FA04F320FA05F001FA04F2AE
:1007800040EA020001F0004110EBD37041F100019A
:100790005EEA430E08BF20EAD37070BDC4F12005A5
:1007A00000FA05F24EEA020E20FA04F301FA05F20D
:1007B00043EA020321FA04F001F0004121FA04F2B5
:1007C00020EA020000EBD3705EEA430E08BF20EA85
:1007D000D37070BD94F0000F0FD101F000464000BF
:1007E00041EB010111F4801F08BF013CF7D041EA41
:1007F000060195F0000F18BF704703F00046520045
:1008000043EB030313F4801F08BF013DF7D043EA15
:100810000603704794EA0C0F0CEA135518BF95EACB
:100820000C0F0CD050EA410618BF52EA4306D1D152
:1008300081EA030101F000414FF0000070BD50EA71
:10084000410606BF1046194652EA430619D094EAFB
:100850000C0F02D150EA013613D195EA0C0F05D1E5
:1008600052EA03361CBF104619460AD181EA030139
:1008700001F0004141F0FE4141F470014FF00000F1
:1008800070BD41F0FE4141F4780170BD70B54FF08C
:10089000FF0C4CF4E06C1CEA11541DBF1CEA13550C
:1008A00094EA0C0F95EA0C0F00F0A7F8A4EB0504EE
:1008B00081EA030E52EA03354FEA013100F08880E5
:1008C0004FEA03334FF0805545EA131343EA1263AE
:1008D0004FEA022245EA111545EA10654FEA002663
:1008E0000EF000419D4208BF964244F1FD0404F51C
:1008F000407402D25B084FEA3202B61A65EB030578
:100900005B084FEA32024FF480104FF4002CB6EB34
:10091000020E75EB030E22BFB61A754640EA0C00B4
:100920005B084FEA3202B6EB020E75EB030E22BFF4
:10093000B61A754640EA5C005B084FEA3202B6EB35
:10094000020E75EB030E22BFB61A754640EA9C00F4
:100950005B084FEA3202B6EB020E75EB030E22BFC4
:10096000B61A754640EADC0055EA060E18D04FEA82
:10097000051545EA16754FEA06164FEAC30343EA22
:1009800052734FEAC2025FEA1C1CC0D111F4801FEF
:100990000BD141EA00014FF000004FF0004CB6E7E8
:1009A00011F4801F04BF01430020B4F1FD0C88BF87
:1009B000BCF5E06F3FF6AFAEB5EB030C04BFB6EB92
:1009C000020C5FEA500C50F1000041EB045170BD85
:1009D0000EF0004E4EEA113114EB5C04C2BFD4EBB2
:1009E0000C0541EA045170BD41F480114FF0000E36
:1009F000013C90E645EA060E8DE60CEA135594EAB2
:100A00000C0F08BF95EA0C0F3FF43BAF94EA0C0FB4
:100A10000AD150EA01347FF434AF95EA0C0F7FF429
:100A200025AF104619462CE795EA0C0F06D152EA7D
:100A300003353FF4FDAE1046194622E750EA410661
:100A400018BF52EA43067FF4C5AE50EA41047FF472
:100A50000DAF52EA43057FF4EBAE12E74FF0FF3CD7
:100A600006E000BF4FF0010C02E000BF4FF0010CA8
:100A70004DF804CD4FEA410C7FEA6C5C4FEA430C21
:100A800018BF7FEA6C5C1BD001B050EA410C0CBF70
:100A900052EA430C91EA030F02BF90EA020F0020D2
:100AA000704710F1000F91EA030F58BF994208BF39
:100AB00090422CBFD8176FEAE37040F001007047F6
:100AC0004FEA410C7FEA6C5C02D150EA013C07D14D
:100AD0004FEA430C7FEA6C5CD6D152EA033CD3D098
:100AE0005DF8040B704700BF8446104662468C4692
:100AF0001946634600E000BF01B5FFF7B7FF0028C5
:100B000048BF10F1000F01BD4DF808EDFFF7F4FFED
:100B10000CBF012000205DF808FB00BF4DF808ED78
:100B2000FFF7EAFF34BF012000205DF808FB00BF9B
:100B30004DF808EDFFF7E0FF94BF012000205DF8BD
:100B400008FB00BF4DF808EDFFF7CEFF94BF012072
:100B500000205DF808FB00BF4DF808EDFFF7C4FF6B
:100B600034BF012000205DF808FB00BF4FEA410CB4
:100B70007FEA6C5C02D150EA013C0AD14FEA430C97
:100B80007FEA6C5C02D152EA033C02D14FF00000D4
:100B900070474FF0010070474A0011D212F5001261
:100BA00011D20DD56FF47873B3EB62520ED44FEAC5
:100BB000C12343F0004343EA505323FA02F0704745
:100BC0004FF00000704750EA013002D14FF0FF3083
:100BD00070474FF0000070474FEA4102B2F1E04326
:100BE00024BFB3F5001CDCF1FE5C0DD901F0004C14
:100BF0004FEAC0024CEA5070B2F1004F40EB830064
:100C000008BF20F00100704711F0804F21D113F18F
:100C10003872BCBF01F00040704741F480114FEAC8
:100C20005252C2F11802C2F1200C10FA0CF320FA51
:100C300002F018BF40F001004FEAC1234FEAD3236E
:100C400003FA0CFC40EA0C0023FA02F34FEA4303D8
:100C5000CCE77FEA625307D150EA01331EBF4FF061
:100C6000FE4040F44000704701F0004040F0FE407C
:100C700040F40000704700BF53B94AB9002908BFCB
:100C800000281CBF4FF0FF314FF0FF3000F0A8B933
:100C9000ADF1080C6DE904CE00F044F8DDF804E095
:100CA000DDE9022304B07047D0B5FFF76DFC0C4BB3
:100CB000002206460F46FFF7BFFCFFF76DFF044614
:100CC000FFF740FC074B0022FFF7B6FC02460B463D
:100CD00030463946FFF7F8FAFFF75EFF2146D0BDF0
:100CE0000000F03D0000F041D0B50C4B002206465C
:100CF0000F46FFF7A1FCFFF74FFF0446FFF722FC6A
:100D0000074B0022FFF798FC02460B463046394657
:100D1000FFF7DAFAFFF740FF2146D0BD0000F03DB3
:100D20000000F0412DE9F047089D0C46002B4ED104
:100D300094468C458646B2FA82F262D94AB1C2F133
:100D40002003914020FA03F30CFA02FC194300FA45
:100D500002FE4FEA1C471FFA8CF6B1FBF7F44FEA8C
:100D60001E4307FB141143EA014304FB06F19942B9
:100D70000AD91CEB030304F1FF3080F01281994281
:100D800040F20F81023C6344591A1FFA8EF3B1FB03
:100D9000F7F007FB101143EA014300FB06F69E4201
:100DA0000AD91CEB030300F1FF3180F0FC809E4266
:100DB00040F2F980634402389B1B40EA0440002162
:100DC0001DB1D3400022C5E90032BDE8F0878B4257
:100DD00005D90DB1C5E9000100210846F5E7B3FAD0
:100DE00083F1002946D1A34202D39042C0F0F080A3
:100DF000861A64EB03030120002DE6D0C5E90063E9
:100E0000E3E7002A40F09080A1EB0C044FEA1C4875
:100E10001FFA8CF70121B4FBF8F64FEA1E4308FBDA
:100E2000164443EA044307FB06F0984208D91CEB3A
:100E3000030306F1FF3402D2984200F2CD80264629
:100E40001C1A1FFA8EF3B4FBF8F008FB104443EAB7
:100E5000044300FB07F79F4208D91CEB030300F192
:100E6000FF3402D29F4200F2B0802046DB1B40EAF2
:100E70000640A5E7C1F120068B4022FA06F71F4382
:100E800020FA06FC04FA01F343EA0C03F44000FAEA
:100E900001F8380C4FEA1349B4FBF0FE1FFA87FC47
:100EA00000FB1E4449EA04440EFB0CF9A14502FA7A
:100EB00001F20AD93C190EF1FF3A80F08480A14575
:100EC00040F28180AEF1020E3C44A4EB09041FFA0B
:100ED00083F9B4FBF0F300FB134449EA044403FB39
:100EE0000CFCA44507D93C1903F1FF3067D2A44597
:100EF00065D9023B3C4443EA0E40A0FB0293A4EBBD
:100F00000C049C42CE469C4651D34ED055B1B8EB12
:100F10000E0364EB0C0404FA06F6CB401E43CC40EF
:100F2000C5E90064002150E7C2F1200320FA03F173
:100F30000CFA02FC24FA03F394400C434FEA1C48D9
:100F400000FA02FE1FFA8CF7B3FBF8F008FB103131
:100F5000230C43EA014300FB07F1994208D91CEB3B
:100F6000030300F1FF362CD299422AD90238634498
:100F70005B1AA4B2B3FBF8F108FB113344EA034453
:100F800001FB07F3A34208D91CEB040401F1FF366F
:100F900013D2A34211D902396444E41A41EA004150
:100FA00039E70446F0E6084606E7C845AED2B9EB95
:100FB000020E63EB070C0138A8E73146EDE7034664
:100FC00099E73046D4E7D6467FE7634402384DE7D9
:100FD0000646234608460FE7023E634430E700BF5B
:100FE000704700BF80B483B000AF786000BF0C379B
:100FF000BD465DF8047B704780B483B000AF786075
:101000007B6818460C37BD465DF8047B704780B49A
:1010100083B000AF78607B6818460C37BD465DF83A
:10102000047B704780B582B000AF7860786800F0CC
:1010300087F9B0EE407AF0EE607A7B6883ED087B4A
:10104000786800F0BDF9B0EE407AF0EE607A7B6827
:1010500083ED0A7B786800F0F3F9B0EE407AF0EEA9
:10106000607A7B6883ED0C7B786800F029FAB0EE3B
:10107000407AF0EE607A7B6883ED0E7B786800F052
:1010800040FAB0EE407AF0EE607A7B6883ED107B38
:10109000786800F057FAB0EE407AF0EE607A7B683C
:1010A00083ED127B786800F0DBFAB0EE407AF0EE68
:1010B000607A7B6883ED147B786800F065FAB0EEA7
:1010C000407AF0EE607A7B6883ED167B786800F0FA
:1010D000C3FBB0EE407AF0EE607A7B6883ED1A7B5A
:1010E000786800F075FAB0EE407AF0EE607A7B68CE
:1010F00083ED1C7B786800F0D3FBB0EE407AF0EE15
:10110000607A7B6883ED207B786800F085FAB0EE2A
:10111000407AF0EE607A7B6883ED227B786800F09D
:10112000E3FBB0EE407AF0EE607A7B6883ED267BDD
:10113000786800F0DDFAB0EE407AF0EE607A7B6815
:1011400083ED187B786800F0F7FAB0EE407AF0EEA5
:10115000607A7B6883ED1E7B786800F011FBB0EE4F
:10116000407AF0EE607A7B6883ED247B786800F04B
:101170002BFBB0EE407AF0EE607A7B6883ED2A7B41
:10118000786800F091FAB0EE407AF0EE607A7B6811
:1011900083ED287B786800F0CBFBB0EE407AF0EE70
:1011A000607A7B6883ED2C7B786800F031FBB0EED1
:1011B000407AF0EE607A7B6883ED2E7B00BF0837C3
:1011C000BD4680BD80B588B000AFF86008461146C6
:1011D0001A460346FB720B463B811346FB80BB1D40
:1011E000FB6107F10803BB61FB881B0A9BB21AB2C3
:1011F000FB881B021BB213431BB2FB82FB8AFB80E2
:10120000FB7ADB031AB23B891BB213431BB29BB2BE
:101210003B813B891B0A9BB21AB23B891B021BB262
:1012200013431BB2BB82BB8A3B81FB689B69184698
:1012300013F0E4FBFB6898694FF4FA730222B96972
:1012400013F08DFC00BFFB689B6993F85130DBB253
:10125000022B0CBF01230023DBB2002BF3D1FB7A5E
:10126000002B15D0FB68986942F210730222F969CD
:1012700013F0B1FD00BFFB689B6993F85130DBB2FE
:10128000022B0CBF01230023DBB2002BF3D114E0AF
:10129000FB6898694FF4FA730222F96913F05FFC56
:1012A00000BFFB689B6993F85130DBB2022B0CBF87
:1012B00001230023DBB2002BF3D1FB689B691846A6
:1012C00013F025FCFB881B0A9BB21AB2FB881B0299
:1012D0001BB213431BB2FB82FB8A18462037BD4664
:1012E00080BD80B586B000AF78600B467B8013462A
:1012F0003B807A884FF6FF7301217868FFF762FF21
:1013000003467B613A884FF6FF7301217868FFF747
:1013100059FF03463B617A884FF6FF7301217868D5
:10132000FFF750FF0346FB607B691B04FB60FA6814
:101330003B691343FB60FB6818461837BD4680BD08
:1013400080B584B000AF78604FF6FF73D9220121D9
:101350007868FFF737FF0346FB81FB891846FFF7E4
:10136000F1F84FF00002144BFFF790FA02460B46DB
:10137000104619464FF00002104BFFF7CFFB034613
:10138000002B04D04FF000024FF000030AE0FB896D
:101390001846FFF7D7F84FF00002074BFFF776FA31
:1013A00002460B4643EC172BB0EE470AF0EE670AF5
:1013B0001037BD4680BD00BF000059400000084006
:1013C00080B584B000AF78604FF6FF73DA22012158
:1013D0007868FFF7F7FE0346FB81FB891846FFF7A5
:1013E000B1F84FF00002144BFFF750FA02460B46DB
:1013F000104619464FF00002104BFFF78FFB0346D3
:10140000002B04D04FF000024FF000030AE0FB89EC
:101410001846FFF797F84FF00002074BFFF736FA30
:1014200002460B4643EC172BB0EE470AF0EE670A74
:101430001037BD4680BD00BF000059400000084085
:1014400080B584B000AF78604FF6FF73DB220121D6
:101450007868FFF7B7FE0346FB81FB891846FFF764
:1014600071F84FF00002144BFFF710FA02460B46DA
:10147000104619464FF00002104BFFF74FFB034692
:10148000002B04D04FF000024FF000030AE0FB896C
:101490001846FFF757F84FF00002074BFFF7F6F931
:1014A00002460B4643EC172BB0EE470AF0EE670AF4
:1014B0001037BD4680BD00BF000059400000084005
:1014C00080B584B000AF78604FF6FF73DD22012154
:1014D0007868FFF777FE0346FB81FB89022B01D872
:1014E0000023FB81FB891846FFF72CF802460B46C8
:1014F00043EC172BB0EE470AF0EE670A1037BD46F3
:1015000080BD80B584B000AF78604FF6FF73DE22F7
:1015100001217868FFF756FE0346FB81FB89022B09
:1015200001D80023FB81FB891846FFF70BF8024620
:101530000B4643EC172BB0EE470AF0EE670A103764
:10154000BD4680BD80B584B000AF78604FF6FF73B4
:10155000DF2201217868FFF735FE0346FB81FB8916
:10156000022B01D80023FB81FB891846FEF7EAFF16
:1015700002460B4643EC172BB0EE470AF0EE670A23
:101580001037BD4680BD000080B584B000AF7860E4
:10159000C122B1217868FFF7A4FEF860F868FEF771
:1015A000E1FF09A3D3E90023FFF746F802460B4603
:1015B00043EC172BB0EE470AF0EE670A1037BD4632
:1015C00080BD00BFAFF30080F168E388B5F8343F19
:1015D00080B584B000AF7860C222B2217868FFF78E
:1015E00080FEF860F868FEF7BDFF09A3D3E9002389
:1015F000FFF722F802460B4643EC172BB0EE470AE2
:10160000F0EE670A1037BD4680BD00BFAFF3008023
:10161000F168E388B5F8343F80B584B000AF7860F6
:10162000C322B3217868FFF75CFEF860F868FEF724
:1016300099FF09A3D3E90023FEF7FEFF02460B46FC
:1016400043EC172BB0EE470AF0EE670A1037BD46A1
:1016500080BD00BFAFF30080F168E388B5F8343F88
:1016600080B584B000AF7860C022B0217868FFF701
:1016700038FEF860F868FEF775FF09A3D3E9002388
:10168000FEF7DAFF02460B4643EC172BB0EE470A93
:10169000F0EE670A1037BD4680BD00BFAFF3008093
:1016A000F168E388B5F8343F80B584B000AF786066
:1016B000C422B4217868FFF714FEF860F868FEF7DA
:1016C00051FF09A3D3E90023FEF7B6FF02460B46FC
:1016D00043EC172BB0EE470AF0EE670A1037BD4611
:1016E00080BD00BFAFF30080F168E388B5F8343FF8
:1016F00080B584B000AF7860C922B9217868FFF75F
:10170000F0FDF860F868FEF72DFF09A3D3E9002388
:10171000FEF792FF02460B4643EC172BB0EE470A4A
:10172000F0EE670A1037BD4680BD00BFAFF3008002
:10173000F168E388B5F8343F80B584B000AF7860D5
:10174000CA22BA217868FFF7CCFDF860F868FEF786
:1017500009FF09A3D3E90023FEF76EFF02460B46FB
:1017600043EC172BB0EE470AF0EE670A1037BD4680
:1017700080BD00BFAFF30080F168E388B5F8343F67
:1017800080B584B000AF7860CB22BB217868FFF7CA
:10179000A8FDF860F868FEF7E5FE09A3D3E9002389
:1017A000FEF74AFF02460B4643EC172BB0EE470A02
:1017B000F0EE670A1037BD4680BD00BFAFF3008072
:1017C000F168E388B5F8343F80B584B000AF786045
:1017D000C822B8217868FFF784FDF860F868FEF742
:1017E000C1FE09A3D3E90023FEF726FF02460B46FC
:1017F00043EC172BB0EE470AF0EE670A1037BD46F0
:1018000080BD00BFAFF30080F168E388B5F8343FD6
:1018100080B584B000AF78604FF6FF73F8220121E5
:101820007868FFF7CFFC0346FB81FB891846FEF77B
:1018300089FE4FF00002074BFFF728F802460B46DF
:1018400043EC172BB0EE470AF0EE670A1037BD469F
:1018500080BD00BF0000594080B584B000AF786003
:101860004FF6FF73BD2201217868FFF7ABFC0346FA
:10187000FB81B7F90E301846FEF774FE4FF00002F8
:10188000064BFFF703F802460B4643EC172BB0EE6E
:10189000470AF0EE670A1037BD4680BD00408F4012
:1018A00080B584B000AF78604FF6FF73BE2201218F
:1018B0007868FFF787FC0346FB81B7F90E301846BE
:1018C000FEF750FE4FF00002064BFEF7DFFF024628
:1018D0000B4643EC172BB0EE470AF0EE670A1037C1
:1018E000BD4680BD00408F4080B584B000AF7860B9
:1018F0004FF6FF73BF2201217868FFF763FC0346B0
:10190000FB81B7F90E301846FEF72CFE4FF00002AF
:10191000064BFEF7BBFF02460B4643EC172BB0EE1F
:10192000470AF0EE670A1037BD4680BD00408F4081
:1019300080B584B000AF78604FF6FF73FC220121C0
:101940007868FFF73FFC0346FB81B7F90E30184675
:10195000FEF708FE02460B4643EC172BB0EE470A93
:10196000F0EE670A1037BD4680BD000080B584B038
:1019700000AF78604FF6FF73812201217868FFF78E
:1019800021FC0346FB81FB891846FEF7DBFD4FF087
:101990000002074BFEF77AFF02460B4643EC172B7B
:1019A000B0EE470AF0EE670A1037BD4680BD00BFB3
:1019B0000000744080B584B000AF78604FF6FF73CC
:1019C000822201217868FFF7FDFB0346FB81FB893A
:1019D0001846FEF7B7FD4FF00002074BFEF756FF23
:1019E00002460B4643EC172BB0EE470AF0EE670AAF
:1019F0001037BD4680BD00BF0000744080B584B084
:101A000000AF78604FF6FF73832201217868FFF7FB
:101A1000D9FB0346FB81FB891846FEF793FD4FF087
:101A20000002074BFEF732FF02460B4643EC172B32
:101A3000B0EE470AF0EE670A1037BD4680BD00BF22
:101A40000000744080B584B000AF78604FF6FF733B
:101A5000882201217868FFF7B5FB0346FB81FB89EB
:101A60001846FEF76FFD4FF00002074BFEF70EFF22
:101A700002460B4643EC172BB0EE470AF0EE670A1E
:101A80001037BD4680BD00BF0000744080B584B0F3
:101A900000AF78604FF6FF73902201217868FFF75E
:101AA00091FB0346FB81FB891846FEF74BFD4FF087
:101AB0000002074BFEF7EAFE02460B4643EC172BEB
:101AC000B0EE470AF0EE670A1037BD4680BD00BF92
:101AD0000000744080B584B000AF78604FF6FF73AB
:101AE0008C2201217868FFF76DFB0346FB81FB899F
:101AF0001846FEF727FD4FF00002074BFEF7C6FE23
:101B000002460B4643EC172BB0EE470AF0EE670A8D
:101B10001037BD4680BD00BF00007440B0B586B030
:101B200000AFF860B96011461A460B46FB801346B9
:101B3000BB80FB6805221A60FB68FA889A80FB6804
:101B4000BA88DA80FB68BA689A61FB683A8D1A81B4
:101B5000FB68BA8D5A81FB683A8E9A81FB68BA8E0F
:101B6000DA81FB683A8F1A82FB68BA8F5A82FB6867
:101B70009B8841F28512934205D0FB689B8841F215
:101B80006F42934208D15A23FB8241F2D473BB8245
:101B900041F20C737B8207E0BE23FB8241F2EC33FF
:101BA000BB8241F224337B82FB8A642202FB03F373
:101BB0001846FEF7D7FC04460D46022000F07DF9DA
:101BC00053EC102B20462946FEF736FD02460B4605
:101BD00014461D46FB681B89002B02DA03F57F5370
:101BE0003F339B131846FEF7BDFC02460B462046CA
:101BF0002946FEF74BFE02460B4610461946FEF7F5
:101C0000CBFF03463B8247F69A0370220021F86817
:101C1000FFF7D8FA0A200DF00FF845F2AA537F22F9
:101C20000021F868FFF7CEFA012300220021F868AE
:101C3000FFF7C8FA41F23F4305220021F868FFF799
:101C4000C1FA3B8A08220021F868FFF7BBFABB8A79
:101C50000D220021F868FFF7B5FA7B8A0C220021DB
:101C6000F868FFF7AFFA4BF26F7375220021F8683E
:101C7000FFF7A8FA4DF6FD5376220021F868FFF72A
:101C8000A1FA012373220021F868FFF79BFA0123D0
:101C900074220021F868FFF795FA46F602430722FE
:101CA0000021F868FFF78EFA40F661033122002127
:101CB000F868FFF787FA4CF2684332220021F8688F
:101CC000FFF780FA872333220021F868FFF77AFABA
:101CD00041F22A5334220021F868FFF773FA41F6E3
:101CE0004C5335220021F868FFF76CFA41F64C534B
:101CF00036220021F868FFF765FA41F64C53372287
:101D00000021F868FFF75EFA40F2EE233822002146
:101D1000F868FFF757FA40F2EE2339220021F868FD
:101D2000FFF750FA40F2EE233A220021F868FFF75D
:101D300049FA002347220021F868FFF743FA0023FD
:101D400048220021F868FFF73DFA002349220021CC
:101D5000F868FFF737FA00234A220021F868FFF7F6
:101D600031FA00234B220021F868FFF72BFA0023F9
:101D70004C220021F868FFF725FA002341220021B8
:101D8000F868FFF71FFA002342220021F868FFF7E6
:101D900019FA002343220021F868FFF713FA002301
:101DA00044220021F868FFF70DFA002345220021A4
:101DB000F868FFF707FA002346220021F868FFF7CA
:101DC00001FA002351220021F868FFF7FBF90023F4
:101DD00052220021F868FFF7F5F900235322002171
:101DE000F868FFF7EFF9002354220021F868FFF7A5
:101DF000E9F9002355220021F868FFF7E3F90023F1
:101E000056220021F868FFF7DDF9FB681B89612283
:101E10000021F868FFF7D6F9FB68DB896222002110
:101E2000F868FFF7CFF9002363220021F868FFF775
:101E3000C9F9002364220021F868FFF7C3F9FB68A1
:101E40005B8965220021F868FFF7BCF9FB681B8AF3
:101E500066220021F868FFF7B5F900236722002108
:101E6000F868FFF7AFF9002368220021F868FFF750
:101E7000A9F9FB689B8969220021F868FFF7A2F99C
:101E8000FB685B8A6A220021F868FFF79BF9002350
:101E90006B220021F868FFF795F900236C220021DE
:101EA000F868FFF78FF900237F220021F868FFF719
:101EB00089F900BF1837BD46B0BD80B582B000AF0C
:101EC00078607868FEF74EFB02460B4643EC102B19
:101ED0001AF02CFAB0EE407AF0EE607AB0EE470AD3
:101EE000F0EE670A0837BD4680BD000080B582B0BD
:101EF00000AF786039607B68012B07D13B684FF6F3
:101F0000FF72934202D10948FFF776F87B68002BF5
:101F100007D13B684FF6FF72934202D10348FFF7A7
:101F200076F800BF0837BD4680BD00BFC001002065
:101F300080B500AF4FF6FF710120FFF7D7FF80BDDE
:101F400080B500AF4FF6FF710020FFF7CFFF80BDD7
:101F500080B483B000AF78600B46FB707B681C4A8E
:101F60001A607B681B4A5A607B681B4A9A607B68D0
:101F70001A4ADA607B681A4A1A617B68194A5A6100
:101F80007B68194A9A617B68184ADA617B68184A4B
:101F90001A627B68174A5A627B684FF000029A62A5
:101FA0007B684FF07A52DA627B684FF000029A63E6
:101FB0007B684FF00002DA637B68FA7883F8482088
:101FC0007B6818460C37BD465DF8047B704700BF40
:101FD0000AD73B40333353405C8F2240A8C63B4076
:101FE000AE470940FA7E2240D7A3E03F4C37094074
:101FF00052B8AE3F1283E03F80B483B000AF786048
:102000007B6818460C37BD465DF8047B70470000BE
:1020100080B584B000AF78604523FB73444800F07E
:10202000D7FB0346012B0CBF01230023DBB2002B9F
:1020300077D0404B93ED007ADFED3F6AC6EE877AAA
:10204000B7EE007A37EEC77AF7EE006AC6EE877A07
:102050009FED3A7A67EE877AC7ED027AD7ED027A7A
:102060009FED377AF4EEC77AF1EE10FA0BDDD7ED7B
:10207000027A9FED347AF4EEC77AF1EE10FA02D5C7
:102080003623FB734FE0D7ED027A9FED2F7AF4EE03
:10209000C77AF1EE10FA0BDDD7ED027A9FED2B7ABD
:1020A000F4EEC77AF1EE10FA02D53323FB733AE06F
:1020B000D7ED027A9FED267AF4EEC77AF1EE10FAA8
:1020C0000BDDD7ED027A9FED237AF4EEC77AF1EEBD
:1020D00010FA02D53223FB7325E0D7ED027A9FED8B
:1020E0001E7AF4EEC77AF1EE10FA0BDDD7ED027A24
:1020F0009FED1A7AF4EEC77AF1EE10FA02D5312389
:10210000FB7310E0D7ED027A9FED147AF4EEC77AF4
:10211000F1EE10FA02DD4E23FB7304E04523FB735E
:1021200001E03323FB73FB7B18461037BD4680BDAF
:10213000CC020020601C00200000804500007A4492
:102140000000704200000C4300001643000087436B
:102150000000164400003E440080A2440000E14418
:1021600080B584B000AF78604523FB724FF0000368
:10217000FB607868FFF74CFF0346FB72FB7A312B5C
:1021800002D11B4BFB6015E0FB7A322B02D1194BBD
:10219000FB600FE0FB7A332B03D14FF08443FB60ED
:1021A00008E0FB7A362B02D1134BFB6002E04FF0C4
:1021B0000003FB60114800F039FBB0EE407AD7ED28
:1021C000037AF4EEC77AF1EE10FACCBF01230023B4
:1021D000DBB2002B04D0094800F028FB87ED030A8E
:1021E000FB6807EE903AB0EE670A1037BD4680BD37
:1021F000000050410000A04100007C42CC020020C1
:1022000080B586B000AF786087ED000A4FF000031C
:102210007B61514B3B610023FB81D7ED007AF5EEEA
:10222000407AF1EE10FA05D04C4B1B6841F288322F
:102230005A6303E0494B1B6800225A63D7ED007ACA
:10224000B1EE087AF4EEC77AF1EE10FA02D5444BFB
:102250003B6015E07868FFF783FFB0EE407AD7ED7A
:10226000007AF4EEC77AF1EE10FACCBF0123002316
:10227000DBB2002B04D07868FFF772FF87ED000A0D
:10228000D7ED007AB1EE087AF4EEC77AF1EE10FAE3
:102290001ADB344BD3ED037A97ED007AB4EEE77A8C
:1022A000F1EE10FA10D83868FEF76EF928A3D3E9DA
:1022B0000023FEF7EBFA02460B4610461946FEF7DE
:1022C0008BFC03467B6103E0254B3B60264B7B6127
:1022D000D7ED047ADFED256A87EEA67AD7ED057A89
:1022E00067EE277AFCEEE77A17EE903AFB817B687F
:1022F0009B8E002B05D17B681B6B1B68FA895A6388
:1023000018E07B689B8E042B05D17B681B6B1B68D8
:10231000FA899A630EE07B689B8E082B05D17B6857
:102320001B6B1B68FA89DA6304E07B681B6B1B6814
:10233000FA891A647B683A689A633B6807EE903AB8
:10234000B0EE670A1837BD4680BD00BFAFF300800E
:10235000333333333333E33F00007A440C07002038
:102360000000C040CC020020000020410000C84214
:1023700080B582B000AF78607B684FF000029A634E
:102380007B689B8E002B06D17B681B6B1B684FF410
:102390007A725A631BE07B689B8E042B06D17B68A4
:1023A0001B6B1B684FF47A729A6310E07B689B8EFC
:1023B000082B06D17B681B6B1B684FF47A72DA63BB
:1023C00005E07B681B6B1B684FF47A721A64114B33
:1023D0001B6800225A63104B104A1A600E4B42F2DF
:1023E000CF025A600C4B00229A600B4B4CF25032D9
:1023F000DA60094B00221A61074B00229A610648F5
:1024000013F0CCF8044813F06DF900BF0837BD464F
:1024100080BD00BF0C070020740800200020004091
:1024200080B584B000AFF860B9603B601346FB80B4
:10243000FB68BA681A63FB68FA889A86FB683A6890
:102440001A64FB68BA695A64F868FFF791FF00BF25
:102450001037BD4680BD000080B586B000AFF86083
:102460000B467A60FB720CF0DBFB786115E01448D8
:102470000FF061FCFB6893F848301946F86800F0EB
:1024800021F803461A46FB7A934214BF0123002326
:10249000DBB2002B01D000230DE00CF0C1FB0246A3
:1024A0007B69D31A7A689A428CBF01230023DBB27E
:1024B000002BDCD1012318461837BD4680BD00BF74
:1024C0004005002080B483B000AF78600B46FB70FD
:1024D0007B6893ED007A384BD3ED007AB4EEE77A5F
:1024E000F1EE10FA01D8412360E07B6893ED027AA7
:1024F000314BD3ED007AB4EEE77AF1EE10FA0CD856
:102500007B6893ED037A2C4BD3ED007AB4EEE77A37
:10251000F1EE10FA01DB422348E07B6893ED047A88
:10252000254BD3ED007AB4EEE77AF1EE10FA0CD831
:102530007B6893ED057A204BD3ED007AB4EEE77A11
:10254000F1EE10FA01DB432330E07B6893ED067A6D
:10255000194BD3ED007AB4EEE77AF1EE10FA0CD80D
:102560007B6893ED077A144BD3ED007AB4EEE77AEB
:10257000F1EE10FA01DB442318E07B6893ED087A52
:102580000D4BD3ED007AB4EEE77AF1EE10FA0CD8E9
:102590007B6893ED097A084BD3ED007AB4EEE77AC5
:1025A000F1EE10FA01DB452300E0462318460C3714
:1025B000BD465DF8047B7047581C002080B582B092
:1025C00000AF786039607B68012B08D13B684FF61B
:1025D000FF72934203D101210848FFF7B9FC7B68E1
:1025E000002B07D13B684FF6FF72934202D103489C
:1025F000FFF702FD00BF0837BD4680BD8002002006
:1026000080B500AF4FF6FF710120FFF7D7FF80BD07
:1026100080B500AF4FF6FF710020FFF7CFFF80BD00
:1026200080B483B000AF78600B46FB707B684022BB
:102630005A727B6800229A727B684FF08442DA609B
:102640007B68FA781A707B6818460C37BD465DF8CF
:10265000047B704780B483B000AF78607B68184615
:102660000C37BD465DF8047B704780B588B004AF79
:1026700078600B46FB700023FB737B6858687B68AF
:102680001B781946642305220EF08AFE7B68586881
:102690007B681B781946FB789AB264230293012366
:1026A000019307F10F03009301230EF053FCFB7B12
:1026B00018461037BD4680BD80B586B004AF78603F
:1026C0000B46FB701346BB70786800F029F87B68F6
:1026D00058687B681B781946642305220EF060FE5B
:1026E0007B6858687B681B781946FB789AB264232C
:1026F000029301230193BB1C009301230EF030FBD6
:102700007B6858687B681B781946642305220EF0A5
:1027100047FE786800F014F800BF0837BD4680BD5A
:1027200080B582B000AF78600022012103480EF02E
:1027300071F900BF0837BD4680BD00BF000C0240E4
:1027400080B582B000AF78600122012103480EF00D
:1027500061F900BF0837BD4680BD00BF000C0240D4
:1027600080B582B000AF78600B46FB70FB78002B21
:102770000AD07B685B7A312219467868FFF79CFFA4
:102780007B6801221A7209E07B685B7A3022194665
:102790007868FFF791FF7B6800221A7200BF083744
:1027A000BD4680BD80B582B000AF78600822074981
:1027B000786800F0D5F80346002B01D0002300E034
:1027C000012318460837BD4680BD00BF00100240F7
:1027D00080B582B000AF786010220449786800F0BC
:1027E000BFF8034618460837BD4680BD00100240BA
:1027F00080B483B000AF78607B689B7A18460C3752
:10280000BD465DF8047B704780B483B000AF78604C
:102810007B681B7A002B14BF01230023DBB2184610
:102820000C37BD465DF8047B7047000080B584B06E
:1028300000AF78600023FB817868FFF7B3FF0346A1
:10284000012B0CBF01230023DBB2002B03D07B68DC
:10285000D3ED037A79E001223E49786800F080F8F0
:102860000346002B01D0002300E001239AB2FB892C
:102870001344FB814FF480523749786800F070F8B8
:102880000346002B01D0002300E002239AB2FB890B
:102890001344FB814FF400422F49786800F060F840
:1028A0000346002B01D0002300E004239AB2FB89E9
:1028B0001344FB814FF400422849786800F050F837
:1028C0000346002B01D0002300E008239AB2FB89C5
:1028D0001344FB81FB89082B2FD801A252F823F067
:1028E000052900080B2900081129000817290008EC
:1028F0001D29000823290008292900082F2900087C
:10290000352900080023FB811AE00623FB8117E02C
:102910000A23FB8114E00D23FB8111E01023FB81CE
:102920000EE01423FB810BE01923FB8108E01C233C
:10293000FB8105E02023FB8102E02023FB8100BF17
:10294000FB8907EE903AF8EE677AB0EE670A103727
:10295000BD4680BD0000024000100240000402405D
:1029600080B584B000AFF860B9601346FB80FB8887
:102970001946B8680EF036F80346002B14BF012341
:102980000023DBB218461037BD4680BD80B584B049
:1029900000AF786039607B6801221A747B683A68FE
:1029A0005A607B685B7A19467868FFF75EFE0346DB
:1029B000FB73FB7B312B09D0FB7B302B06D07B6874
:1029C0005B7A312219467868FFF776FE7B685B7A7E
:1029D00019467868FFF749FE0346FB73FB7B302BF3
:1029E00003D17B6800221A7202E07B6801221A720E
:1029F0001248FEF717FB114BD3E90A014FF0000212
:102A00000F4BFEF78BF80346002B0ED00B4BD3E990
:102A10000C014FF000020A4BFEF780F80346002B32
:102A200003D0084B00229A7203E0064B01229A72EF
:102A300000BF00BF1037BD4680BD00BFC0010020F1
:102A400000003E40CC02002080B582B000AF78602C
:102A500039607B68012B08D13B684FF6FF729342C7
:102A600003D1A0210848FFF7DBFD7B68002B07D1CD
:102A70003B684FF6FF72934202D10348FFF7EAFD2D
:102A800000BF0837BD4680BDCC02002080B500AF36
:102A90004FF6FF710120FFF7D7FF80BD80B500AF73
:102AA0004FF6FF710020FFF7CFFF80BD80B483B0E9
:102AB00000AF78600B46FB707B684FF47A721A6047
:102AC0007B6800229A727B680822DA727B68102287
:102AD0001A737B6818225A737B68FA785A727B687B
:102AE00018460C37BD465DF8047B704780B483B050
:102AF00000AF78607B6818460C37BD465DF8047BF4
:102B0000704700000000000080B582B000AF786020
:102B100039607B683A681A613F21786800F053F9A0
:102B20000346692B14BF01230023DBB2002B13D013
:102B30009FED170B786800F0B7FA9FED150B7868DA
:102B400000F0C4FA9FED120B786800F0D1FA692208
:102B50003F21786800F072F90CF062F802467B6859
:102B60005A603F21786800F02EF90346692B0CBFAC
:102B700001230023DBB2002B03D07B6801221A72F1
:102B800002E07B6800221A7200BF0837BD4680BD94
:102B9000000000000000F03F80B483B000AF786018
:102BA0000B467B8008E000BF00BF00BF00BF00BF36
:102BB00000BF00BF00BF00BF7B885A1E7A80002B79
:102BC00014BF01230023DBB2002BECD100BF00BFF8
:102BD0000C37BD465DF8047B7047000080B588B0B7
:102BE00000AF786007F1080300221A605A609A600B
:102BF000DA601A617B681B691B68454A934240F0A2
:102C000082807B681B6918460EF07AF80A21786882
:102C1000FFF7C2FF4FF48063BB600123FB6000231A
:102C20003B6107F1080319463A480DF053FC4FF495
:102C30008053BB600123FB6000233B6107F1080365
:102C4000194635480DF046FC01224FF480513248B8
:102C50000DF0E0FE01224FF480612E480DF0DAFE07
:102C60000023FB6116E001224FF4806129480DF03A
:102C7000D1FE03217868FFF78FFF00224FF48061B7
:102C800024480DF0C7FE03217868FFF785FFFB6934
:102C90000133FB61FB69082BE5DD7B681A697B6802
:102CA0001B6912681A607B681B691C4A5A607B6842
:102CB0001B6900229A607B681B690022DA607B68CE
:102CC0001B694FF480421A617B681B6900225A61BC
:102CD0007B681B6900229A617B681B690022DA61AC
:102CE0007B681B6900221A627B681B6918460DF01D
:102CF000C3FE0346002B14BF01230023DBB2002BCD
:102D000001D003F02BFD00BF2037BD4680BD00BFC2
:102D1000005800400004024000080240801A0600EB
:102D200080B582B000AF78600022012103480DF029
:102D300071FE00BF0837BD4680BD00BF000C0240D9
:102D400080B582B000AF78600122012103480DF008
:102D500061FE00BF0837BD4680BD00BF000C0240C9
:102D600080B487B000AFF860B9607A6000237B61FF
:102D70001AE07B69BA6813441B78FB747A687B6934
:102D8000D31A013BBA681A447B69B9680B441278BC
:102D90001A707A687B69D31A013BBA681344FA7CCB
:102DA0001A707B6901337B617B68DA0F13445B1017
:102DB0001A467B699342DCDB00BF00BF1C37BD466F
:102DC0005DF8047B704780B588B004AF78600B462F
:102DD000FB700023FB737B6818697B685B7A19467C
:102DE000642305220EF0DCFA0346002B14BF0123F6
:102DF0000023DBB2002B0BD07868FFF7EFFE7B6877
:102E000018697B685B7A1946642305220EF0C8FABC
:102E10007B6818697B685B7A1946FB789AB26423F1
:102E200002930123019307F10F03009301230EF096
:102E300091F8FB7B18461037BD4680BD80B586B043
:102E400004AF78600B46FB701346BB707868FFF7E1
:102E500067FF7B6818697B685B7A194664230522E3
:102E60000EF09EFA0346002B14BF01230023DBB2B1
:102E7000002B0BD07868FFF7B1FE7B6818697B6880
:102E80005B7A1946642305220EF08AFA7B6818697A
:102E90007B685B7A1946FB789AB26423029301231C
:102EA0000193BB1C009301230DF05AFF7B68186946
:102EB0007B685B7A1946642305220EF071FA786804
:102EC000FFF73EFF00BF0837BD4680BD80B58AB022
:102ED00004AF78600B46FB704FF000024FF0000328
:102EE000C7E90423FB78F82B04D94FF000024FF018
:102EF00000033AE07B6818697B685B7A19466423B3
:102F000005220EF04DFA0346002B14BF01230023C7
:102F1000DBB2002B0BD07868FFF760FE7B68186986
:102F20007B685B7A1946642305220EF039FA7B68C8
:102F300018697B685B7A1946FB789AB2642302931E
:102F40000823019307F10803009301230EF002F810
:102F500007F10803082219467868FFF701FFD7E94F
:102F60000223C7E90423D7E9042343EC172BB0EE6F
:102F7000470AF0EE670A1837BD4680BD80B58AB0B3
:102F800004AFF8600B4687ED000BFB7207F11003EE
:102F90003A4692E8030083E8030007F11003082291
:102FA0001946F868FFF7DCFEF868FFF7B9FEFB6822
:102FB0001869FB685B7A1946642305220EF0F0F964
:102FC0000346002B14BF01230023DBB2002B0BD0E0
:102FD000F868FFF703FEFB681869FB685B7A19461F
:102FE000642305220EF0DCF9FB681869FB685B7A44
:102FF0001946FB7A9AB2642302930823019307F1DE
:103000001003009301230DF0ABFEFB681869FB6809
:103010005B7A1946642305220EF0C2F9F868FFF7BF
:103020008FFE00BF1837BD4680BD80B582B000AFAF
:1030300078607B68DB7A19467868FFF747FFB0EE67
:10304000407AF0EE607AB0EE470AF0EE670A083791
:10305000BD4680BD80B582B000AF78607B681B7BC9
:1030600019467868FFF732FFB0EE407AF0EE607AEA
:10307000B0EE470AF0EE670A0837BD4680BD80B55E
:1030800082B000AF78607B685B7B19467868FFF799
:103090001DFFB0EE407AF0EE607AB0EE470AF0EE37
:1030A000670A0837BD4680BD80B584B000AFF860C0
:1030B00087ED000BFB68DB7A97ED000B1946F8688B
:1030C000FFF75CFF00BF1037BD4680BD80B584B000
:1030D00000AFF86087ED000BFB681B7B97ED000BE2
:1030E0001946F868FFF74AFF00BF1037BD4680BD9C
:1030F00080B584B000AFF86087ED000BFB685B7BA8
:1031000097ED000B1946F868FFF738FF00BF10373E
:10311000BD4680BD80B582B000AF786039607B6805
:10312000012B08D13B684FF6FF72934203D1A021D7
:103130000848FFF7BBFC7B68002B07D13B684FF6C4
:10314000FF72934202D10348FFF7D0FC00BF08375B
:10315000BD4680BD4C03002080B500AF4FF6FF7127
:103160000120FFF7D7FF80BD80B500AF4FF6FF719C
:103170000020FFF7CFFF80BD80B584B000AF0346CD
:10318000FB80FB88042B31D1042138480DF02AFC48
:103190000346012B0CBF01230023DBB2002B25D0FB
:1031A000334BD3E92E2310461946FDF715FD06EEE5
:1031B000900ADFED307A87EEA67AF1EE006AC7EE6C
:1031C000267A9FED2C7A67EE877A9FED2A7A77EE42
:1031D000877A294B1B681B68FCEEE77A17EE902A6A
:1031E000DA62254B1B68184612F07CFAFB88B3F5AF
:1031F000805F37D14FF480511C480DF0F3FB03463C
:10320000002B0CBF01230023DBB2002B2AD032237A
:10321000FB600CE04FF4805114480DF0E3FB0346D3
:10322000012B0CBF01230023DBB2002B0AD1FB686A
:103230005A1EFA60002B14BF01230023DBB2002BBF
:10324000E8D100E000BFFB68002B0BDC00224FF44C
:1032500000410A480DF0DEFB094B30225A77094B3A
:1032600001229A7500BF1037BD4680BD00040240A0
:10327000C001002000007A4404000020000C02403D
:10328000301100201811002080B483B000AF7860A6
:103290007B6800229A757B684FF4AF629A837B68E3
:1032A00018460C37BD465DF8047B704780B483B088
:1032B00000AF78607B6818460C37BD465DF8047B2C
:1032C0007047000080B584B000AFF860B9603B6023
:1032D0001346FB80FB68BA681A60FB68FA889A801C
:1032E000FB683A689A60FB683A8B9A81FB68FA69D6
:1032F0001A61FB683A8C9A82FB680022DA75FB68D7
:1033000001221A76FB6800225A83FB689B88002BF7
:1033100005D1FB681B681B6800225A6318E0FB6834
:103320009B88042B05D1FB681B681B6800229A63ED
:103330000EE0FB689B88082B05D1FB681B681B68A7
:103340000022DA6304E0FB681B681B6800221A6431
:10335000FB689B89002B05D1FB689B681B680022DA
:103360005A6318E0FB689B89042B05D1FB689B68B6
:103370001B6800229A630EE0FB689B89082B05D12D
:10338000FB689B681B680022DA6304E0FB689B68AB
:103390001B6800221A64FB689B8A002B05D1FB681E
:1033A0001B691B6800225A6318E0FB689B8A042B88
:1033B00005D1FB681B691B6800229A630EE0FB685D
:1033C0009B8A082B05D1FB681B691B680022DA6306
:1033D00004E0FB681B691B6800221A6400230022BA
:1033E00000212F4800F018F94FF496700BF024FCE0
:1033F0002C480EF0A0FC642364226421284800F0CD
:103400000BF94FF496700BF017FC26480EF093FC66
:10341000002300220021224800F0FEF84FF49670AD
:103420000BF00AFC1F480EF086FC64236422642122
:103430001B4800F0F1F84FF496700BF0FDFB1948B3
:103440000EF079FC002300220021154800F0E4F87A
:103450004FF496700BF0F0FB12480EF06CFC6423F6
:10346000642264210E4800F0D7F84FF496700BF0F8
:10347000E3FB0C480EF05FFC00230022002108480B
:1034800000F0CAF84FF496700BF0D6FB05480EF02A
:1034900052FCF86800F014F800BF1037BD4680BD3C
:1034A000600300204005002080B483B000AF786046
:1034B0007B689B7D18460C37BD465DF8047B7047E2
:1034C00080B582B000AF78607B689B7D312B00F0C7
:1034D0009D807B6831229A757B680022DA757B6853
:1034E0009B68184612F0A9F87B689B6854225A60C2
:1034F0007B689B6800229A60464B9A8B7B689B682E
:10350000DA607B689B6800221A617B689B680022F6
:103510009A617B689B68184612F040F80346002BBE
:1035200014BF01230023DBB2002B01D003F016F9F6
:103530007B689B88002B05D17B681B681B68002279
:103540005A6318E07B689B88042B05D17B681B6855
:103550001B6800229A630EE07B689B88082B05D1CC
:103560007B681B681B680022DA6304E07B681B68C9
:103570001B6800221A647B689B89002B06D1254BAF
:103580009A8B7B689B681B685A631BE07B689B89EE
:10359000042B06D11F4B9A8B7B689B681B689A6330
:1035A00010E07B689B89082B06D11A4B9A8B7B68AD
:1035B0009B681B68DA6305E0164B9A8B7B689B68F7
:1035C0001B681A647B689B8A002B05D17B681B698A
:1035D0001B6800225A631AE07B689B8A042B05D182
:1035E0007B681B691B6800229A6310E07B689B8ADA
:1035F000082B05D17B681B691B680022DA6306E093
:103600007B681B691B6800221A6400E000BF083752
:10361000BD4680BD6003002080B582B000AF7860F9
:10362000084611461A460346FB700B46BB7013460C
:103630007B707B680022DA757B681B68184611F086
:10364000FCFF7B681B684FF452725A607B681B68F2
:1036500000229A607B681B68FF22DA607B681B6827
:1036600000221A617B681B6800229A617B681B68D4
:10367000184611F093FF0346002B14BF01230023CB
:10368000DBB2002B01D003F069F87B689B88002B2C
:1036900005D17B681B681B68FA785A6318E07B6861
:1036A0009B88042B05D17B681B681B68FA789A639A
:1036B0000EE07B689B88082B05D17B681B681B6824
:1036C000FA78DA6304E07B681B681B68FA781A648E
:1036D0007B689B89002B05D17B689B681B68BA7847
:1036E0005A6318E07B689B89042B05D17B689B6833
:1036F0001B68BA789A630EE07B689B89082B05D11A
:103700007B689B681B68BA78DA6304E07B689B6817
:103710001B68BA781A647B689B8A002B05D17B688A
:103720001B691B687A785A6318E07B689B8A042BB4
:1037300005D17B681B691B687A789A630EE07B6809
:103740009B8A082B05D17B681B691B687A78DA6332
:1037500004E07B681B691B687A781A6400BF08372D
:10376000BD4680BD80B582B000AF78607B689B7D30
:10377000322B00F09E807B6832229A757B68002293
:10378000DA757B681B69184611F057FF7B681B6967
:1037900042F2D0025A607B681B6900229A607B6803
:1037A0001B6942F6E062DA607B681B6900221A61DD
:1037B0007B681B6900229A617B681B69184611F0BF
:1037C000EDFE0346002B14BF01230023DBB2002BC8
:1037D00001D002F0C3FF7B689B88002B05D17B687A
:1037E0001B681B6800225A6318E07B689B88042BC7
:1037F00005D17B681B681B6800229A630EE07B681A
:103800009B88082B05D17B681B681B680022DA6344
:1038100004E07B681B681B6800221A647B689B8934
:10382000002B05D17B689B681B6800225A6318E057
:103830007B689B89042B05D17B689B681B680022F1
:103840009A630EE07B689B89082B05D17B689B6897
:103850001B680022DA6304E07B689B681B68002217
:103860001A647B689B8A002B06D17B681B691B68E6
:1038700042F228325A631DE07B689B8A042B06D1F2
:103880007B681B691B6842F228329A6312E07B68EE
:103890009B8A082B06D17B681B691B6842F2283281
:1038A000DA6307E07B681B691B6842F228321A64FE
:1038B00000E000BF0837BD4680BD80B582B000AFD4
:1038C00078607B689B7D332B00F09E807B68332281
:1038D0009A757B680022DA757B681B69184611F0BF
:1038E000ACFE7B681B6942F2D0025A607B681B69A0
:1038F00000229A607B681B694FF4E162DA607B68A2
:103900001B6900221A617B681B6900229A617B682F
:103910001B69184611F042FE0346002B14BF012319
:103920000023DBB2002B01D002F018FF7B689B88DC
:10393000002B05D17B681B681B6800225A6318E0C6
:103940007B689B88042B05D17B681B681B68002261
:103950009A630EE07B689B88082B05D17B681B6807
:103960001B680022DA6304E07B681B681B68002286
:103970001A647B689B89002B05D17B689B681B6858
:1039800000225A6318E07B689B89042B05D17B6871
:103990009B681B6800229A630EE07B689B89082B5A
:1039A00005D17B689B681B680022DA6304E07B68B2
:1039B0009B681B6800221A647B689B8A002B06D1D7
:1039C0007B681B691B684FF448725A631DE07B6873
:1039D0009B8A042B06D17B681B691B684FF44872D5
:1039E0009A6312E07B689B8A082B06D17B681B696F
:1039F0001B684FF44872DA6307E07B681B691B6839
:103A00004FF448721A6400E000BF0837BD4680BD1D
:103A100080B582B000AF78607B689B7D382B00F06A
:103A2000A2807B6838229A757B680022DA757B68F1
:103A30001B69184611F001FE7B681B6942F2D00237
:103A40005A607B681B6900229A607B681B6942F69A
:103A5000E062DA607B681B6900221A617B681B697F
:103A600000229A617B681B69184611F097FD034696
:103A7000002B14BF01230023DBB2002B01D002F086
:103A80006DFE7B689B88002B05D17B681B681B68DB
:103A900000225A6318E07B689B88042B05D17B6861
:103AA0001B681B6800229A630EE07B689B88082BCA
:103AB00005D17B681B681B680022DA6304E07B6821
:103AC0001B681B6800221A647B689B89002B06D147
:103AD0007B689B681B6842F6E0625A631BE07B6868
:103AE0009B89042B06D17B689B681B6842F6E062C9
:103AF0009A6310E07B689B89082B06D17B689B68E2
:103B00001B6842F6E062DA6305E07B689B681B682D
:103B100042F6E0621A647B689B8A002B06D17B68C0
:103B20001B691B6842F6E0625A631DE07B689B8A52
:103B3000042B06D17B681B691B6842F6E0629A631E
:103B400012E07B689B8A082B06D17B681B691B6887
:103B500042F6E062DA6307E07B681B691B6842F6A5
:103B6000E0621A6400E000BF0837BD4680BD000077
:103B700080B582B000AF78607B689B7D342B00F00D
:103B80009F807B6834229A757B681B69184611F008
:103B900054FD7B681B6954225A607B681B690022B4
:103BA0009A60494B9A8B7B681B69DA607B681B695A
:103BB00000221A617B681B6900229A617B681B697D
:103BC000184611F0EBFC0346002B14BF0123002321
:103BD000DBB2002B01D002F0C1FD7B689B88002B7B
:103BE00005D17B681B681B6800225A6318E07B685C
:103BF0009B88042B05D17B681B681B6800229A6395
:103C00000EE07B689B88082B05D17B681B681B68CE
:103C10000022DA6304E07B681B681B6800221A64D8
:103C20007B689B89002B05D17B689B681B68002201
:103C30005A6318E07B689B89042B05D17B689B68DD
:103C40001B6800229A630EE07B689B89082B05D1D4
:103C50007B689B681B680022DA6304E07B689B68D2
:103C60001B6800221A647B689B8A002B05D17B6845
:103C70001B691B6800225A6318E07B689B8A042B2F
:103C800005D17B681B691B6800229A630EE07B6884
:103C90009B8A082B05D17B681B691B680022DA63AD
:103CA00004E07B681B691B6800221A647B680122A0
:103CB000DA757B6801221A767B6800225A8300E05D
:103CC00000BF0837BD4680BD6003002080B582B0CC
:103CD00000AF78607B689B7D352B00F09E807B6811
:103CE00035229A757B680022DA757B681B68184656
:103CF00011F0A3FC7B681B6842F2D0025A607B681B
:103D00001B6800229A607B681B684FF4E162DA60EE
:103D10007B681B6800221A617B681B6800229A611D
:103D20007B681B68184611F039FC0346002B14BF52
:103D300001230023DBB2002B01D002F00FFD7B68D2
:103D40009B88002B06D17B681B681B684FF4487268
:103D50005A631BE07B689B88042B06D17B681B6839
:103D60001B684FF448729A6310E07B689B88082BAD
:103D700006D17B681B681B684FF44872DA6305E064
:103D80007B681B681B684FF448721A647B689B89C8
:103D9000002B05D17B689B681B6800225A6318E0E2
:103DA0007B689B89042B05D17B689B681B6800227C
:103DB0009A630EE07B689B89082B05D17B689B6822
:103DC0001B680022DA6304E07B689B681B680022A2
:103DD0001A647B689B8A002B05D17B681B691B6872
:103DE00000225A631AE07B689B8A042B05D17B680A
:103DF0001B691B6800229A6310E07B689B8A082B72
:103E000005D17B681B691B680022DA6306E07B68CA
:103E10001B691B6800221A6400E000BF0837BD461A
:103E200080BD80B582B000AF78607B689B7D362B0B
:103E300000F09E807B6836229A757B680022DA75D6
:103E40007B681B68184611F0F8FB7B681B6842F220
:103E5000D0025A607B681B6800229A607B681B68EE
:103E600043F69822DA607B681B6800221A617B683F
:103E70001B6800229A617B681B68184611F08EFB54
:103E80000346002B14BF01230023DBB2002B01D01B
:103E900002F064FC7B689B88002B06D17B681B6862
:103EA0001B6841F658325A631BE07B689B88042BE1
:103EB00006D17B681B681B6841F658329A6310E094
:103EC0007B689B88082B06D17B681B681B6841F6C2
:103ED0005832DA6305E07B681B681B6841F658328C
:103EE0001A647B689B89002B05D17B689B681B68E3
:103EF00000225A6318E07B689B89042B05D17B68FC
:103F00009B681B6800229A630EE07B689B89082BE4
:103F100005D17B689B681B680022DA6304E07B683C
:103F20009B681B6800221A647B689B8A002B05D162
:103F30007B681B691B6800225A631AE07B689B8AB6
:103F4000042B05D17B681B691B6800229A6310E073
:103F50007B689B8A082B05D17B681B691B68002244
:103F6000DA6306E07B681B691B6800221A6400E0C4
:103F700000BF0837BD4680BD80B582B000AF786015
:103F80007B689B7D372B00F09E807B6837229A757B
:103F90007B680022DA757B681B68184611F04DFBC0
:103FA0007B681B6842F2D0025A607B681B68002263
:103FB0009A60474B9A8B7B681B68DA607B681B684A
:103FC00000221A617B681B6800229A617B681B686B
:103FD000184611F0E3FA0346002B14BF0123002317
:103FE000DBB2002B01D002F0B9FB7B689B88002B71
:103FF00006D1374B9A8B7B681B681B685A631BE0A2
:104000007B689B88042B06D1314B9A8B7B681B689D
:104010001B689A6310E07B689B88082B06D12C4BA9
:104020009A8B7B681B681B68DA6305E0284B9A8BC8
:104030007B681B681B681A647B689B89002B05D111
:104040007B689B681B6800225A6318E07B689B8929
:10405000042B05D17B689B681B6800229A630EE0E5
:104060007B689B89082B05D17B689B681B680022B5
:10407000DA6304E07B689B681B6800221A647B6833
:104080009B8A002B05D17B681B691B6800225A6341
:104090001AE07B689B8A042B05D17B681B691B682F
:1040A00000229A6310E07B689B8A082B05D17B680D
:1040B0001B691B680022DA6306E07B681B691B68CA
:1040C00000221A6400E000BF0837BD4680BD00BF73
:1040D0006003002080B582B000AF78607B689B7D74
:1040E000392B00F0A2807B6839229A757B68002208
:1040F000DA757B681B68184611F09FFA7B681B68AD
:1041000042F2D0025A607B681B6800229A607B688A
:104110001B684FF47A62DA607B681B6800221A61C0
:104120007B681B6800229A617B681B68184611F047
:1041300035FA0346002B14BF01230023DBB2002B0A
:1041400001D002F00BFB7B689B88002B06D17B68BB
:104150001B681B684FF47A725A631BE07B689B886C
:10416000042B06D17B681B681B684FF47A729A6334
:1041700010E07B689B88082B06D17B681B681B6856
:104180004FF47A72DA6305E07B681B681B684FF4B2
:104190007A721A647B689B89002B06D17B689B68C6
:1041A0001B684FF47A725A631BE07B689B89042B6F
:1041B00006D17B689B681B684FF47A729A6310E0A3
:1041C0007B689B89082B06D17B689B681B684FF432
:1041D0007A72DA6305E07B689B681B684FF47A7239
:1041E0001A647B689B8A002B05D17B681B691B685E
:1041F00000225A631AE07B689B8A042B05D17B68F6
:104200001B691B6800229A6310E07B689B8A082B5D
:1042100005D17B681B691B680022DA6306E07B68B6
:104220001B691B6800221A6400E000BF0837BD4606
:1042300080BD80B582B000AF78607B689B7D3C2BF1
:1042400000F0A2807B683C229A757B680022DA75B8
:104250007B681B68184611F0F0F97B681B6842F216
:10426000D0025A607B681B6800229A607B681B68DA
:1042700043F69822DA607B681B6800221A617B682B
:104280001B6800229A617B681B68184611F086F94A
:104290000346002B14BF01230023DBB2002B01D007
:1042A00002F05CFA7B689B88002B06D17B681B6858
:1042B0001B6843F698225A631BE07B689B88042B9B
:1042C00006D17B681B681B6843F698229A6310E04E
:1042D0007B689B88082B06D17B681B681B6843F6AC
:1042E0009822DA6305E07B681B681B6843F6982216
:1042F0001A647B689B89002B06D17B689B681B68CE
:1043000043F698225A631BE07B689B89042B06D1F5
:104310007B689B681B6843F698229A6310E07B6871
:104320009B89082B06D17B689B681B6843F6982203
:10433000DA6305E07B689B681B6843F698221A6481
:104340007B689B8A002B05D17B681B691B68002258
:104350005A631AE07B689B8A042B05D17B681B6932
:104360001B6800229A6310E07B689B8A082B05D1AA
:104370007B681B691B680022DA6306E07B681B69A7
:104380001B6800221A6400E000BF0837BD4680BDEC
:1043900080B582B000AF78607B689B7D3A2B00F0DF
:1043A000A2807B683A229A757B680022DA757B6866
:1043B0001B68184611F041F97B681B6842F2D00275
:1043C0005A607B681B6800229A607B681B684FF408
:1043D000E162DA607B681B6800221A617B681B68F7
:1043E00000229A617B681B68184611F0D7F80346D3
:1043F000002B14BF01230023DBB2002B01D002F0FD
:10440000ADF97B689B88002B06D17B681B681B6815
:104410004FF448725A631BE07B689B88042B06D1DB
:104420007B681B681B684FF448729A6310E07B68D6
:104430009B88082B06D17B681B681B684FF4487269
:10444000DA6305E07B681B681B684FF448721A64E6
:104450007B689B89002B05D17B689B681B680022C9
:104460005A6318E07B689B89042B05D17B689B68A5
:104470001B6800229A630EE07B689B89082B05D19C
:104480007B689B681B680022DA6304E07B689B689A
:104490001B6800221A647B689B8A002B06D17B680C
:1044A0001B691B684FF448725A631DE07B689B8A46
:1044B000042B06D17B681B691B684FF448729A6312
:1044C00012E07B689B8A082B06D17B681B691B68FE
:1044D0004FF44872DA6307E07B681B691B684FF48E
:1044E00048721A6400E000BF0837BD4680BD80B541
:1044F00082B000AF78607B689B7D3B2B00F09E8094
:104500007B683B229A757B680022DA757B681B69A1
:10451000184611F092F87B681B6942F2D0025A608B
:104520007B681B6900229A607B681B6942F6E06227
:10453000DA607B681B6900221A617B681B690022B4
:104540009A617B681B69184611F028F80346002B16
:1045500014BF01230023DBB2002B01D002F0FEF8D0
:104560007B689B88002B05D17B681B681B68002239
:104570005A6318E07B689B88042B05D17B681B6815
:104580001B6800229A630EE07B689B88082B05D18C
:104590007B681B681B680022DA6304E07B681B6889
:1045A0001B6800221A647B689B89002B06D17B68FC
:1045B0009B681B6842F228325A631BE07B689B8928
:1045C000042B06D17B689B681B6842F228329A63F1
:1045D00010E07B689B89082B06D17B689B681B6871
:1045E00042F22832DA6305E07B689B681B6842F27E
:1045F00028321A647B689B8A002B05D17B681B6973
:104600001B6800225A631AE07B689B8A042B05D141
:104610007B681B691B6800229A6310E07B689B8A99
:10462000082B05D17B681B691B680022DA6306E052
:104630007B681B691B6800221A6400E000BF083712
:10464000BD4680BD80B582B000AF78607B689B7D41
:104650003D2B00F0A2807B683D229A757B6800228A
:10466000DA757B681B69184610F0E7FF7B681B69E9
:1046700042F2D0025A607B681B6900229A607B6814
:104680001B6942F6E062DA607B681B6900221A61EE
:104690007B681B6900229A617B681B69184610F0D1
:1046A0007DFF0346002B14BF01230023DBB2002B48
:1046B00001D002F053F87B689B88002B05D17B6802
:1046C0001B681B6800225A6318E07B689B88042BD8
:1046D00005D17B681B681B6800229A630EE07B682B
:1046E0009B88082B05D17B681B681B680022DA6356
:1046F00004E07B681B681B6800221A647B689B8946
:10470000002B06D17B689B681B6842F228325A63F3
:104710001BE07B689B89042B06D17B689B681B6828
:1047200042F228329A6310E07B689B89082B06D1FD
:104730007B689B681B6842F22832DA6305E07B687D
:104740009B681B6842F228321A647B689B8A002BA4
:1047500006D17B681B691B6842F228325A631DE050
:104760007B689B8A042B06D17B681B691B6842F21D
:1047700028329A6312E07B689B8A082B06D17B68FB
:104780001B691B6842F22832DA6307E07B681B6909
:104790001B6842F228321A6400E000BF0837BD46A9
:1047A00080BD80B582B000AF78607B689B7D3E2B7A
:1047B00000F0A2807B683E229A757B680022DA7541
:1047C0007B681B68184610F038FF7B681B6842F254
:1047D000D0025A607B681B6800229A607B681B6865
:1047E0004FF47A62DA607B681B6800221A617B688A
:1047F0001B6800229A617B681B68184610F0CEFE89
:104800000346002B14BF01230023DBB2002B01D091
:1048100001F0A4FF7B689B88002B06D17B681B6896
:104820001B684FF47A725A631BE07B689B88042BE9
:1048300006D17B681B681B684FF47A729A6310E09C
:104840007B689B88082B06D17B681B681B684FF42C
:104850007A72DA6305E07B681B681B684FF47A7232
:104860001A647B689B89002B06D17B689B681B6858
:104870004FF47A725A631BE07B689B89042B06D144
:104880007B689B681B684FF47A729A6310E07B68C0
:104890009B89082B06D17B689B681B684FF47A7252
:1048A000DA6305E07B689B681B684FF47A721A64D0
:1048B0007B689B8A002B05D17B681B691B680022E3
:1048C0005A631AE07B689B8A042B05D17B681B69BD
:1048D0001B6800229A6310E07B689B8A082B05D135
:1048E0007B681B691B680022DA6306E07B681B6932
:1048F0001B6800221A6400E000BF0837BD4680BD77
:1049000080B582B000AF786039607B68012B07D139
:104910003B684FF6FF72934202D10948FEF7B4FCA0
:104920007B68002B07D13B684FF6FF72934202D1A0
:104930000348FEF7BBFC00BF0837BD4680BD00BF83
:104940006003002080B500AF4FF6FF710120FFF734
:10495000D7FF80BD80B500AF4FF6FF710020FFF795
:10496000CFFF80BD80B483B000AF78607B68032246
:104970001A737B684FF47A72DA817B6800221A829C
:104980007B6840F26C725A827B6840F698029A8289
:104990007B6840F6AC52DA827B6818460C37BD461D
:1049A0005DF8047B704780B483B000AF78607B68AB
:1049B00018460C37BD465DF8047B704780B582B061
:1049C00000AF78600B467B807B8818460AF034F98C
:1049D00000BF0837BD4680BD80B584B000AFF86029
:1049E000B96011461A460B46FB8013467B717A79F3
:1049F000FB881946B8680CF00DF800BF1037BD46AB
:104A000080BD000080B584B000AFF860B9603B6045
:104A10001346FB80FB68BA681A60FB68FA889A80C4
:104A2000FB683A689A6020480DF085F9FB6801221E
:104A30001A761E48FDF7CCFE0346002B0CBF01235F
:104A40000023DBB2002B01D0302329E0F86800F00E
:104A50002FF80346312B14BF01230023DBB2002BB8
:104A600002D0FB6800221A76F86800F08FF803463F
:104A7000302B14BF01230023DBB2002B02D0FB68D4
:104A800000221A76F86800F015F90346012B0CBFD6
:104A900001230023DBB2002B01D0302300E03223BE
:104AA00018461037BD4680BD40050020CC020020CE
:104AB00080B584B000AF78602F480DF03CF92F48E6
:104AC000FDF770FE0346002B0CBF01230023DBB271
:104AD000002B41D00023FB7333E07B6819687B68AF
:104AE0009A8801237868FFF777FF7B68DB8919468E
:104AF0007868FFF763FF20480DF01DF9786800F033
:104B0000B3F80346002B05D01D491E4801F06CFF89
:104B100031232DE07B6819687B689A8800237868C8
:104B2000FFF75AFF14480DF006F97B68DB89194638
:104B30007868FFF743FF10480DF0FDF8FB7B013369
:104B4000FB737B681B7BFA7B9A42C6D30E490D48E8
:104B500001F04AFF32230BE07B6819687B689A8872
:104B600001237868FFF738FF03480DF0E4F831239C
:104B700018461037BD4680BD40050020CC020020FD
:104B800090D10108200E0020A0D1010880B584B08A
:104B900000AF78602F480DF0CEF82F48FDF702FEE9
:104BA0000346002B0CBF01230023DBB2002B41D0B6
:104BB0000023FB7333E07B6819687B689A880023C5
:104BC0007868FFF709FF7B68DB8919467868FFF78B
:104BD000F5FE20480DF0AFF8786800F06BF803465A
:104BE000002B05D01D491E4801F0FEFE30232DE0AC
:104BF0007B6819687B689A8801237868FFF7ECFE68
:104C000014480DF098F87B68DB8919467868FFF73F
:104C1000D5FE10480DF08FF8FB7B0133FB737B68EA
:104C20001B7BFA7B9A42C6D30E490D4801F0DCFE8D
:104C300032230BE07B6819687B689A8800237868C8
:104C4000FFF7CAFE03480DF076F8302318461037F8
:104C5000BD4680BD40050020CC020020C0D1010827
:104C6000200E0020D0D1010880B483B000AF78605E
:104C70007B689B681B8807EE903AF8EE677A9FED99
:104C80000C7A27EE877A7B685B8A07EE903AF8EE1B
:104C9000677AB4EEE77AF1EE10FA01D5012300E06D
:104CA000002318460C37BD465DF8047B704700BFF3
:104CB00000404E3F80B483B000AF78607B689B6853
:104CC0001B8807EE903AF8EE677A9FED0C7A27EE94
:104CD000877A7B689B8A07EE903AF8EE677AB4EEA3
:104CE000E77AF1EE10FA01DD012300E00023184617
:104CF0000C37BD465DF8047B704700BF00404E3F57
:104D000080B582B000AF786039607B68012B07D135
:104D10003B684FF6FF72934202D10948FFF722FE2B
:104D20007B68002B07D13B684FF6FF72934202D19C
:104D30000348FFF738FE00BF0837BD4680BD00BFFF
:104D40008003002080B500AF4FF6FF710120FFF710
:104D5000D7FF80BD80B500AF4FF6FF710020FFF791
:104D6000CFFF80BD80B400AFBFF34F8F00BF064BB5
:104D7000DB6803F4E0620449044B1343CB60BFF3E8
:104D80004F8F00BF00BFFDE700ED00E00400FA0513
:104D90002DE9F04387B006AF09F0F0FE00F0D8FB34
:104DA00001F028FB01F0A0FA01F014FA00F03CFE3B
:104DB00000F048FC00F07CFD00F072FE00F010FDF9
:104DC00000F042FD01F034FA01F060FA01F0A6F9BA
:104DD00000F04CFF01F052F801F0CEF900F09CFD1C
:104DE00000F09AFE00F0D0FF01F0F8F800F0B4FDFA
:104DF00016F0D4FC01F01AF901F040F901F066F95F
:104E000001F08EFC0821B34810F05AFD0C21B14886
:104E100010F056FD0021B04810F052FD0421AE48BC
:104E200010F04EFDAD4810F05DFC0021AB4810F0D5
:104E30000FFE0021AA4810F043FD0421A84810F0FD
:104E40003FFD0821A64810F03BFD0722A549A648D2
:104E500009F05AFF38200AF054FC27200AF043FCDE
:104E600001220121A1480BF0D5FD0A2009F0E4FE42
:104E7000002201219D480BF0CDFD0A2009F0DCFE47
:104E80000122012199480BF0C5FD322009F0D4FE22
:104E9000974B1E88974BB3F800C0974B1B88974AD7
:104EA00012889749098897480088974C2488974D1D
:104EB0002D88059504940390029101920093634616
:104EC000324693499348FCF729FE93480CF033FF90
:104ED0004FF4FA7009F0B0FE8F480CF02CFF4FF43D
:104EE000FA7009F0A9FE8D498D48FDF74FFD8D49F7
:104EF0008D4809F0E6FB88480CF01DFF89498B4876
:104F000009F0DFFB84480CF016FF84498848FDF760
:104F1000FBFD81480CF00FFF8049864804F042FBFE
:104F20007D480CF008FF4FF480630293824B01939D
:104F30004FF4005300936D4B4FF480526B497F4800
:104F400004F085F808230293654B01930423009332
:104F5000634B002262497A48FEF7B4F96E480CF0C0
:104F6000EAFE784B4FF4007277497848FFF74AFD24
:104F700069480CF0E0FE764B00935A4B00225749EB
:104F80007448FDF74DFA64480CF0D5FE724B03935C
:104F90004FF4806302936C4B01934FF400630093D2
:104FA000654B4FF4004264496C4804F0B6F96C4B11
:104FB00003936C4B02936C4B01936C4B00936C4BC3
:104FC0006C4A6D496D4804F062FF53480CF0B3FE23
:104FD0006B4801F03FFD6B4B1A883E4B1B68DA6350
:104FE0003C4B1B6800221A643B4B1B684FF49672C3
:104FF0009A6349480CF09FFE00224FF400414E484E
:105000000BF008FD642009F017FE43480CF093FEF6
:1050100000225D495D480FF0E5FB5B4BDB78172B09
:105020001ED05B4B01221A70594B3B225A70584BD1
:1050300000229A70544B07221A70534B09225A705F
:10504000514B14229A70504B1722DA7000225049AB
:105050004E480FF04BFA00224B494C480FF03EFBF4
:105060002D480CF068FE464801F018FD3948FCF761
:10507000CFFF03461A46474B1A7001213548FDF70A
:1050800021FA03461A46444B1A70274809F010FCCF
:10509000F0EE407A414BC3ED007A244809F008FC59
:1050A000F0EE407A3E4BC3ED007A1D48FDF77AFBE7
:1050B0000346002B0CBF01230023DBB2002B00F0C2
:1050C000B48015480CF037FE1548FDF7AFFBF0EE45
:1050D000407A67E07C0600200C070020C406002010
:1050E00054070020000E00209C0300200004024012
:1050F000080000200A0000200C0000200E00002004
:1051000010000020120000201400002016000020D3
:105110006C050020C00100204005002098040020FC
:10512000CC020020EC040020F42400200025002004
:105130004C03002050110020000C024018110020E8
:1051400060030020080E00200010024080030020B1
:10515000020E0020800200202E11002030110020BD
:105160002C1400202C1600202C1800202C1A0020B3
:10517000F00B0020900B0020440900202C1C002084
:10518000200E002018000020D00D00204C0500202B
:10519000D40D00201C0E00201D0E0020140E002037
:1051A000180E0020F5EE407AF1EE10FA0CBF012344
:1051B0000023DBB2002B02D0BD4802F055FEBC48F4
:1051C00002F0E4FCBA4801F0DCFC0346002B0CBF03
:1051D00001230023DBB2002B27D0B648FDF7C8F827
:1051E000B54804F007F9B5480CF0A5FDB449B0483E
:1051F00001F0FAFBAE4B93F8E6323A2B15D0AC4BEC
:1052000093F8E6323C2B10D0A94B93F8E6323D2BB5
:105210000BD0A74B93F8E632362B06D0A44B3B229B
:1052200083F8E622A748FEF7A7FEA74809F040FB4F
:10523000F0EE407AA54BC3ED007AA54809F038FBA3
:10524000F0EE407AA34BC3ED007A0022A249A348B6
:105250000FF0E6F90022A249A0480FF0C3FA9748E0
:105260000CF069FD09F0DCFC0246914B1B6BD21A75
:105270008F4BDB6A9A428CBF01230023DBB2002BE9
:1052800025D009F0CDFC0346894A13639548FBF706
:10529000C9FE874801F004FE854801F00DFF8448EF
:1052A00001F0C2FC824802F077F8814802F0ACF9C4
:1052B0007F4802F0D3FB7E4802F028FA7C4802F0D7
:1052C0009BFA7B4802F0FEFA794802F053FB09F0A2
:1052D000A7FC0246844B5B68D21A834B1B689A4238
:1052E0008CBF01230023DBB2002B00F0968009F075
:1052F00097FC03467C4A536070480CF01CFD7A48CA
:10530000FDF793FE55EC104B7648FCF72FFB53EC62
:10531000102B20462946FAF7D9FF02460B461446C1
:105320001D467048FCF746FB53EC102B20462946DF
:10533000FAF7CCFF02460B4614461D466948FCF7B7
:105340005DFB53EC102B20462946FAF7BFFF0246BF
:105350000B4643EC172BB0EE470AF0EE670A6248A3
:10536000FDF7A2FE6048FDF760FEB0EE407AF0EE79
:10537000607A5E4B83ED007B5B48FDF76BFE55EC7E
:10538000104B5848FCF7A6FB59EC108B5548FCF71E
:1053900059FB53EC102B40464946FAF795FF02465D
:1053A0000B4620462946FAF791FF02460B4643EC8E
:1053B000172BB0EE470AF0EE670A4B48FDF786FE62
:1053C0004948FDF747FEB0EE407AF0EE607A484B70
:1053D00083ED007B4448FDF752FE55EC104B4148ED
:1053E000FCF754FB53EC102B20462946FAF76EFFCE
:1053F00002460B4643EC172BB0EE470AF0EE670A65
:105400003948FDF775FE3848FDF739FEB0EE407AB1
:10541000F0EE607A374B83ED007B28480CF08BFC74
:105420003548FDF7BFF90346012B0CBF01230023CC
:10543000DBB2002B3FF41AAE304BDB78012B23D1CB
:105440002E4B00221A712D4BDB682C4AD28819464C
:105450002A4807F087FA294B01221A71274B0022AC
:10546000DA70264BDB69254A51694FF40072184601
:1054700011F0FAFB214B5B6A1B681A681F4B5B6AD1
:105480001B6822F008021A6001210A48FDF71AF889
:105490000346432B14BF01230023DBB2002B02D0B1
:1054A000054803F0A7FF024801F06BFB28E000BFAE
:1054B000200E002080020020301100204005002036
:1054C000ECD1010860030020F4240020140E002019
:1054D00000250020180E0020D40D00204C050020CF
:1054E000D00D0020C00100204C030020E80D00205A
:1054F000F00D0020F80D0020CC0200202C1C002014
:105500000346002B0CBF01230023DBB2002B08D085
:105510000B4803F06FFF0B48FCF72AFF0A48FEF721
:105520002BFD802109480BF05DFA0346002B0CBFD0
:1055300001230023DBB2002B3FF498ADFFF712FCF0
:10554000301100208002002060030020000C024087
:1055500080B594B000AF07F11C0334220021184637
:1055600017F08AF907F1080300221A605A609A605E
:10557000DA601A6100237B60304B1B6C2F4A43F0CA
:10558000805313642D4B1B6C03F080537B607B684E
:1055900000233B602A4B1B68294A43F440431360B5
:1055A000274B1B6803F440433B603B680D23FB61C2
:1055B0004FF480333B6201237B6201233B63022370
:1055C0007B634FF48003BB631923FB634FF4A87321
:1055D0003B6402237B640723BB640223FB6407F163
:1055E0001C0318460EF06EFC0346002B14BF01236B
:1055F0000023DBB2002B01D001F0B0F80F23BB6019
:105600000223FB6000233B614FF4A0537B614FF406
:105610008053BB6107F10803052118460DF064FEB5
:105620000346002B14BF01230023DBB2002B01D063
:1056300001F094F800BF5037BD4680BD00380240ED
:105640000070004080B584B000AF3B4600221A6075
:105650005A609A60DA605F4B5F4A1A605D4B4FF4A4
:1056600080325A605B4B00229A605A4B01221A61C9
:10567000584B01221A76574B002283F82020554BB5
:105680000022DA62534B554A9A62524B0022DA608A
:10569000504B0722DA614F4B012283F830204D4BEB
:1056A00000225A614B4809F0EBFA0346002B14BF65
:1056B00001230023DBB2002B01D001F04FF80A23B5
:1056C0003B6001237B600423BB603B461946414895
:1056D00009F03EFC0346002B14BF01230023DBB27C
:1056E000002B01D001F03AF80B233B6002237B60D2
:1056F0003B461946374809F02BFC0346002B14BFE4
:1057000001230023DBB2002B01D001F027F80C238A
:105710003B6003237B603B4619462E4809F018FC8A
:105720000346002B14BF01230023DBB2002B01D062
:1057300001F014F80D233B6004237B603B461946BF
:10574000244809F005FC0346002B14BF0123002365
:10575000DBB2002B01D001F001F80E233B600523E2
:105760007B603B4619461B4809F0F2FB0346002BC1
:1057700014BF01230023DBB2002B01D000F0EEFFA9
:1057800011233B6006237B603B461946114809F014
:10579000DFFB0346002B14BF01230023DBB2002BE9
:1057A00001D000F0DBFF12233B6007237B603B4608
:1057B0001946084809F0CCFB0346002B14BF01230F
:1057C0000023DBB2002B01D000F0C8FF00BF103770
:1057D000BD4680BD9C030020002001400100000F59
:1057E00080B500AF154B164A1A60144B154A5A6023
:1057F000124B00229A60114B0022DA600F4B4FF4DB
:1058000080421A610D4B00225A610C4B00229A61B2
:105810000A4B0022DA61094B00221A6207480BF09A
:105820002BF90346002B14BF01230023DBB2002B0E
:1058300001D000F093FF00BF80BD00BF44040020F2
:1058400000540040801A060080B500AF154B164A80
:105850001A60144B154A5A60124B00229A60114B81
:105860000022DA600F4B4FF480421A610D4B002288
:105870005A610C4B00229A610A4B0022DA61094BF3
:1058800000221A6207480BF0F7F80346002B14BFFA
:1058900001230023DBB2002B01D000F05FFF00BF2B
:1058A00080BD00BF9804002000580040801A060008
:1058B00080B500AF154B164A1A60144B154A5A6052
:1058C000124B00229A60114B9C22DA600F4B4FF46E
:1058D00080421A610D4B00225A610C4B00229A61E2
:1058E0000A4B0022DA61094B00221A6207480BF0CA
:1058F000C3F80346002B14BF01230023DBB2002BA7
:1059000001D000F02BFF00BF80BD00BFEC040020E1
:10591000005C0040801A060080B500AF0C4B0D4AB9
:105920001A600B4B04225A60094B40F6B8329A6059
:1059300007480CF0BEF90346002B14BF01230023D7
:10594000DBB2002B01D000F009FF00BF80BD00BF1B
:10595000400500200030004080B586B000AF3B1D00
:1059600000221A605A609A60DA601A6100233B6074
:105970002B4B2C4A1A602A4B00225A60284B7F225C
:105980009A60274BFF22DA60254B00221A61244BD4
:1059900000225A61224B00229A6121480EF030FD0C
:1059A0000346002B14BF01230023DBB2002B01D0E0
:1059B00000F0D4FE01233B7138237B711E23BB71A1
:1059C00000233B6100237B613B1D002219461448E4
:1059D0000EF08CFD0346002B14BF01230023DBB225
:1059E000002B01D000F0BAFE07233B7009237B7027
:1059F0001823BB701723FB703B460022194608484A
:105A00000EF06CFE0346002B14BF01230023DBB213
:105A1000002B01D000F0A2FE00BF1837BD4680BDAC
:105A20004C0500200028004080B500AF1A4B1B4AEF
:105A30001A60194B4FF482725A60174B00229A6019
:105A4000154B0022DA60144B00221A61124B00221F
:105A50005A61114B4FF480229A610F4B3022DA6168
:105A60000D4B00221A620C4B00225A620A4B002294
:105A70009A62094B0A22DA6207480EF0BFFF03461A
:105A8000002B14BF01230023DBB2002B01D000F058
:105A900065FE00BF80BD00BF6C05002000300140E6
:105AA00080B500AF1A4B1B4A1A60194B4FF4827233
:105AB0005A60174B00229A60154B0022DA60144B93
:105AC00000221A61124B00225A61114B4FF40072EE
:105AD0009A610F4B0022DA610D4B00221A620C4BC7
