:020000040800F2
:1000000000000220B1CB0008C9C30008CFC300081C
:10001000D5C30008DBC30008E1C3000800000000EE
:10002000000000000000000000000000E7C300081E
:10003000F5C300080000000003C4000811C4000854
:1000400001CC000801CC000801CC000801CC00085C
:1000500001CC000801CC000801CC00081DC4000838
:100060002BC4000801CC000801CC000839C40008EA
:100070004DC4000861C4000875C4000889C40008A4
:100080009DC40008B1C4000801CC000801CC0008E0
:1000900001CC000801CC000801CC0008C5C4000850
:1000A00001CC0008DDC4000801CC000801CC000828
:1000B000F9C4000801CC000801CC000801CC0008FC
:1000C00001CC000801CC000801CC000801CC0008DC
:1000D00001CC00080DC5000821C5000835C5000881
:1000E00049C5000801CC000801CC000801CC00087B
:1000F00001CC000801CC000801CC000861C5000853
:1001000001CC000801CC000801CC000801CC00089B
:1001100075C5000889C5000801CC000801CC00089D
:100120009DC50008B1C50008C5C5000801CC000880
:1001300001CC0008000000000000000001CC000815
:1001400001CC000801CC000801CC0008D9C500088A
:1001500001CC000801CC0008EDC5000801CC000866
:1001600001CC000801CC000801CC000801CC00083B
:1001700001CC000801CC000801CC00080000000000
:100180000000000001CC000800000000000000009A
:1001900001CC0008000000000000000001CC0008B5
:1001A00000000000000000000000000001CC00087A
:1001B00001CC000801CC000801CC000801CC0008EB
:0401C00001CC000866
:1001D00010B5054C237833B9044B13B10448AFF381
:1001E00000800123237010BD980100200000000052
:1001F00028AF010808B5034B1BB103490348AFF30F
:10020000008008BD000000009C01002028AF01080C
:10021000034613F8012B002AFBD1181A0138704746
:1002200001F0FF01102A2BDB10F0070F08D010F8A7
:10023000013B013A8B422DD010F0070F42B3F6D1AB
:10024000F0B441EA012141EA014122F007047FF0C4
:1002500000070023F0E80256083C85EA010586EA1B
:10026000010685FA47F5A3FA87F586FA47F6A5FA57
:1002700087F68EB9EED1F0BC01F0FF0102F0070263
:1002800032B110F8013B013A83EA010313B1F8D10E
:100290000020704701387047002D06BF35460338EF
:1002A000073815F0010F07D1013015F4807F02BF28
:1002B000013015F4C03F0130F0BC0138704700BF79
:1002C00081F0004102E000BF83F0004330B54FEA07
:1002D00041044FEA430594EA050F08BF90EA020F74
:1002E0001FBF54EA000C55EA020C7FEA645C7FEA07
:1002F000655C00F0E2804FEA5454D4EB5555B8BF2A
:100300006D420CDD2C4480EA020281EA030382EA9A
:10031000000083EA010180EA020281EA0303362D2C
:1003200088BF30BD11F0004F4FEA01314FF4801CFF
:100330004CEA113102D0404261EB410113F0004F11
:100340004FEA03334CEA133302D0524263EB4303C8
:1003500094EA050F00F0A780A4F10104D5F1200E66
:100360000DDB02FA0EFC22FA05F2801841F10001C1
:1003700003FA0EF2801843FA05F359410EE0A5F195
:1003800020050EF1200E012A03FA0EFC28BF4CF0C6
:10039000020C43FA05F3C01851EBE37101F000457C
:1003A00007D54FF0000EDCF1000C7EEB00006EEB89
:1003B0000101B1F5801F1BD3B1F5001F0CD3490813
:1003C0005FEA30004FEA3C0C04F101044FEA44526A
:1003D00012F5800F80F09A80BCF1004F08BF5FEAF1
:1003E000500C50F1000041EB045141EA050130BDD1
:1003F0005FEA4C0C404141EB0101013C28BFB1F5E3
:10040000801FE9D291F0000F04BF01460020B1FA2D
:1004100081F308BF2033A3F10B03B3F120020CDA00
:100420000C3208DD02F1140CC2F10C0201FA0CF0DE
:1004300021FA02F10CE002F11402D8BFC2F1200C43
:1004400001FA02F120FA0CFCDCBF41EA0C019040F9
:10045000E41AA2BF01EB0451294330BD6FEA040442
:100460001F3C1CDA0C340EDC04F11404C4F120022D
:1004700020FA04F001FA02F340EA030021FA04F33F
:1004800045EA030130BDC4F10C04C4F1200220FA96
:1004900002F001FA04F340EA0300294630BD21FAD4
:1004A00004F0294630BD94F0000F83F4801306BF9A
:1004B00081F480110134013D4EE77FEA645C18BF8E
:1004C0007FEA655C29D094EA050F08BF90EA020F25
:1004D00005D054EA000C04BF1946104630BD91EA1D
:1004E000030F1EBF0021002030BD5FEA545C05D120
:1004F0004000494128BF41F0004130BD14F580045F
:100500003CBF01F5801130BD01F0004545F0FE41D2
:1005100041F470014FF0000030BD7FEA645C1ABF07
:10052000194610467FEA655C1CBF0B46024650EA3E
:10053000013406BF52EA033591EA030F41F400216A
:1005400030BD00BF90F0000F04BF0021704730B5F0
:100550004FF4806404F132044FF000054FF00001C5
:1005600050E700BF90F0000F04BF0021704730B586
:100570004FF4806404F1320410F0004548BF40425B
:100580004FF000013EE700BF42004FEAE2014FEAB0
:1005900031014FEA02701FBF12F07F4393F07F4F8B
:1005A00081F06051704732F07F4208BF704793F08E
:1005B0007F4F04BF41F40021704730B54FF46074A1
:1005C00001F0004521F000411CE700BF50EA0102A4
:1005D00008BF704730B54FF000050AE050EA01024D
:1005E00008BF704730B511F0004502D5404261EBBD
:1005F00041014FF4806404F132045FEA915C3FF4FE
:10060000D8AE4FF003025FEADC0C18BF03325FEA9A
:10061000DC0C18BF033202EBDC02C2F1200300FA4B
:1006200003FC20FA02F001FA03FE40EA0E0021FA70
:1006300002F11444BDE600BF70B54FF0FF0C4CF45E
:10064000E06C1CEA11541DBF1CEA135594EA0C0F10
:1006500095EA0C0F00F0DEF82C4481EA030621EA4B
:100660004C5123EA4C5350EA013518BF52EA033586
:1006700041F4801143F4801338D0A0FB02CE4FF038
:100680000005E1FB02E506F00042E0FB03E54FF068
:100690000006E1FB03569CF0000F18BF4EF0010E60
:1006A000A4F1FF04B6F5007F64F5407404D25FEA5C
:1006B0004E0E6D4146EB060642EAC62141EA55510F
:1006C0004FEAC52040EA5E504FEACE2EB4F1FD0C51
:1006D00088BFBCF5E06F1ED8BEF1004F08BF5FEACF
:1006E000500E50F1000041EB045170BD06F0004681
:1006F00046EA010140EA020081EA0301B4EB5C042E
:10070000C2BFD4EB0C0541EA045170BD41F4801125
:100710004FF0000E013C00F3AB8014F1360FDEBF4A
:10072000002001F0004170BDC4F10004203C35DA26
:100730000C341BDC04F11404C4F1200500FA05F3A9
:1007400020FA04F001FA05F240EA020001F000424A
:1007500021F0004110EBD37021FA04F642EB0601C0
:100760005EEA430E08BF20EAD37070BDC4F10C04EA
:10077000C4F1200500FA04F320FA05F001FA04F2AE
:1007800040EA020001F0004110EBD37041F100019A
:100790005EEA430E08BF20EAD37070BDC4F12005A5
:1007A00000FA05F24EEA020E20FA04F301FA05F20D
:1007B00043EA020321FA04F001F0004121FA04F2B5
:1007C00020EA020000EBD3705EEA430E08BF20EA85
:1007D000D37070BD94F0000F0FD101F000464000BF
:1007E00041EB010111F4801F08BF013CF7D041EA41
:1007F000060195F0000F18BF704703F00046520045
:1008000043EB030313F4801F08BF013DF7D043EA15
:100810000603704794EA0C0F0CEA135518BF95EACB
:100820000C0F0CD050EA410618BF52EA4306D1D152
:1008300081EA030101F000414FF0000070BD50EA71
:10084000410606BF1046194652EA430619D094EAFB
:100850000C0F02D150EA013613D195EA0C0F05D1E5
:1008600052EA03361CBF104619460AD181EA030139
:1008700001F0004141F0FE4141F470014FF00000F1
:1008800070BD41F0FE4141F4780170BD70B54FF08C
:10089000FF0C4CF4E06C1CEA11541DBF1CEA13550C
:1008A00094EA0C0F95EA0C0F00F0A7F8A4EB0504EE
:1008B00081EA030E52EA03354FEA013100F08880E5
:1008C0004FEA03334FF0805545EA131343EA1263AE
:1008D0004FEA022245EA111545EA10654FEA002663
:1008E0000EF000419D4208BF964244F1FD0404F51C
:1008F000407402D25B084FEA3202B61A65EB030578
:100900005B084FEA32024FF480104FF4002CB6EB34
:10091000020E75EB030E22BFB61A754640EA0C00B4
:100920005B084FEA3202B6EB020E75EB030E22BFF4
:10093000B61A754640EA5C005B084FEA3202B6EB35
:10094000020E75EB030E22BFB61A754640EA9C00F4
:100950005B084FEA3202B6EB020E75EB030E22BFC4
:10096000B61A754640EADC0055EA060E18D04FEA82
:10097000051545EA16754FEA06164FEAC30343EA22
:1009800052734FEAC2025FEA1C1CC0D111F4801FEF
:100990000BD141EA00014FF000004FF0004CB6E7E8
:1009A00011F4801F04BF01430020B4F1FD0C88BF87
:1009B000BCF5E06F3FF6AFAEB5EB030C04BFB6EB92
:1009C000020C5FEA500C50F1000041EB045170BD85
:1009D0000EF0004E4EEA113114EB5C04C2BFD4EBB2
:1009E0000C0541EA045170BD41F480114FF0000E36
:1009F000013C90E645EA060E8DE60CEA135594EAB2
:100A00000C0F08BF95EA0C0F3FF43BAF94EA0C0FB4
:100A10000AD150EA01347FF434AF95EA0C0F7FF429
:100A200025AF104619462CE795EA0C0F06D152EA7D
:100A300003353FF4FDAE1046194622E750EA410661
:100A400018BF52EA43067FF4C5AE50EA41047FF472
:100A50000DAF52EA43057FF4EBAE12E74FF0FF3CD7
:100A600006E000BF4FF0010C02E000BF4FF0010CA8
:100A70004DF804CD4FEA410C7FEA6C5C4FEA430C21
:100A800018BF7FEA6C5C1BD001B050EA410C0CBF70
:100A900052EA430C91EA030F02BF90EA020F0020D2
:100AA000704710F1000F91EA030F58BF994208BF39
:100AB00090422CBFD8176FEAE37040F001007047F6
:100AC0004FEA410C7FEA6C5C02D150EA013C07D14D
:100AD0004FEA430C7FEA6C5CD6D152EA033CD3D098
:100AE0005DF8040B704700BF8446104662468C4692
:100AF0001946634600E000BF01B5FFF7B7FF0028C5
:100B000048BF10F1000F01BD4DF808EDFFF7F4FFED
:100B10000CBF012000205DF808FB00BF4DF808ED78
:100B2000FFF7EAFF34BF012000205DF808FB00BF9B
:100B30004DF808EDFFF7E0FF94BF012000205DF8BD
:100B400008FB00BF4DF808EDFFF7CEFF94BF012072
:100B500000205DF808FB00BF4DF808EDFFF7C4FF6B
:100B600034BF012000205DF808FB00BF4FEA410CB4
:100B70007FEA6C5C02D150EA013C0AD14FEA430C97
:100B80007FEA6C5C02D152EA033C02D14FF00000D4
:100B900070474FF0010070474A0011D212F5001261
:100BA00011D20DD56FF47873B3EB62520ED44FEAC5
:100BB000C12343F0004343EA505323FA02F0704745
:100BC0004FF00000704750EA013002D14FF0FF3083
:100BD00070474FF0000070474FEA4102B2F1E04326
:100BE00024BFB3F5001CDCF1FE5C0DD901F0004C14
:100BF0004FEAC0024CEA5070B2F1004F40EB830064
:100C000008BF20F00100704711F0804F21D113F18F
:100C10003872BCBF01F00040704741F480114FEAC8
:100C20005252C2F11802C2F1200C10FA0CF320FA51
:100C300002F018BF40F001004FEAC1234FEAD3236E
:100C400003FA0CFC40EA0C0023FA02F34FEA4303D8
:100C5000CCE77FEA625307D150EA01331EBF4FF061
:100C6000FE4040F44000704701F0004040F0FE407C
:100C700040F40000704700BF53B94AB9002908BFCB
:100C800000281CBF4FF0FF314FF0FF3000F0B2B929
:100C9000ADF1080C6DE904CE00F044F8DDF804E095
:100CA000DDE9022304B07047D0B5FFF76DFC0C4BB3
:100CB000002206460F46FFF7BFFCFFF76DFF044614
:100CC000FFF740FC074B0022FFF7B6FC02460B463D
:100CD00030463946FFF7F8FAFFF75EFF2146D0BDF0
:100CE0000000F03D0000F041D0B50C4B002206465C
:100CF0000F46FFF7A1FCFFF74FFF0446FFF722FC6A
:100D0000074B0022FFF798FC02460B463046394657
:100D1000FFF7DAFAFFF740FF2146D0BD0000F03DB3
:100D20000000F0412DE9F047089D04468E46002B57
:100D30004DD18A42944669D9B2FA82F252B101FA8F
:100D400002F3C2F1200120FA01F10CFA02FC41EA9F
:100D5000030E94404FEA1C48210CBEFBF8F61FFA24
:100D60008CF708FB16E341EA034306FB07F19942BF
:100D70000AD91CEB030306F1FF3080F01F81994272
:100D800040F21C81023E63445B1AA4B2B3FBF8F04C
:100D900008FB103344EA034400FB07F7A7420AD9D3
:100DA0001CEB040400F1FF3380F00A81A74240F2FB
:100DB00007816444023840EA0640E41B00261DB166
:100DC000D4400023C5E900433146BDE8F0878B429B
:100DD00009D9002D00F0EF800026C5E9000130465A
:100DE0003146BDE8F087B3FA83F6002E4AD18B4234
:100DF00002D3824200F2F980841A61EB03030120DE
:100E00009E46002DE0D0C5E9004EDDE702B9FFDEC9
:100E1000B2FA82F2002A40F09280A1EB0C014FEA74
:100E20001C471FFA8CFE0126200CB1FBF7F307FBD1
:100E3000131140EA01410EFB03F0884208D91CEB74
:100E4000010103F1FF3802D2884200F2CB80434611
:100E5000091AA4B2B1FBF7F007FB101144EA0144F0
:100E60000EFB00FEA64508D91CEB040400F1FF317F
:100E700002D2A64500F2BB800846A4EB0E0440EA6D
:100E800003409CE7C6F12007B34022FA07FC4CEA76
:100E9000030C20FA07F401FA06F31C43F9404FEA69
:100EA0001C4900FA06F3B1FBF9F8200C1FFA8CFE7E
:100EB00009FB181140EA014108FB0EF0884202FAD2
:100EC00006F20BD91CEB010108F1FF3A80F0888093
:100ED000884240F28580A8F102086144091AA4B250
:100EE000B1FBF9F009FB101144EA014100FB0EFED1
:100EF0008E4508D91CEB010100F1FF346CD28E4500
:100F00006AD90238614440EA0840A0FB0294A1EB90
:100F10000E01A142C846A64656D353D05DB1B3EBED
:100F2000080261EB0E0101FA07F722FA06F3F1401D
:100F30001F43C5E9007100263146BDE8F087C2F1C4
:100F40002003D8400CFA02FC21FA03F3914001433C
:100F50004FEA1C471FFA8CFEB3FBF7F007FB103675
:100F60000B0C43EA064300FB0EF69E4204FA02F421
:100F700008D91CEB030300F1FF382FD29E422DD974
:100F8000023863449B1B89B2B3FBF7F607FB1633A9
:100F900041EA034106FB0EF38B4208D91CEB010129
:100FA00006F1FF3816D28B4214D9023E6144C91AA9
:100FB00046EA004638E72E46284605E70646E3E6B9
:100FC0001846F8E64B45A9D2B9EB020864EB0C0EC3
:100FD0000138A3E74646EAE7204694E74046D1E7D2
:100FE000D0467BE7023B614432E7304609E7644480
:100FF000023842E7704700BF80B483B000AF78602A
:1010000000BF0C37BD465DF8047B704780B483B0E9
:1010100000AF78607B6818460C37BD465DF8047BEE
:10102000704780B483B000AF78607B6818460C3797
:10103000BD465DF8047B704780B582B000AF786034
:10104000786800F02DF9B0EE407AF0EE607A7B68B7
:1010500083ED087B786800F047F9B0EE407AF0EE57
:10106000607A7B6883ED0A7B786800F061F9B0EE06
:10107000407AF0EE607A7B6883ED0C7B786800F054
:101080007BF9B0EE407AF0EE607A7B6883ED0E7B00
:10109000786800F08DF9B0EE407AF0EE607A7B6807
:1010A00083ED107B786800F09FF9B0EE407AF0EEA7
:1010B000607A7B6883ED127B786800F0B1F9B0EE5E
:1010C000407AF0EE607A7B6883ED147B786800F0FC
:1010D000EFF9B0EE407AF0EE607A7B6883ED187B32
:1010E000786800F0C1F9B0EE407AF0EE607A7B6883
:1010F00083ED167B786800F023FAB0EE407AF0EECC
:10110000607A7B6883ED1A7B786800F0F5F9B0EEC1
:10111000407AF0EE607A7B6883ED1C7B00BF083775
:10112000BD4680BD80B588B000AFF8600846114666
:101130001A460346FB720B463B811346FB80BB1DE0
:10114000FB6107F10803BB61FB881B0A9BB21AB263
:10115000FB881B021BB213431BB2FB82FB8AFB8082
:10116000FB7ADB031AB23B891BB213431BB29BB25F
:101170003B813B891B0A9BB21AB23B891B021BB203
:1011800013431BB2BB82BB8A3B81FB689B69184639
:1011900011F07EFCFB6898694FF4FA730222B9697A
:1011A00011F027FDFB689B6993F85130DBB2022BED
:1011B0000CBF01230023DBB2002B00D0F2E7FB7A47
:1011C000002B14D0FB68986942F210730222F9696F
:1011D00011F04BFEFB689B6993F85130DBB2022B98
:1011E0000CBF01230023DBB2002B15D0F2E7FB6814
:1011F00098694FF4FA730222F96911F0FAFCFB685E
:101200009B6993F85130DBB2022B0CBF0123002302
:10121000DBB2002B00D0F2E7FB689B69184611F0A7
:10122000C0FCFB881B0A9BB21AB2FB881B021BB2D4
:1012300013431BB2FB82FB8A18462037BD4680BD94
:1012400080B586B000AF78600B467B8013463B804C
:101250007A884FF6FF7301217868FFF763FF034632
:101260007B613A884FF6FF7301217868FFF75AFFD8
:1012700003463B617A884FF6FF7301217868FFF7D8
:1012800051FF0346FB607B691B04FB60FA683B6906
:101290001343FB60FB6818461837BD4680BD00004D
:1012A00080B584B000AF78604FF6FF73D92201217A
:1012B0007868FFF737FF0346FB81FB891846FFF785
:1012C00041F94FF00002074BFFF7E0FA02460B46E8
:1012D00043EC172BB0EE470AF0EE670A1037BD4615
:1012E00080BD00BF0000594080B584B000AF786079
:1012F0004FF6FF73DA2201217868FFF713FF0346E8
:10130000FB81FB891846FFF71DF94FF00002074BE0
:10131000FFF7BCFA02460B4643EC172BB0EE470A28
:10132000F0EE670A1037BD4680BD00BF000059408F
:1013300080B584B000AF78604FF6FF73DB220121E7
:101340007868FFF7EFFE0346FB81FB891846FFF73D
:10135000F9F84FF00002074BFFF798FA02460B46E8
:1013600043EC172BB0EE470AF0EE670A1037BD4684
:1013700080BD00BF0000594080B584B000AF7860E8
:101380004FF6FF73DD2201217868FFF7CBFE03469D
:10139000FB81FB891846FFF7D5F802460B4643EC64
:1013A000172BB0EE470AF0EE670A1037BD4680BD36
:1013B00080B584B000AF78604FF6FF73DE22012164
:1013C0007868FFF7AFFE0346FB81FB891846FFF7FD
:1013D000B9F802460B4643EC172BB0EE470AF0EE85
:1013E000670A1037BD4680BD80B584B000AF786015
:1013F0004FF6FF73DF2201217868FFF793FE034663
:10140000FB81FB891846FFF79DF802460B4643EC2B
:10141000172BB0EE470AF0EE670A1037BD4680BDC5
:1014200080B584B000AF7860C022B0217868FFF743
:1014300007FFF860F868FFF795F809A3D3E90023E0
:10144000FFF7FAF802460B4643EC172BB0EE470ABB
:10145000F0EE670A1037BD4680BD00BFAFF30080D5
:10146000F168E388B5F8343F80B584B000AF7860A8
:10147000C422B4217868FFF7E3FEF860F868FFF74C
:1014800071F809A3D3E90023FFF7D6F802460B460B
:1014900043EC172BB0EE470AF0EE670A1037BD4653
:1014A00080BD00BFAFF30080F168E388B5F8343F3A
:1014B00080B584B000AF7860C822B8217868FFF7A3
:1014C000BFFEF860F868FFF74DF809A3D3E90023E1
:1014D000FFF7B2F802460B4643EC172BB0EE470A73
:1014E000F0EE670A1037BD4680BD00BFAFF3008045
:1014F000F168E388B5F8343F80B584B000AF786018
:101500004FF6FF73F82201217868FFF70BFE0346C0
:10151000FB81FB891846FFF715F84FF00002074BD7
:10152000FFF7B4F902460B4643EC172BB0EE470A1F
:10153000F0EE670A1037BD4680BD00BF000059407D
:1015400080B584B000AF78604FF6FF73FC220121B4
:101550007868FFF7E7FD0346FB81B7F90E301846C0
:10156000FFF700F802460B4643EC172BB0EE470A94
:10157000F0EE670A1037BD4680BD000080B584B02C
:1015800000AF78604FF6FF73812201217868FFF782
:10159000C9FD0346FB81FB891846FEF7D3FF4FF0D8
:1015A0000002074BFFF772F902460B4643EC172B7C
:1015B000B0EE470AF0EE670A1037BD4680BD00BFA7
:1015C0000000744080B584B000AF78604FF6FF73C0
:1015D000822201217868FFF7A5FD0346FB81FB8984
:1015E0001846FEF7AFFF4FF00002074BFFF74EF92A
:1015F00002460B4643EC172BB0EE470AF0EE670AA3
:101600001037BD4680BD00BF0000744080B584B077
:1016100000AF78604FF6FF73832201217868FFF7EF
:1016200081FD0346FB81FB891846FEF78BFF4FF0D7
:101630000002074BFFF72AF902460B4643EC172B33
:10164000B0EE470AF0EE670A1037BD4680BD00BF16
:101650000000744080B584B000AF78604FF6FF732F
:10166000882201217868FFF75DFD0346FB81FB8935
:101670001846FEF767FF4FF00002074BFFF706F929
:1016800002460B4643EC172BB0EE470AF0EE670A12
:101690001037BD4680BD00BF0000744080B584B0E7
:1016A00000AF78604FF6FF73902201217868FFF752
:1016B00039FD0346FB81FB891846FEF743FF4FF0D7
:1016C0000002074BFFF7E2F802460B4643EC172BEC
:1016D000B0EE470AF0EE670A1037BD4680BD00BF86
:1016E0000000744080B584B000AF78604FF6FF739F
:1016F0008C2201217868FFF715FD0346FB81FB89E9
:101700001846FEF71FFF4FF00002074BFFF7BEF829
:1017100002460B4643EC172BB0EE470AF0EE670A81
:101720001037BD4680BD00BF00007440B0B586B024
:1017300000AFF860B96011461A460B46FB801346AD
:10174000BB80FB6805221A60FB68FA889A80FB68F8
:10175000BA88DA80FB68BA689A61FB683A8D1A81A8
:10176000FB68BA8D5A81FB683A8E9A81FB68BA8E03
:10177000DA81FB683A8F1A82FB68BA8F5A82FB685B
:101780009B8841F28512934205D0FB689B8841F209
:101790006F42934208D15A23FB8241F2D473BB8239
:1017A00041F20C737B8207E0BE23FB8241F2EC33F3
:1017B000BB8241F224337B82FB8A642202FB03F367
:1017C0001846FEF7CFFE04460D46022000F07DF9D4
:1017D00053EC102B20462946FEF72EFF02460B46FF
:1017E00014461D46FB681B89002B02DA03F57F5364
:1017F0003F339B131846FEF7B5FE02460B462046C4
:101800002946FFF743F802460B4610461946FFF7F4
:10181000C3F903463B8247F69A0370220021F86819
:10182000FFF780FC0A200BF081FA45F2AA537F22D1
:101830000021F868FFF776FC012300220021F868F8
:10184000FFF770FC41F23F4305220021F868FFF7E3
:1018500069FC3B8A08220021F868FFF763FCBB8A19
:101860000D220021F868FFF75DFC7B8A0C22002125
:10187000F868FFF757FC4BF26F7375220021F86888
:10188000FFF750FC4DF6FD5376220021F868FFF774
:1018900049FC012373220021F868FFF743FC012370
:1018A00074220021F868FFF73DFC4DF254630722D3
:1018B0000021F868FFF736FC40F661033122002171
:1018C000F868FFF72FFC4CF2684332220021F868D9
:1018D000FFF728FC872333220021F868FFF722FC5A
:1018E00041F22A5334220021F868FFF71BFC41F62D
:1018F0004C5335220021F868FFF714FC41F64C5395
:1019000036220021F868FFF70DFC41F64C533722D0
:101910000021F868FFF706FC40F2EE233822002190
:10192000F868FFF7FFFB40F2EE2339220021F86848
:10193000FFF7F8FB40F2EE233A220021F868FFF7A8
:10194000F1FB002347220021F868FFF7EBFB00239F
:1019500048220021F868FFF7E5FB00234922002117
:10196000F868FFF7DFFB00234A220021F868FFF741
:10197000D9FB00234B220021F868FFF7D3FB00239B
:101980004C220021F868FFF7CDFB00234122002103
:10199000F868FFF7C7FB002342220021F868FFF731
:1019A000C1FB002343220021F868FFF7BBFB0023A3
:1019B00044220021F868FFF7B5FB002345220021EF
:1019C000F868FFF7AFFB002346220021F868FFF715
:1019D000A9FB002351220021F868FFF7A3FB002395
:1019E00052220021F868FFF79DFB002353220021BB
:1019F000F868FFF797FB002354220021F868FFF7EF
:101A000091FB002355220021F868FFF78BFB002390
:101A100056220021F868FFF785FBFB681B896122CD
:101A20000021F868FFF77EFBFB68DB89622200215A
:101A3000F868FFF777FB002363220021F868FFF7BF
:101A400071FB002364220021F868FFF76BFBFB6841
:101A50005B8965220021F868FFF764FBFB681B8A3D
:101A600066220021F868FFF75DFB00236722002152
:101A7000F868FFF757FB002368220021F868FFF79A
:101A800051FBFB689B8969220021F868FFF74AFB3C
:101A9000FB685B8A6A220021F868FFF743FB00239A
:101AA0006B220021F868FFF73DFB00236C22002128
:101AB000F868FFF737FB00237F220021F868FFF763
:101AC00031FB00BF1837BD46B0BD80B582B000AF56
:101AD00078607868FEF746FD02460B4643EC102B13
:101AE00018F070FCB0EE407AF0EE607AB0EE470A83
:101AF000F0EE670A0837BD4680BD000080B582B0B1
:101B000000AF786039607B68012B07D13B684FF6E6
:101B1000FF72934202D10948FFF778FA7B68002BE5
:101B200007D13B684FF6FF72934202D10348FFF79B
:101B300078FA00BF0837BD4680BD00BFB80100205D
:101B400080B500AF4FF6FF710120FFF7D7FF80BDD2
:101B500080B500AF4FF6FF710020FFF7CFFF80BDCB
:101B600080B483B000AF78600B46FB707B68194A85
:101B70001A607B68184A5A607B68184A9A607B68CA
:101B8000174ADA607B68174A1A617B68164A5A61FD
:101B90007B68164A9A617B68154ADA617B68154A48
:101BA0001A627B68144A5A627B684FF000029A629C
:101BB0007B68124ADA627B684FF000029A637B68A6
:101BC000FA7883F844207B6818460C37BD465DF8E8
:101BD000047B70470AD73B40333353405C8F22402D
:101BE000A8C63B40AE470940FA7E2240D7A3E03F5B
:101BF0004C37094052B8AE3F1283E03F9A99193EE4
:101C000080B483B000AF78607B6818460C37BD465F
:101C10005DF8047B7047000080B485B000AF786049
:101C20003F4B93ED007ADFED3F6AC6EE877AB7EE61
:101C3000007A37EEC77AF7EE006AC6EE877A9FED34
:101C40003A7A67EE877AC7ED027A4523FB73D7EDC0
:101C5000027A9FED367AF4EEC77AF1EE10FA0BDDD8
:101C6000D7ED027A9FED327AF4EEC77AF1EE10FAF0
:101C700002D53623FB734CE0D7ED027A9FED2D7A27
:101C8000F4EEC77AF1EE10FA0BDDD7ED027A9FED94
:101C90002A7AF4EEC77AF1EE10FA02D53323FB73F9
:101CA00037E0D7ED027A9FED257AF4EEC77AF1EEB0
:101CB00010FA0BDDD7ED027A9FED217AF4EEC77AA8
:101CC000F1EE10FA02D53223FB7322E0D7ED027A4F
:101CD0009FED1C7AF4EEC77AF1EE10FA0BDDD7ED2A
:101CE000027A9FED197AF4EEC77AF1EE10FA02D576
:101CF0003123FB730DE0D7ED027A9FED137AF4EEFA
:101D0000C77AF1EE10FA02DD4E23FB7301E04523A2
:101D1000FB73FB7B18461437BD465DF8047B7047A8
:101D2000301A00200000804500007A440000704214
:101D300000000C43000016430000874300001644D7
:101D400000003E440080A2440000E14480B584B01D
:101D500000AF78604523FB724FF00003FB6028481A
:101D600000F023FB0346002B0CBF01230023DBB252
:101D7000002B37D07868FFF74FFF0346FB72FB7AE2
:101D8000312B02D11F4BFB6015E0FB7A322B02D1C5
:101D90001D4BFB600FE0FB7A332B03D14FF08443E4
:101DA000FB6008E0FB7A362B02D1184BFB6002E0A7
:101DB0004FF00003FB60124800F01EFBB0EE407ACB
:101DC000D7ED037AF4EEC77AF1EE10FACCBF012317
:101DD0000023DBB2002B0AD0094800F00DFB87ED91
:101DE000030A04E0064800F007FB87ED030AFB68DE
:101DF00007EE903AB0EE670A1037BD4680BD00BFCF
:101E000078020020000050410000A04100007C4208
:101E100080B586B000AF786087ED000A4FF0000310
:101E20007B615D4B3B610023FB81D7ED007AB1EE16
:101E3000087AF4EEC77AF1EE10FA02D5574B3B6000
:101E400015E07868FFF782FFB0EE407AD7ED007AB0
:101E5000F4EEC77AF1EE10FACCBF01230023DBB217
:101E6000002B04D07868FFF771FF87ED000AD7EDEB
:101E7000007AB1EE087AF4EEC77AF1EE10FA19DBC7
:101E8000D7ED007A9FED467AF4EEC77AF1EE10FABC
:101E900010D83868FEF778FB3DA3D3E90023FEF79E
:101EA000F5FC02460B4610461946FEF795FE034622
:101EB0007B612FE0D7ED007A9FED397AF4EEC77A97
:101EC000F1EE10FA22DDD7ED007A9FED367AF4EECE
:101ED000C77AF1EE10FA19D83868FEF755FB4FF0C3
:101EE0000002314BFEF7D2FC02460B461046194663
:101EF0004FF000022D4BFEF7E9F902460B46104663
:101F00001946FEF769FE03467B6103E0234B3B6005
:101F1000274B7B61D7ED047ADFED266A87EEA67A40
:101F2000D7ED057A67EE277AFCEEE77A17EE903A5E
:101F3000FB817B689B8E002B05D17B681B6B1B682C
:101F4000FA895A6318E07B689B8E042B05D17B6865
:101F50001B6B1B68FA899A630EE07B689B8E082BCB
:101F600005D17B681B6B1B68FA89DA6304E07B6828
:101F70001B6B1B68FA891A647B683A689A633B6832
:101F800007EE903AB0EE670A1837BD4680BD00BF35
:101F9000333333333333E33F00C079440000C04070
:101FA00000004C420000A0420000044000005040ED
:101FB000000020410000C84280B483B000AF7860C8
:101FC0007B684FF000029A637B689B8E002B06D1E2
:101FD0007B681B6B1B684FF47A725A631BE07B684B
:101FE0009B8E042B06D17B681B6B1B684FF47A72A7
:101FF0009A6310E07B689B8E082B06D17B681B6B75
:102000001B684FF47A72DA6305E07B681B6B1B6810
:102010004FF47A721A6400BF0C37BD465DF8047B3A
:10202000704780B584B000AFF860B9603B6013467C
:10203000FB80FB68BA681A63FB68FA889A86FB68BB
:102040003A68DA63FB68BA691A64F868FFF7B4FFA4
:1020500000BF1037BD4680BD80B586B000AFF860C8
:102060000B467A60FB720AF055FE78610AF052FE68
:1020700002467B69D31A7A689A428CBF01230023F7
:10208000DBB2002B15D00D480DF09FFEFB6893F8D6
:1020900044301946F86800F013F803461A46FB7AF4
:1020A000934214BF01230023DBB2002BDED00023B8
:1020B00000E0012318461837BD4680BD7804002093
:1020C00080B483B000AF78600B46FB707B6893ED03
:1020D000007A384BD3ED007AB4EEE77AF1EE10FADD
:1020E00001D8412360E07B6893ED027A314BD3ED58
:1020F000007AB4EEE77AF1EE10FA0CD87B6893ED33
:10210000037A2C4BD3ED007AB4EEE77AF1EE10FAB5
:1021100001DB422348E07B6893ED047A254BD3ED45
:10212000007AB4EEE77AF1EE10FA0CD87B6893ED02
:10213000057A204BD3ED007AB4EEE77AF1EE10FA8F
:1021400001DB432330E07B6893ED067A194BD3ED36
:10215000007AB4EEE77AF1EE10FA0CD87B6893EDD2
:10216000077A144BD3ED007AB4EEE77AF1EE10FA69
:1021700001DB442318E07B6893ED087A0D4BD3ED27
:10218000007AB4EEE77AF1EE10FA0CD87B6893EDA2
:10219000097A084BD3ED007AB4EEE77AF1EE10FA43
:1021A00001DB452300E0462318460C37BD465DF8A9
:1021B000047B7047281A002080B582B000AF786099
:1021C00039607B68012B08D13B684FF6FF72934260
:1021D00003D101210848FFF7C3FC7B68002B07D11E
:1021E0003B684FF6FF72934202D10348FFF708FDA8
:1021F00000BF0837BD4680BD3002002080B500AF6B
:102200004FF6FF710120FFF7D7FF80BD80B500AF0B
:102210004FF6FF710020FFF7CFFF80BD80B483B081
:1022200000AF78600B46FB707B6840225A727B6877
:10223000FA781A707B6818460C37BD465DF8047B47
:10224000704780B483B000AF78607B6818460C3765
:10225000BD465DF8047B704780B588B004AF7860F8
:102260000B46FB700023FB737B6858687B681B7808
:1022700099B2642305220DF0DDF87B6858687B680D
:102280001B7899B2FB789AB26423029301230193DD
:1022900007F10F03009301230CF0A6FEFB7B184609
:1022A0001037BD4680BD80B586B004AF78600B4660
:1022B000FB701346BB70786800F02AF87B6858689A
:1022C0007B681B7899B2642305220DF0B3F87B6814
:1022D00058687B681B7899B2FB789AB264230293A2
:1022E00001230193BB1C009301230CF083FD7B6849
:1022F00058687B681B7899B2642305220DF09AF820
:10230000786800F015F800BF0837BD4680BD0000B2
:1023100080B582B000AF78600022012103480CF044
:10232000F3FB00BF0837BD4680BD00BF000C024074
:1023300080B582B000AF78600122012103480CF023
:10234000E3FB00BF0837BD4680BD00BF000C024064
:1023500080B582B000AF78600B46FB70FB78002B35
:102360000AD07B685B7A312219467868FFF79BFFB9
:102370007B6801221A7209E07B685B7A3022194679
:102380007868FFF790FF7B6800221A7200BF083759
:10239000BD4680BD80B483B000AF7860002318468E
:1023A0000C37BD465DF8047B704780B483B000AF46
:1023B0007860002318460C37BD465DF8047B7047F3
:1023C00080B483B000AF7860002318460C37BD4658
:1023D0005DF8047B704780B483B000AF78607B68A1
:1023E0001B7A002B14BF01230023DBB218460C37E5
:1023F000BD465DF8047B704780B584B000AF78605F
:102400000023FB8101223F49786800F081F80346F0
:10241000002B01D0002300E001239AB2FB89134472
:10242000FB814FF480523849786800F071F8034618
:10243000002B01D0002300E002239AB2FB89134451
:10244000FB814FF400423049786800F061F80346A0
:10245000002B01D0002300E004239AB2FB8913442F
:10246000FB814FF400422949786800F051F8034697
:10247000002B01D0002300E008239AB2FB8913440B
:10248000FB81FB89082B30D801A252F823F000BF52
:10249000B5240008BB240008C1240008C724000894
:1024A000CD240008D3240008D9240008DF24000824
:1024B000E52400080023FB811AE00623FB8117E0D6
:1024C0000A23FB8114E00D23FB8111E01023FB8123
:1024D0000EE01423FB810BE01923FB8108E01A2393
:1024E000FB8105E02023FB8102E02023FB8100BF6C
:1024F000FB8907EE903AF8EE677AB0EE670A10377C
:10250000BD4680BD000002400010024000040240B1
:1025100080B584B000AFF860B9601346FB80FB88DB
:102520001946B8680CF0D8FA0346002B14BF0123F3
:102530000023DBB218461037BD4680BD80B584B09D
:1025400000AF786039607B6801229A727B683A68D4
:102550005A607B685B7A19467868FFF77DFE034610
:10256000FB73FB7B312B09D0FB7B302B06D07B68C8
:102570005B7A312219467868FFF795FE7B685B7AB3
:1025800019467868FFF768FE0346FB73FB7B302B28
:1025900003D17B6800221A7202E07B6801221A7262
:1025A00000BF1037BD4680BD80B582B000AF7860F7
:1025B00039607B68012B08D13B684FF6FF7293426C
:1025C00003D1A0210848FFF729FE7B68002B07D123
:1025D0003B684FF6FF72934202D10348FFF731FE8A
:1025E00000BF0837BD4680BD7802002080B500AF2F
:1025F0004FF6FF710120FFF7D7FF80BD80B500AF18
:102600004FF6FF710020FFF7CFFF80BD80B483B08D
:1026100000AF78600B46FB707B6841F288321A602D
:102620007B6800229A727B680822DA727B6810222B
:102630001A737B6818225A737B68FA785A727B681F
:1026400018460C37BD465DF8047B704780B483B0F4
:1026500000AF78607B6818460C37BD465DF8047B98
:10266000704700000000000080B582B000AF7860C5
:1026700039607B683A681A613F21786800F08EF80B
:102680000346692B14BF01230023DBB2002B13D0B8
:102690009FED170B786800F0A6F99FED150B786891
:1026A00000F0B3F99FED120B786800F0C0F96922D1
:1026B0003F21786800F099F80AF02CFB02467B680D
:1026C0005A603F21786800F069F80346692B0CBF17
:1026D00001230023DBB2002B03D07B6801221A7296
:1026E00002E07B6800221A7200BF0837BD4680BD39
:1026F000000000000000F03F80B582B000AF7860BD
:102700000022012103480CF0FFF900BF0837BD4645
:1027100080BD00BF000C024080B582B000AF786081
:102720000122012103480CF0EFF900BF0837BD4634
:1027300080BD00BF000C024080B487B000AFF860DD
:10274000B9607A6000237B617B68DA0F13445B1009
:102750001A467B6993421BDA7B69BA6813441B787B
:10276000FB747A687B69D31A013BBA681A447B69A7
:10277000B9680B4412781A707A687B69D31A013BE6
:10278000BA681344FA7C1A707B6901337B61DBE71A
:1027900000BF1C37BD465DF8047B704780B588B02C
:1027A00004AF78600B46FB700023FB737B681869ED
:1027B0007B685B7A99B2642305220CF03BFE7B6850
:1027C00018697B685B7A99B2FB789AB264230293AA
:1027D0000123019307F10F03009301230CF004FC84
:1027E000FB7B18461037BD4680BD80B586B004AF70
:1027F00078600B46FB701346BB707868FFF77CFF70
:102800007B6818697B685B7A99B2642305220CF0B7
:1028100011FE7B6818697B685B7A99B2FB789AB283
:102820006423029301230193BB1C009301230CF04A
:10283000E1FA7B6818697B685B7A99B264230522A8
:102840000CF0F8FD7868FFF767FF00BF0837BD465A
:1028500080BD80B58AB004AF78600B46FB704FF046
:1028600000024FF00003C7E90423FB78F82B04D9DA
:102870004FF000024FF000032AE07B6818697B6884
:102880005B7A99B2642305220CF0D4FD7B68186949
:102890007B685B7A99B2FB789AB26423029308232F
:1028A000019307F10803009301230CF09DFB07F14E
:1028B0000803082219467868FFF73EFF07F1080170
:1028C00007F110030822184617F084FED7E9042305
:1028D00043EC172BB0EE470AF0EE670A1837BD46F7
:1028E00080BD80B58AB004AFF8600B4687ED000B61
:1028F000FB7207F110033A4692E8030083E80300F5
:1029000007F1100308221946F868FFF715FFF86869
:10291000FFF7F2FEFB681869FB685B7A99B26423E3
:1029200005220CF087FDFB681869FB685B7A99B299
:10293000FB7A9AB2642302930823019307F11003F0
:10294000009301230CF056FAFB681869FB685B7A68
:1029500099B2642305220CF06DFDF868FFF7DCFEE8
:1029600000BF1837BD4680BD80B582B000AF78602B
:102970007B68DB7A19467868FFF76BFFB0EE407A28
:10298000F0EE607AB0EE470AF0EE670A0837BD460F
:1029900080BD80B582B000AF78607B681B7B194634
:1029A0007868FFF756FFB0EE407AF0EE607AB0EE4E
:1029B000470AF0EE670A0837BD4680BD80B582B091
:1029C00000AF78607B685B7B19467868FFF741FF52
:1029D000B0EE407AF0EE607AB0EE470AF0EE670AA9
:1029E0000837BD4680BD80B584B000AFF86087ED84
:1029F000000BFB68DB7A97ED000B1946F868FFF7D0
:102A000070FF00BF1037BD4680BD80B584B000AFF9
:102A1000F86087ED000BFB681B7B97ED000B1946F8
:102A2000F868FFF75EFF00BF1037BD4680BD80B578
:102A300084B000AFF86087ED000BFB685B7B97ED1F
:102A4000000B1946F868FFF74CFF00BF1037BD4672
:102A500080BD000080B582B000AF786039607B68CF
:102A6000012B08D13B684FF6FF72934203D1A0219E
:102A70000848FFF7CBFD7B68002B07D13B684FF67A
:102A8000FF72934202D10348FFF7E0FD00BF083711
:102A9000BD4680BD8402002080B500AF4FF6FF71B7
:102AA0000120FFF7D7FF80BD80B500AF4FF6FF7163
:102AB0000020FFF7CFFF80BD80B582B000AF034696
:102AC000FB80FB88B3F5805F15D14FF480510C4833
:102AD0000CF002F80346002B0CBF01230023DBB2ED
:102AE000002B08D000224FF4004106480CF00CF8EF
:102AF000054B01229A7500BF0837BD4680BD00BF57
:102B000000040240000C0240F00E002080B483B0AC
:102B100000AF78607B6800229A757B684FF4AF62E3
:102B20009A837B6818460C37BD465DF8047B704776
:102B300080B483B000AF78607B6818460C37BD4620
:102B40005DF8047B704780B584B000AFF860B96071
:102B50003B601346FB80FB68BA681A60FB68FA8822
:102B60009A80FB683A689A60FB683A8B9A81FB68A6
:102B7000FA691A61FB683A8C9A82FB680022DA755E
:102B8000FB6801221A76FB6800225A83FB689B8847
:102B9000002B05D1FB681B681B6800225A6318E0F4
:102BA000FB689B88042B05D1FB681B681B6800220F
:102BB0009A630EE0FB689B88082B05D1FB681B68B5
:102BC0001B680022DA6304E0FB681B681B680022B4
:102BD0001A64FB689B89002B05D1FB689B681B6806
:102BE00000225A6318E0FB689B89042B05D1FB681F
:102BF0009B681B6800229A630EE0FB689B89082B88
:102C000005D1FB689B681B680022DA6304E0FB685F
:102C10009B681B6800221A64FB689B8A002B05D105
:102C2000FB681B691B6800225A6318E0FB689B8ADB
:102C3000042B05D1FB681B691B6800229A630EE018
:102C4000FB689B8A082B05D1FB681B691B68002267
:102C5000DA6304E0FB681B691B6800221A64F868E9
:102C600000F010F800BF1037BD4680BD80B483B0BF
:102C700000AF78607B689B7D18460C37BD465DF8D9
:102C8000047B704780B582B000AF78607B689B7D25
:102C9000312B00F09D807B6831229A757B68002281
:102CA000DA757B689B68184610F011FD7B689B689D
:102CB00054225A607B689B6800229A60464B9A8B2C
:102CC0007B689B68DA607B689B6800221A617B687E
:102CD0009B6800229A617B689B68184610F0A8FCEC
:102CE0000346002B14BF01230023DBB2002B01D0CD
:102CF00002F052FC7B689B88002B05D17B681B6827
:102D00001B6800225A6318E07B689B88042B05D15E
:102D10007B681B681B6800229A630EE07B689B88B7
:102D2000082B05D17B681B681B680022DA6304E06E
:102D30007B681B681B6800221A647B689B89002BD8
:102D400006D1254B9A8B7B689B681B685A631BE0F6
:102D50007B689B89042B06D11F4B9A8B7B689B68F1
:102D60001B689A6310E07B689B89082B06D11A4B7D
:102D70009A8B7B689B681B68DA6305E0164B9A8B1D
:102D80007B689B681B681A647B689B8A002B05D153
:102D90007B681B691B6800225A631AE07B689B8A68
:102DA000042B05D17B681B691B6800229A6310E025
:102DB0007B689B8A082B05D17B681B691B680022F6
:102DC000DA6306E07B681B691B6800221A6400E076
:102DD00000BF0837BD4680BD9802002080B582B094
:102DE00000AF78607B689B7D322B00F09E807B6813
:102DF00032229A757B680022DA757B681B69184657
:102E000010F065FC7B681B6942F2D0025A607B6857
:102E10001B6900229A607B681B6942F6E062DA60F7
:102E20007B681B6900221A617B681B6900229A611A
:102E30007B681B69184610F0FBFB0346002B14BF90
:102E400001230023DBB2002B01D002F0A5FB7B683D
:102E50009B88002B05D17B681B681B6800225A6386
:102E600018E07B689B88042B05D17B681B681B6876
:102E700000229A630EE07B689B88082B05D17B6853
:102E80001B681B680022DA6304E07B681B681B6810
:102E900000221A647B689B89002B05D17B689B68A4
:102EA0001B6800225A6318E07B689B89042B05D1BC
:102EB0007B689B681B6800229A630EE07B689B8995
:102EC000082B05D17B689B681B680022DA6304E04D
:102ED0007B689B681B6800221A647B689B8A002BB6
:102EE00006D17B681B691B6842F228325A631DE0D9
:102EF0007B689B8A042B06D17B681B691B6842F2A6
:102F000028329A6312E07B689B8A082B06D17B6883
:102F10001B691B6842F22832DA6307E07B681B6991
:102F20001B6842F228321A6400E000BF0837BD4631
:102F300080BD80B582B000AF78607B689B7D332B0D
:102F400000F09E807B6833229A757B680022DA75D8
:102F50007B681B69184610F0BAFB7B681B6942F25C
:102F6000D0025A607B681B6900229A607B681B69EB
:102F70004FF4E162DA607B681B6900221A617B68AA
:102F80001B6900229A617B681B69184610F050FB90
:102F90000346002B14BF01230023DBB2002B01D01A
:102FA00002F0FAFA7B689B88002B05D17B681B68CE
:102FB0001B6800225A6318E07B689B88042B05D1AC
:102FC0007B681B681B6800229A630EE07B689B8805
:102FD000082B05D17B681B681B680022DA6304E0BC
:102FE0007B681B681B6800221A647B689B89002B26
:102FF00005D17B689B681B6800225A6318E07B68D8
:103000009B89042B05D17B689B681B6800229A630F
:103010000EE07B689B89082B05D17B689B681B6849
:103020000022DA6304E07B689B681B6800221A6454
:103030007B689B8A002B06D17B681B691B684FF459
:1030400048725A631DE07B689B8A042B06D17B681B
:103050001B691B684FF448729A6312E07B689B8A75
:10306000082B06D17B681B691B684FF44872DA6332
:1030700007E07B681B691B684FF448721A6400E024
:1030800000BF0837BD4680BD80B582B000AF786014
:103090007B689B7D382B00F0A2807B6838229A7574
:1030A0007B680022DA757B681B69184610F00FFBFD
:1030B0007B681B6942F2D0025A607B681B69002260
:1030C0009A607B681B6942F6E062DA607B681B6984
:1030D00000221A617B681B6900229A617B681B6968
:1030E000184610F0A5FA0346002B14BF0123002355
:1030F000DBB2002B01D002F04FFA7B689B88002BDB
:1031000005D17B681B681B6800225A6318E07B6846
:103110009B88042B05D17B681B681B6800229A637F
:103120000EE07B689B88082B05D17B681B681B68B9
:103130000022DA6304E07B681B681B6800221A64C3
:103140007B689B89002B06D17B689B681B6842F2D9
:1031500028325A631BE07B689B89042B06D17B686D
:103160009B681B6842F228329A6310E07B689B8957
:10317000082B06D17B689B681B6842F22832DA6311
:1031800005E07B689B681B6842F228321A647B6802
:103190009B8A002B06D17B681B691B6842F2283290
:1031A0005A631DE07B689B8A042B06D17B681B69F0
:1031B0001B6842F228329A6312E07B689B8A082BD4
:1031C00006D17B681B691B6842F22832DA6307E08C
:1031D0007B681B691B6842F228321A6400E000BF5A
:1031E0000837BD4680BD000080B582B000AF786072
:1031F0007B689B7D342B00F09F807B6834229A751E
:103200007B681B69184610F062FA7B681B695422C0
:103210005A607B681B6900229A60494B9A8B7B68D5
:103220001B69DA607B681B6900221A617B681B6975
:1032300000229A617B681B69184610F0F9F9034671
:10324000002B14BF01230023DBB2002B01D002F0BE
:10325000A3F97B689B88002B05D17B681B681B68E2
:1032600000225A6318E07B689B88042B05D17B6899
:103270001B681B6800229A630EE07B689B88082B02
:1032800005D17B681B681B680022DA6304E07B6859
:103290001B681B6800221A647B689B89002B05D180
:1032A0007B689B681B6800225A6318E07B689B89D7
:1032B000042B05D17B689B681B6800229A630EE093
:1032C0007B689B89082B05D17B689B681B68002263
:1032D000DA6304E07B689B681B6800221A647B68E1
:1032E0009B8A002B05D17B681B691B6800225A63EF
:1032F00018E07B689B8A042B05D17B681B691B68DF
:1033000000229A630EE07B689B8A082B05D17B68BC
:103310001B691B680022DA6304E07B681B691B6879
:1033200000221A647B680122DA757B6801221A7612
:103330007B6800225A8300E000BF0837BD4680BD8D
:103340009802002080B582B000AF78607B689B7DDA
:10335000352B00F09E807B6835229A757B680022B1
:10336000DA757B681B68184610F0B1F97B681B683A
:1033700042F2D0025A607B681B6800229A607B6828
:103380001B684FF4E162DA607B681B6800221A61F7
:103390007B681B6800229A617B681B68184610F0E6
:1033A00047F90346002B14BF01230023DBB2002B97
:1033B00001D002F0F1F87B689B88002B06D17B6876
:1033C0001B681B684FF448725A631BE07B689B883C
:1033D000042B06D17B681B681B684FF448729A6304
:1033E00010E07B689B88082B06D17B681B681B68F4
:1033F0004FF44872DA6305E07B681B681B684FF482
:1034000048721A647B689B89002B05D17B689B6896
:103410001B6800225A6318E07B689B89042B05D146
:103420007B689B681B6800229A630EE07B689B891F
:10343000082B05D17B689B681B680022DA6304E0D7
:103440007B689B681B6800221A647B689B8A002B40
:1034500005D17B681B691B6800225A631AE07B68F0
:103460009B8A042B05D17B681B691B6800229A6329
:1034700010E07B689B8A082B05D17B681B691B6861
:103480000022DA6306E07B681B691B6800221A646D
:1034900000E000BF0837BD4680BD80B582B000AFF8
:1034A00078607B689B7D362B00F09E807B6836229F
:1034B0009A757B680022DA757B681B68184610F0E5
:1034C00006F97B681B6842F2D0025A607B681B6871
:1034D00000229A607B681B6843F69822DA607B685A
:1034E0001B6800221A617B681B6800229A617B6856
:1034F0001B68184610F09CF80346002B14BF0123EC
:103500000023DBB2002B01D002F046F87B689B88D9
:10351000002B06D17B681B681B6841F658325A6342
:103520001BE07B689B88042B06D17B681B681B68AB
:1035300041F658329A6310E07B689B88082B06D1CD
:103540007B681B681B6841F65832DA6305E07B68CC
:103550001B681B6841F658321A647B689B89002BF4
:1035600005D17B689B681B6800225A6318E07B6862
:103570009B89042B05D17B689B681B6800229A639A
:103580000EE07B689B89082B05D17B689B681B68D4
:103590000022DA6304E07B689B681B6800221A64DF
:1035A0007B689B8A002B05D17B681B691B68002206
:1035B0005A631AE07B689B8A042B05D17B681B69E0
:1035C0001B6800229A6310E07B689B8A082B05D158
:1035D0007B681B691B680022DA6306E07B681B6955
:1035E0001B6800221A6400E000BF0837BD4680BD9A
:1035F00080B582B000AF78607B689B7D372B00F090
:103600009E807B6837229A757B680022DA757B681A
:103610001B68184610F05BF87B681B6842F2D0020A
:103620005A607B681B6800229A60474B9A8B7B68C4
:103630001B68DA607B681B6800221A617B681B6864
:1036400000229A617B681B6818460FF0F1FF034661
:10365000002B14BF01230023DBB2002B01D001F0AB
:103660009BFF7B689B88002B06D1374B9A8B7B682E
:103670001B681B685A631BE07B689B88042B06D180
:10368000314B9A8B7B681B681B689A6310E07B68E0
:103690009B88082B06D12C4B9A8B7B681B681B6878
:1036A000DA6305E0284B9A8B7B681B681B681A64F9
:1036B0007B689B89002B05D17B689B681B68002277
:1036C0005A6318E07B689B89042B05D17B689B6853
:1036D0001B6800229A630EE07B689B89082B05D14A
:1036E0007B689B681B680022DA6304E07B689B6848
:1036F0001B6800221A647B689B8A002B05D17B68BB
:103700001B691B6800225A631AE07B689B8A042BA2
:1037100005D17B681B691B6800229A6310E07B68F7
:103720009B8A082B05D17B681B691B680022DA6322
:1037300006E07B681B691B6800221A6400E000BF7A
:103740000837BD4680BD00BF9802002080B582B01A
:1037500000AF78607B689B7D392B00F0A2807B688E
:1037600039229A757B680022DA757B681B681846D7
:103770000FF0ADFF7B681B6842F2D0025A607B6895
:103780001B6800229A607B681B6843F69822DA6007
:103790007B681B6800221A617B681B6800229A61A3
:1037A0007B681B6818460FF043FF0346002B14BFCD
:1037B00001230023DBB2002B01D001F0EDFE7B687A
:1037C0009B88002B05D17B681B681B6800225A630D
:1037D00018E07B689B88042B05D17B681B681B68FD
:1037E00000229A630EE07B689B88082B05D17B68DA
:1037F0001B681B680022DA6304E07B681B681B6897
:1038000000221A647B689B89002B06D17B689B6829
:103810001B6841F658325A631BE07B689B89042B76
:1038200006D17B689B681B6841F658329A6310E0AA
:103830007B689B89082B06D17B689B681B6841F6D7
:103840005832DA6305E07B689B681B6841F65832A2
:103850001A647B689B8A002B06D17B681B691B68F6
:1038600041F658325A631DE07B689B8A042B06D1CF
:103870007B681B691B6841F658329A6312E07B68CB
:103880009B8A082B06D17B681B691B6841F658325E
:10389000DA6307E07B681B691B6841F658321A64DB
:1038A00000E000BF0837BD4680BD80B582B000AFE4
:1038B00078607B689B7D3A2B00F0A2807B683A227F
:1038C0009A757B680022DA757B681B6818460FF0D2
:1038D000FEFE7B681B6842F2D0025A607B681B6860
:1038E00000229A607B681B684FF4E162DA607B68B3
:1038F0001B6800221A617B681B6800229A617B6842
:103900001B6818460FF094FE0346002B14BF0123DA
:103910000023DBB2002B01D001F03EFE7B689B88C8
:10392000002B06D17B681B681B684FF448725A63F2
:103930001BE07B689B88042B06D17B681B681B6897
:103940004FF448729A6310E07B689B88082B06D17D
:103950007B681B681B684FF44872DA6305E07B687C
:103960001B681B684FF448721A647B689B89002BA4
:1039700005D17B689B681B6800225A6318E07B684E
:103980009B89042B05D17B689B681B6800229A6386
:103990000EE07B689B89082B05D17B689B681B68C0
:1039A0000022DA6304E07B689B681B6800221A64CB
:1039B0007B689B8A002B06D17B681B691B684FF4D0
:1039C00048725A631DE07B689B8A042B06D17B6892
:1039D0001B691B684FF448729A6312E07B689B8AEC
:1039E000082B06D17B681B691B684FF44872DA63A9
:1039F00007E07B681B691B684FF448721A6400E09B
:103A000000BF0837BD4680BD80B582B000AF78608A
:103A100039607B68012B07D13B684FF6FF729342F8
:103A200002D10948FFF772F87B68002B07D13B6889
:103A30004FF6FF72934202D10348FFF779F800BFB7
:103A40000837BD4680BD00BF9802002080B500AF9A
:103A50004FF6FF710120FFF7D7FF80BD80B500AFA3
:103A60004FF6FF710020FFF7CFFF80BD80B483B019
:103A700000AF78607B6803221A737B6840F2DC52E7
:103A8000DA817B6800221A827B6840F26C725A826B
:103A90007B6840F698029A827B6840F6AC52DA82E4
:103AA0007B6818460C37BD465DF8047B704780B4D0
:103AB00083B000AF78607B6818460C37BD465DF870
:103AC000047B704780B582B000AF78600B467B8086
:103AD0007B88184609F02AF900BF0837BD4680BD2B
:103AE00080B584B000AFF860B96011461A460B4645
:103AF000FB8013467B717A79FB881946B8680BF016
:103B000003F800BF1037BD4680BD000080B584B00B
:103B100000AFF860B9603B601346FB80FB68BA6891
:103B20001A60FB68FA889A80FB683A689A602048B5
:103B30000CF04BF9FB6801221A761E48FEF735FCA3
:103B40000346012B0CBF01230023DBB2002B01D065
:103B5000302329E0F86800F02FF80346312B14BF1A
:103B600001230023DBB2002B02D0FB6800221A766F
:103B7000F86800F075F80346302B14BF01230023CA
:103B8000DBB2002B02D0FB6800221A76F86800F046
:103B9000E1F80346012B0CBF01230023DBB2002B0D
:103BA00001D0302300E0322318461037BD4680BDD7
:103BB000780400207802002080B584B000AF7860DF
:103BC00023480CF002F90023FB737B681B7BFA7B14
:103BD0009A4234D27B6819687B689A880123786896
:103BE000FFF77EFF7B68DB8919467868FFF76AFF7D
:103BF00017480CF0EAF8786800F086F80346002BC6
:103C000005D01449144801F077FD31231CE07B688E
:103C100019687B689A8800237868FFF761FF0C4871
:103C20000CF0D3F87B68DB8919467868FFF74AFF08
:103C300007480CF0CAF8FB7B0133FB73C5E7074963
:103C4000054801F059FD322318461037BD4680BDA6
:103C50007804002040AF0108800C002050AF01081C
:103C600080B584B000AF786023480CF0AEF8002334
:103C7000FB737B681B7BFA7B9A4234D27B681968A2
:103C80007B689A8800237868FFF72AFF7B68DB89C6
:103C900019467868FFF716FF17480CF096F8786811
:103CA00000F058F80346002B05D01449144801F0E1
:103CB00023FD30231CE07B6819687B689A88012308
:103CC0007868FFF70DFF0C480CF07FF87B68DB8904
:103CD00019467868FFF7F6FE07480CF076F8FB7B8C
:103CE0000133FB73C5E70749054801F005FD3223A1
:103CF00018461037BD4680BD7804002070AF01081B
:103D0000800C002080AF010880B483B000AF7860E1
:103D10007B689B681B8807EE903AF8EE677A9FED08
:103D20000C7A27EE877A7B685B8A07EE903AF8EE8A
:103D3000677AB4EEE77AF1EE10FA01D5012300E0DC
:103D4000002318460C37BD465DF8047B704700BF62
:103D500000404E3F80B483B000AF78607B689B68C2
:103D60001B8807EE903AF8EE677A9FED0C7A27EE03
:103D7000877A7B689B8A07EE903AF8EE677AB4EE12
:103D8000E77AF1EE10FA01DD012300E00023184686
:103D90000C37BD465DF8047B704700BF00404E3FC6
:103DA00080B582B000AF786039607B68012B07D1A5
:103DB0003B684FF6FF72934202D10948FFF756FE67
:103DC0007B68002B07D13B684FF6FF72934202D10C
:103DD0000348FFF76CFE00BF0837BD4680BD00BF3B
:103DE000B802002080B500AF4FF6FF710120FFF749
:103DF000D7FF80BD80B500AF4FF6FF710020FFF701
:103E0000CFFF80BD2DE9F04389B006AF08F030FF49
:103E100000F044FB01F01AFA01F092F901F006F902
:103E200000F0A8FD00F0B4FB00F0E8FC00F0DEFDBF
:103E300000F07CFC00F0AEFC01F026F901F052F934
:103E400001F098F800F0B8FE00F0BCFF01F0C0F8F7
:103E500000F008FD00F006FE00F03CFF01F062F803
:103E600000F020FD15F0E6FC01F078FB4FF4FA635A
:103E7000FB800821A8480FF06DFD0C21A6480FF02B
:103E800069FDA6480FF078FC0021A4480FF02AFE37
:103E90000021A3480FF05EFD0421A1480FF05AFD58
:103EA00008219F480FF056FD07229E499E4808F0C2
:103EB000A5FF382009F09FFC272009F08EFC012285
:103EC00001219A480AF020FE0A2008F02FFF002264
:103ED000012196480AF018FE0A2008F027FF012267
:103EE000012192480AF010FE322008F01FFF90498D
:103EF0009048FEF723FB904B1E88904BB3F800C010
:103F00008F4B1B888F4A12888F4909888F480088F9
:103F10008F4C24888F4D2D88059504940390029131
:103F200001920093634632468B498C48FDF7FEFBB5
:103F30008B498C4808F027FD8B480BF046FF8849D9
:103F40008A4808F020FD88480BF03FFF78498848F0
:103F5000FEF78AFB84480BF038FF7549854803F06B
:103F600073FE81480BF031FF4FF480630293824B64
:103F700001934FF4005300936C4B4FF480526B4904
:103F80007E4803F0E4FB08230293654B019304236E
:103F90000093634B002262497948FEF7D4FD7248D2
:103FA0000BF013FF774B4FF4007277497748FFF718
:103FB000ADFD6D480BF009FF754B0093594B002286
:103FC00056497448FEF72DF867480BF0FEFE724B19
:103FD00001934FF400630093674B4FF4004266492E
:103FE0006E4803F014FD6E4B03936E4B02936E4BC1
:103FF00001936E4B00936E4B6E4A6F496F4804F00D
:104000009AFA59480BF0E1FE6D4801F0CFFC424BA3
:104010001B68FA88DA63404B1B6800221A64524816
:104020000BF0D3FE00224FF4004153480AF06CFD20
:10403000642008F07BFE4C480BF0C7FE002261496B
:1040400061480EF019FC5F4BDB78172B1ED05F4BDD
:1040500001221A705D4B3B225A705C4B00229A7011
:10406000584B07221A70574B09225A70554B14228D
:104070009A70544B1722DA700022544952480EF0BD
:104080007FFA00224F4950480EF072FB36480BF081
:104090009CFE4048FDF7C0FD03461A464C4B1A7083
:1040A00001213C48FEF70CF803461A46494B1A70AA
:1040B0002C4808F09DFCF0EE407A474BC3ED007AA7
:1040C0002A4808F095FCF0EE407A444BC3ED007AA4
:1040D0001848FEF75FF90346002B0CBF01230023AD
:1040E000DBB2002B7CD01348FEF786F9F0EE407A65
:1040F000F5EE407AF1EE10FA0CBF01230023DBB29B
:10410000002B02D02E4802F0E9F81448FCF794FF87
:104110002B4801F08FFFF8E7B4050020FC050020D4
:104120008C060020600C0020D40200200004024015
:10413000D0030020780200200000002002000020B0
:104140000400002006000020080000200A000020D3
:104150000C0000200E000020A4040020B801002064
:1041600024040020F01A002078040020FC1A00200B
:1041700084020020200F0020000C0240F00E0020DE
:1041800098020020680C002000100240B8020020B5
:10419000620C002030020020060F0020080F0020D3
:1041A000FC110020FC130020FC150020FC1700204F
:1041B000500A0020F0090020A4070020FC1900206C
:1041C000800C0020300C002084040020340C0020DF
:1041D0007C0C00207D0C0020740C0020780C00204A
:1041E0009B48FEF7D7F80346012B0CBF01230023A1
:1041F000DBB2002B5BD0974BDB78012B23D1954BA7
:1042000000221A71934BDB68924AD2881946914872
:1042100006F0CAFE8F4B01221A718E4B0022DA7013
:104220008C4BDB698B4A51694FF40072184610F0D1
:1042300065FD884B5B6A1B681A68864B5B6A1B6866
:1042400022F008021A60844803F05AFC0346012B4E
:104250000DD101218148FDF733FF0346432B06D0E2
:1042600001217E48FDF72CFF0346422B03D17C4BF6
:104270009B7D012B01D1012300E00023002B16D0F0
:10428000754803F029FC7548FDF796FE7548FFF761
:1042900004F975480BF099FD4FF4FA7008F046FDEB
:1042A00071480BF092FD4FF4FA7008F03FFD6F4833
:1042B00008F09EFBF0EE407A6D4BC3ED007A0120D2
:1042C00008F034FD6B4808F093FBF0EE407A6A4B3F
:1042D000C3ED007A012008F029FD002267496848F3
:1042E0000EF0E8F90022674965480EF0C5FA5E480D
:1042F0000BF06BFD6448FCF79FFE08F00BFD0246D7
:10430000624B5B68D21A614B1B689A428CBF0123D7
:104310000023DBB2002B00F0968008F0FBFC034684
:104320005A4A536050480BF050FD5848FEF71CFBAA
:1043300055EC104B5448FDF721F953EC102B204657
:104340002946FBF7C3FF02460B4614461D464E485E
:10435000FDF738F953EC102B20462946FBF7B6FF42
:1043600002460B4614461D464748FDF74FF953ECED
:10437000102B20462946FBF7A9FF02460B4643ECCB
:10438000172BB0EE470AF0EE670A4048FEF72BFB0A
:104390003E48FEF7E9FAB0EE407AF0EE607A3C4B28
:1043A00083ED007B3948FEF7F4FA55EC104B3648A4
:1043B000FDF798F959EC108B3348FDF74BF953ECA6
:1043C000102B40464946FBF77FFF02460B4620462E
:1043D0002946FBF77BFF02460B4643EC172BB0EE5A
:1043E000470AF0EE670A2948FEF70FFB2748FEF759
:1043F000D0FAB0EE407AF0EE607A264B83ED007B87
:104400002248FEF7DBFA55EC104B1F48FDF746F942
:1044100053EC102B20462946FBF758FF02460B466B
:1044200043EC172BB0EE470AF0EE670A1748FEF789
:10443000FEFA1648FEF7C2FAB0EE407AF0EE607A65
:10444000154B83ED007B08480BF0BFFC21E600BF55
:1044500078020020FC190020080F00203002002004
:10446000F00E00209802002078040020F01A0020AE
:10447000740C0020FC1A0020780C0020340C002062
:1044800084040020300C0020B801002084020020A9
:10449000480C0020500C0020580C002080B594B02F
:1044A00000AF07F11C0334220021184616F0A0F8D3
:1044B00007F1080300221A605A609A60DA601A61F4
:1044C00000237B60304B1B6C2F4A43F080531364F6
:1044D0002D4B1B6C03F080537B607B6800233B609B
:1044E0002A4B1B68294A43F440431360274B1B683F
:1044F00003F440433B603B680D23FB614FF4803382
:104500003B6201237B6201233B6302237B634FF405
:104510008003BB631923FB634FF4A8733B6402233E
:104520007B640723BB640223FB6407F11C0318466A
:104530000DF012FD0346002B14BF01230023DBB254
:10454000002B01D001F028F80F23BB600223FB6091
:1045500000233B614FF4A0537B614FF48053BB6158
:1045600007F10803052118460CF008FF0346002B4D
:1045700014BF01230023DBB2002B01D001F00CF8A3
:1045800000BF5037BD4680BD00380240007000407B
:1045900080B584B000AF3B4600221A605A609A6032
:1045A000DA605F4B5F4A1A605D4B4FF480325A60AD
:1045B0005B4B00229A605A4B01221A61584B012230
:1045C0001A76574B002283F82020554B0022DA62DE
:1045D000534B554A9A62524B0022DA60504B0722E5
:1045E000DA614F4B012283F830204D4B00225A6193
:1045F0004B4808F0BFFB0346002B14BF01230023E8
:10460000DBB2002B01D000F0C7FF0A233B6001237F
:104610007B600423BB603B461946414808F012FD0D
:104620000346002B14BF01230023DBB2002B01D073
:1046300000F0B2FF0B233B6002237B603B46194630
:10464000374808F0FFFC0346002B14BF012300236A
:10465000DBB2002B01D000F09FFF0C233B60032353
:104660007B603B4619462E4808F0ECFC0346002BC5
:1046700014BF01230023DBB2002B01D000F08CFF1C
:104680000D233B6004237B603B461946244808F019
:10469000D9FC0346002B14BF01230023DBB2002BFF
:1046A00001D000F079FF0E233B6005237B603B4681
:1046B00019461B4808F0C6FC0346002B14BF012313
:1046C0000023DBB2002B01D000F066FF11233B601A
:1046D00006237B603B461946114808F0B3FC0346AD
:1046E000002B14BF01230023DBB2002B01D000F00C
:1046F00053FF12233B6007237B603B461946084863
:1047000008F0A0FC0346002B14BF01230023DBB2FA
:10471000002B01D000F040FF00BF1037BD4680BD28
:10472000D4020020002001400100000F80B500AF3E
:10473000154B164A1A60144B154A5A60124B002248
:104740009A60114B0022DA600F4B4FF480421A61DD
:104750000D4B00225A610C4B00229A610A4B002239
:10476000DA61094B00221A6207480AF0FFF9034692
:10477000002B14BF01230023DBB2002B01D000F07B
:104780000BFF00BF80BD00BF7C0300200054004031
:10479000801A060080B500AF154B164A1A60144BFC
:1047A000154A5A60124B00229A60114B0022DA60BF
:1047B0000F4B4FF480421A610D4B00225A610C4B93
:1047C00000229A610A4B0022DA61094B00221A6228
:1047D00007480AF0CBF90346002B14BF012300233E
:1047E000DBB2002B01D000F0D7FE00BF80BD00BFC0
:1047F000D003002000580040801A060080B500AFAA
:10480000154B164A1A60144B154A5A60124B002277
:104810009A60114B9C22DA600F4B4FF480421A6170
:104820000D4B00225A610C4B00229A610A4B002268
:10483000DA61094B00221A6207480AF097F9034629
:10484000002B14BF01230023DBB2002B01D000F0AA
:10485000A3FE00BF80BD00BF24040020005C004018
:10486000801A060080B500AF0C4B0D4A1A600B4B46
:1048700003225A60094B40F6B8329A6007480BF0A1
:1048800062FA0346002B14BF01230023DBB2002B86
:1048900001D000F081FE00BF80BD00BF7804002081
:1048A0000030004080B586B000AF3B1D00221A608A
:1048B0005A609A60DA601A6100233B602B4B2C4AE5
:1048C0001A602A4B00225A60284B7F229A60274B9D
:1048D000FF22DA60254B00221A61244B00225A6124
:1048E000224B00229A6121480DF0D4FD0346002B93
:1048F00014BF01230023DBB2002B01D000F04CFEDB
:1049000001233B7138237B711E23BB7100233B6164
:1049100000237B613B1D0022194614480DF030FE38
:104920000346002B14BF01230023DBB2002B01D070
:1049300000F032FE07233B7009237B701823BB7005
:104940001723FB703B460022194608480DF010FF64
:104950000346002B14BF01230023DBB2002B01D040
:1049600000F01AFE00BF1837BD4680BD8404002049
:104970000028004080B500AF1A4B1B4A1A60194B43
:104980004FF482725A60174B00229A60154B002236
:10499000DA60144B00221A61124B00225A61114B4B
:1049A0004FF480229A610F4B3022DA610D4B0022C6
:1049B0001A620C4B00225A620A4B00229A62094B7F
:1049C0000A22DA6207480EF063F80346002B14BF90
:1049D00001230023DBB2002B01D000F0DDFD00BF7E
:1049E00080BD00BFA40400200030014080B500AFAE
:1049F0001A4B1B4A1A60194B4FF482725A60174BBC
:104A000000229A60154B0022DA60144B00221A61D2
:104A1000124B00225A61114B4FF400729A610F4BF6
:104A20000022DA610D4B00221A620C4B00225A62FE
:104A30000A4B00229A62094B0A22DA6207480EF0FA
:104A400027F80346002B14BF01230023DBB2002B01
:104A500001D000F0A1FD00BF80BD00BFFC0400201C
:104A60000034014080B592B000AF07F1400300224E
:104A70001A605A6007F1240300221A605A609A6093
:104A8000DA601A615A619A613B1D202200211846A2
:104A900015F0AEFD464B474A1A60454B4AF21042AC
:104AA0005A60434B00229A60414B40F69F72DA6095
:104AB0003F4B00221A613E4B00225A613C4B0022C0
:104AC0009A613B480EF0F7FE0346002B14BF01230A
:104AD0000023DBB2002B01D000F05EFD00233B641D
:104AE00000237B6407F14003194631480FF0C6FEEE
:104AF0000346002B14BF01230023DBB2002B01D09F
:104B000000F04AFD60237B620023BB620023FB624E
:104B100000233B6300237B630023BB630023FB6311
:104B200007F124030822194621480FF0F9F903463A
:104B3000002B14BF01230023DBB2002B01D000F0B7
:104B40002BFD07F124030C22194619480FF0E8F950
:104B50000346002B14BF01230023DBB2002B01D03E
:104B600000F01AFD00237B600023BB600023FB6084
:104B700000233B6100237B614FF40053BB610023A2
:104B80003B623B1D19460A480FF0F4FE0346002B1A
:104B900014BF01230023DBB2002B01D000F0FCFC8A
:104BA000034806F0E5FF00BF4837BD4680BD00BFA3
:104BB000B40500200000014080B58EB000AF07F1C1
:104BC000280300221A605A609A60DA6007F1200315
:104BD00000221A605A603B1D00221A605A609A60D7
:104BE000DA601A615A619A61394B4FF080421A605B
:104BF000374B54225A60364B00229A60344B40F2B5
:104C0000E732DA60324B00221A61314B00229A619E
:104C10002F480EF00DFD0346002B14BF0123002387
:104C2000DBB2002B01D000F0B7FC4FF48053BB6225
:104C300007F12803194626480FF034FA0346002BE3
:104C400014BF01230023DBB2002B01D000F0A4FC31
:104C50001F480EF030FE0346002B14BF0123002333
:104C6000DBB2002B01D000F097FC00233B62002355
:104C70007B6207F12003194615480FF0FFFD03463C
:104C8000002B14BF01230023DBB2002B01D000F066
:104C900083FC60237B600023BB600023FB60002358
:104CA0007B613B1D0022194609480FF039F9034684
:104CB000002B14BF01230023DBB2002B01D000F036
:104CC0006BFC034806F054FF00BF3837BD4680BD7B
:104CD000FC05002080B58AB000AF07F12003002258
:104CE0001A605A603B1D00221A605A609A60DA60AE
:104CF0001A615A619A61314B314A1A602F4B002276
:104D00005A602E4B00229A602C4B4FF6FF72DA60ED
:104D10002A4B00221A61294B00229A6127480EF083
:104D2000CAFD0346002B14BF01230023DBB2002B76
:104D300001D000F031FC00233B6200237B6207F1CD
:104D4000200319461D480FF099FD0346002B14BFA0
:104D500001230023DBB2002B01D000F01DFC6023F7
:104D60007B600023BB600023FB6000237B613B1D55
:104D70000022194611480FF0D3F80346002B14BF48
:104D800001230023DBB2002B01D000F005FC3B1D0A
:104D90000422194609480FF0C3F80346002B14BF3C
:104DA00001230023DBB2002B01D000F0F5FB034808
:104DB00006F0DEFE00BF2837BD4680BD4406002059
:104DC0000004004080B58EB000AF07F12803002238
:104DD0001A605A609A60DA6007F1200300221A60B4
:104DE0005A603B1D00221A605A609A60DA601A61AC
:104DF0005A619A61494B4A4A1A60484B42F2D002C2
:104E00005A60464B00229A60444B42F21072DA60BC
:104E1000424B00221A61414B00229A613F480EF03A
:104E200007FC0346002B14BF01230023DBB2002B39
:104E300001D000F0B1FB4FF48053BB6207F12803AF
:104E4000194636480FF02EF90346002B14BF0123F4
:104E50000023DBB2002B01D000F09EFB2F480EF0A8
:104E60002AFD0346002B14BF01230023DBB2002BD5
:104E700001D000F091FB00233B6200237B6207F12D
:104E80002003194625480FF0F9FC0346002B14BFF8
:104E900001230023DBB2002B01D000F07DFB602357
:104EA0007B600023BB600023FB6000237B613B1D14
:104EB0000022194619480FF033F80346002B14BF9F
:104EC00001230023DBB2002B01D000F065FB3B1D6A
:104ED0000422194611480FF023F80346002B14BF93
:104EE00001230023DBB2002B01D000F055FB3B1D5A
:104EF0000822194609480FF013F80346002B14BF87
:104F000001230023DBB2002B01D000F045FB034856
:104F100006F02EFE00BF3837BD4680BD8C0600204F
:104F20000008004080B500AF104B114A1A600F4BCB
:104F300054225A600D4B00229A600C4B9622DA6084
:104F40000A4B00221A61094B80229A6107480EF031
:104F50006FFB0346002B14BF01230023DBB2002BA1
:104F600001D000F019FB00BF80BD00BFD4060020B7
:104F70000044014080B500AF134B144A1A60124B35
:104F80004FF4E1325A60104B00229A600E4B00221F
:104F9000DA600D4B00221A610B4B0C225A610A4B4E
:104FA00000229A61084B0022DA6107480FF048FDA1
:104FB0000346002B14BF01230023DBB2002B01D0DA
:104FC00000F0EAFA00BF80BD1C070020004C004042
:104FD00080B500AF134B144A1A60124B4FF4E13204
:104FE0005A60104B00229A600E4B0022DA600D4B83
:104FF00000221A610B4B0C225A610A4B00229A6163
:10500000084B0022DA6107480FF01AFD0346002B17
:1050100014BF01230023DBB2002B01D000F0BCFA47
:1050200000BF80BD600700200050004080B500AF89
:10503000134B144A1A60124B4FF4E1325A60104B72
:1050400000229A600E4B0022DA600D4B00221A619A
:105050000B4B0C225A610A4B00229A61084B00222A
:10506000DA6107480FF0ECFC0346002B14BF012364
:105070000023DBB2002B01D000F08EFA00BF80BD10
:10508000A40700200010014080B500AF134B144A64
:105090001A60124B4FF4E1325A60104B00229A60B2
:1050A0000E4B0022DA600D4B00221A610B4B0C22D2
:1050B0005A610A4B00229A61084B0022DA610748C4
:1050C0000FF0BEFC0346002B14BF01230023DBB20C
:1050D000002B01D000F060FA00BF80BDE80700207F
:1050E0000044004080B500AF134B144A1A60124BC5
:1050F0004FF416425A60104B00229A600E4B002269
:10510000DA600D4B00221A610B4B0C225A610A4BDC
:1051100000229A61084B0022DA6107480FF090FCE8
:105120000346002B14BF01230023DBB2002B01D068
:1051300000F032FA00BF80BD2C080020004800407B
:1051400080B582B000AF00237B603F4B1B6B3E4AB3
:1051500043F4800313633C4B1B6B03F480037B60BD
:105160007B6800233B60384B1B6B374A43F40013CA
:105170001363354B1B6B03F400133B603B68002249
:1051800000210B2008F00DFB0B2008F026FB00226D
:1051900000210C2008F005FB0C2008F01EFB00226B
:1051A00000210D2008F0FDFA0D2008F016FB00226A
:1051B00000210E2008F0F5FA0E2008F00EFB002268
:1051C00000210F2008F0EDFA0F2008F006FB002266
:1051D0000021102008F0E5FA102008F0FEFA002265
:1051E0000021112008F0DDFA112008F0F6FA002263
:1051F00000212F2008F0D5FA2F2008F0EEFA002227
:105200000021382008F0CDFA382008F0E6FA002214
:105210000021392008F0C5FA392008F0DEFA002212
:1052200000213A2008F0BDFA3A2008F0D6FA002210
:105230000021462008F0B5FA462008F0CEFA00BF5B
:105240000837BD4680BD00BF0038024080B58CB035
:1052500000AF07F11C0300221A605A609A60DA60FE
:105260001A610023BB61B74B1B6BB64A43F01003B6
:105270001363B44B1B6B03F01003BB61BB690023CA
:105280007B61B04B1B6BAF4A43F004031363AD4B20
:105290001B6B03F004037B617B6900233B61A94B1B
:1052A0001B6BA84A43F080031363A64B1B6B03F0F0
:1052B00080033B613B690023FB60A24B1B6BA14A4F
:1052C00043F0010313639F4B1B6B03F00103FB606F
:1052D000FB680023BB609B4B1B6B9A4A43F00203A5
:1052E0001363984B1B6B03F00203BB60BB68002386
:1052F0007B60944B1B6B934A43F008031363914B01
:105300001B6B03F008037B607B68002248F20201FC
:105310008D4809F0F9FB002244F201018B4809F0A5
:10532000F3FB002240F20161894809F0EDFB012204
:105330004FF40051854809F0E7FB01224FF48061EA
:10534000844809F0E1FB002248F23F01814809F05E
:10535000DBFB00224021804809F0D6FB49F23A03EA
:10536000FB6100233B6200237B6207F11C031946AB
:10537000774809F029F94FF40653FB6100233B629B
:1053800000237B6207F11C031946734809F01CF9DE
:105390000123FB6100233B6200237B6207F11C03B6
:1053A0001946694809F010F948F20203FB6101232C
:1053B0003B6200237B620023BB6207F11C0319469A
:1053C000614809F001F92023FB614FF444133B626B
:1053D00001237B6207F11C0319465F4809F0F4F8CA
:1053E00046F20103FB6101233B6200237B62002341
:1053F000BB6207F11C031946544809F0E5F840F276
:105400000623FB614FF444133B6201237B6207F1E7
:105410001C0319464D4809F0D7F840F20163FB61BF
:1054200001233B6200237B620023BB6207F11C0364
:105430001946474809F0C8F84FF40063FB614FF480
:1054400088133B6200237B6207F11C031946404826
:1054500009F0BAF84FF48053FB614FF404133B6238
:1054600001237B6207F11C031946384809F0ACF8A8
:1054700048F20803FB6100233B6200237B6207F1D3
:105480001C031946314809F09FF840F23F43FB6185
:1054900001233B6200237B620023BB6207F11C03F4
:1054A00019462C4809F090F84FF40C63FB61002377
:1054B0003B6200237B6207F11C031946254809F073
:1054C00083F84FF40043FB6101233B6202237B62BC
:1054D0000023BB6207F11C0319461E4809F074F84B
:1054E0004023FB6101233B6200237B620023BB62FC
:1054F00007F11C031946184809F066F8002200213C
:10550000072008F04EF9072008F067F90022002173
:10551000082008F046F9082008F05FF90022002171
:10552000172008F03EF9172008F057F90022002153
:10553000282008F036F9282008F04FF900BF30374E
:10554000BD4680BD00380240000002400004024019
:1055500000100240000C02400008024080B588B0F4
:1055600000AF3B1D184608F015FFBB6903F00C03A4
:10557000002B0DD008F0BAFD08237B600023BB612F
:105580003B1D184608F098FE08F0DCFD08F0CAFD47
:1055900000BF2037BD4680BD80B400AF72B600BFEB
:1055A000FEE780B483B000AF78607B6800221A7099
:1055B0007B6800225A707B6800229A707B68002208
:1055C000DA707B6800221A717B6800225A717B684E
:1055D00000229A717B680022DA717B6800221A72BD
:1055E0007B6800225A727B6800229A727B68184698
:1055F0000C37BD465DF8047B7047000000000000DA
:1056000080B582B000AF78607B6800221A607B684A
:1056100000225A607B6800229A607B686422DA600C
:10562000796829A3D3E90023C1E90623796828A36F
:10563000D3E90023C1E90823796827A3D3E900232C
:10564000C1E90A2379684FF000021B4BC1E90C2322
:1056500079684FF00002194BC1E90E23796812A353
:10566000D3E90023C1E9102379684FF00002144BFD
:10567000C1E912237B684FF496721A6579680CA30E
:10568000D3E90023C1E916237B680E4A1A667B68BA
:1056900003F519731846FFF784FF7B68184608372F
:1056A000BD4680BDAFF300809A9999999999F13FD1
:1056B000000000000088A3400000484000004A406D
:1056C0000000F43F0000AA420000000000C06C404F
:1056D0000000000000A064400000000000D0704006
:1056E00080B483B000AF78607B6818460C37BD4645
:1056F0005DF8047B7047000080B584B000AF78602F
:10570000396040F60D23BB813868FAF781FD034606
:10571000FB81FB89B3F5007F02D94FF40073FB8155
:10572000012202210D4809F0EFF9FA894FF47A734A
:1057300039680B480FF0D1F907F10C014FF47A7377
:10574000022207480FF0C9F900220221034809F09C
:10575000DBF900BF1037BD4680BD00BF000002402E
:10576000E807002080B5ADF5027D00AF07F50273B4
:10577000A3F5017318608048FBF75EFC07F5027320
:10578000A3F501737D491868FFF7B6FF7A4BD3E99B
:105790000E2310461946FBF7FFF9034607F10800F0
:1057A000774A4FF4007114F02BFF07F1080207F558
:1057B0000273A3F5017311461868FFF79DFF6E4B46
:1057C000D3E9102310461946FBF7E6F9034607F123
:1057D00008006C4A4FF4007114F012FF07F1080240
:1057E00007F50273A3F5017311461868FFF784FFEC
:1057F000614BD3E9122310461946FBF7CDF9034656
:1058000007F10800604A4FF4007114F0F9FE07F147
:10581000080207F50273A3F5017311461868FFF734
:105820006BFF07F50273A3F5017358491868FFF77A
:1058300063FF514BD3E9082310461946FBF7ACF937
:10584000034607F10800524A4FF4007114F0D8FEE5
:1058500007F1080207F50273A3F5017311461868F2
:10586000FFF74AFF444BD3E90A2310461946FBF7DA
:1058700093F9034607F10800464A4FF4007114F00B
:10588000BFFE07F1080207F50273A3F50173114685
:105890001868FFF731FF384BD3E90C23104619463F
:1058A000FBF77AF9034607F108003B4A4FF4007111
:1058B00014F0A6FE07F1080207F50273A3F50173C1
:1058C00011461868FFF718FF07F50273A3F5017377
:1058D00032491868FFF710FF274BD3E9142310460D
:1058E0001946FBF759F9034607F108002C4A4FF413
:1058F000007114F085FE07F1080207F50273A3F5A5
:10590000017311461868FFF7F7FE1B4BD3E9182304
:1059100010461946FBF740F9034607F10800214AF3
:105920004FF4007114F06CFE07F1080207F50273E2
:10593000A3F5017311461868FFF7DEFE0E4BD3E99D
:10594000162310461946FBF727F9034607F108000E
:10595000154A4FF4007114F053FE07F1080207F5E1
:105960000273A3F5017311461868FFF7C5FE00BF67
:1059700007F50277BD4680BDB80100209CAF010845
:10598000BCAF0108D8AF0108F4AF010810B001089E
:1059900034B0010850B001086CB0010888B00108AB
:1059A000A8B00108C4B00108DCB0010880B483B01D
:1059B00000AF78607B68302283F86F2200BF0C371D
:1059C000BD465DF8047B704780B582B000AF78605B
:1059D000396005480AF0F9F9386807F0A7F900BFFF
:1059E0000837BD4680BD00BF7804002080B483B076
:1059F00000AF78607B68002283F864227B68002215
:105A000083F865227B68002283F866227B68002287
:105A100083F867227B68002283F868227B68002273
:105A200083F869227B68002283F86A227B6800225F
:105A300083F86B227B68002283F86C227B6800224B
:105A400083F86D227B68002283F86E2200BF0C373A
:105A5000BD465DF8047B704780B483B000AF7860CA
:105A60007B6800221A607B6800225A607B680022F3
:105A70009A6000BF0C37BD465DF8047B704700009C
:105A8000B0B586B000AF78605E4B9B6B1846FAF7F6
:105A90007BFD7B68D3E91023FAF7CEFD02460B4667
:105AA000104619464FF00002574BFAF7C5FD024663
:105AB0000B46C7E90423534B9B6B1846FAF764FD6A
:105AC00004460D467B68D3E912014FF000024E4BAD
:105AD000FAF7B2FD02460B4620462946FAF7ACFD1E
